{
	"data": {
		"bytecode": {
			"linkReferences": {},
			"object": "60a0604052612710600a5566b1a2bc2ec50000600b555f1963ffffffff16600e553480156200002c575f80fd5b50604051620050c9380380620050c983398181016040528101906200005291906200046d565b806040518060400160405280601881526020017f424f4f4253204f4620424954434f494e20544553544e455400000000000000008152506040518060400160405280600881526020017f424f422054455354000000000000000000000000000000000000000000000000815250815f9081620000cf919062000701565b508060019081620000e1919062000701565b5050505f73ffffffffffffffffffffffffffffffffffffffff168173ffffffffffffffffffffffffffffffffffffffff160362000157575f6040517f1e4fbdf70000000000000000000000000000000000000000000000000000000081526004016200014e9190620007f6565b60405180910390fd5b62000168816200019360201b60201c565b50601260ff1660808160ff16815250506200018c306102b26200025660201b60201c565b506200089c565b5f60075f9054906101000a900473ffffffffffffffffffffffffffffffffffffffff1690508160075f6101000a81548173ffffffffffffffffffffffffffffffffffffffff021916908373ffffffffffffffffffffffffffffffffffffffff1602179055508173ffffffffffffffffffffffffffffffffffffffff168173ffffffffffffffffffffffffffffffffffffffff167f8be0079c531659141344cd1fd0a4f28419497f9722a3daafe3b4186f6b6457e060405160405180910390a35050565b5f62000267620003ff60201b60201c565b6bffffffffffffffffffffffff16905080826bffffffffffffffffffffffff161115620002cf5781816040517f6f483d09000000000000000000000000000000000000000000000000000000008152600401620002c692919062000871565b60405180910390fd5b5f73ffffffffffffffffffffffffffffffffffffffff168373ffffffffffffffffffffffffffffffffffffffff160362000342575f6040517fb6d9900a000000000000000000000000000000000000000000000000000000008152600401620003399190620007f6565b60405180910390fd5b60405180604001604052808473ffffffffffffffffffffffffffffffffffffffff168152602001836bffffffffffffffffffffffff1681525060085f820151815f015f6101000a81548173ffffffffffffffffffffffffffffffffffffffff021916908373ffffffffffffffffffffffffffffffffffffffff1602179055506020820151815f0160146101000a8154816bffffffffffffffffffffffff02191690836bffffffffffffffffffffffff160217905550905050505050565b5f612710905090565b5f80fd5b5f73ffffffffffffffffffffffffffffffffffffffff82169050919050565b5f62000437826200040c565b9050919050565b62000449816200042b565b811462000454575f80fd5b50565b5f8151905062000467816200043e565b92915050565b5f6020828403121562000485576200048462000408565b5b5f620004948482850162000457565b91505092915050565b5f81519050919050565b7f4e487b71000000000000000000000000000000000000000000000000000000005f52604160045260245ffd5b7f4e487b71000000000000000000000000000000000000000000000000000000005f52602260045260245ffd5b5f60028204905060018216806200051957607f821691505b6020821081036200052f576200052e620004d4565b5b50919050565b5f819050815f5260205f209050919050565b5f6020601f8301049050919050565b5f82821b905092915050565b5f60088302620005937fffffffffffffffffffffffffffffffffffffffffffffffffffffffffffffffff8262000556565b6200059f868362000556565b95508019841693508086168417925050509392505050565b5f819050919050565b5f819050919050565b5f620005e9620005e3620005dd84620005b7565b620005c0565b620005b7565b9050919050565b5f819050919050565b6200060483620005c9565b6200061c6200061382620005f0565b84845462000562565b825550505050565b5f90565b6200063262000624565b6200063f818484620005f9565b505050565b5b8181101562000666576200065a5f8262000628565b60018101905062000645565b5050565b601f821115620006b5576200067f8162000535565b6200068a8462000547565b810160208510156200069a578190505b620006b2620006a98562000547565b83018262000644565b50505b505050565b5f82821c905092915050565b5f620006d75f1984600802620006ba565b1980831691505092915050565b5f620006f18383620006c6565b9150826002028217905092915050565b6200070c826200049d565b67ffffffffffffffff811115620007285762000727620004a7565b5b62000734825462000501565b620007418282856200066a565b5f60209050601f83116001811462000777575f841562000762578287015190505b6200076e8582620006e4565b865550620007dd565b601f198416620007878662000535565b5f5b82811015620007b05784890151825560018201915060208501945060208101905062000789565b86831015620007d05784890151620007cc601f891682620006c6565b8355505b6001600288020188555050505b505050505050565b620007f0816200042b565b82525050565b5f6020820190506200080b5f830184620007e5565b92915050565b5f6bffffffffffffffffffffffff82169050919050565b5f62000848620008426200083c8462000811565b620005c0565b620005b7565b9050919050565b6200085a8162000828565b82525050565b6200086b81620005b7565b82525050565b5f604082019050620008865f8301856200084f565b62000895602083018462000860565b9392505050565b608051614817620008b25f395f50506148175ff3fe608060405260043610610275575f3560e01c8063715018a61161014e578063aca75a52116100c0578063cd279c7c11610079578063cd279c7c14610a11578063d4d747b814610a39578063e985e9c514610a75578063ef8b30f714610ab1578063f2fde38b14610aed578063f582d29314610b155761027c565b8063aca75a52146108d5578063b3d7f6b914610905578063b6b55f2514610941578063b88d4fde14610971578063c6e6f59214610999578063c87b56dd146109d55761027c565b80638f2fc60b116101125780638f2fc60b146107a7578063908c55fc146107cf57806395d89b411461080b578063a10de6d614610835578063a22cb46514610871578063ac11e794146108995761027c565b8063715018a6146106c55780637c05a2a7146106db578063858048641461071757806387269729146107535780638da5cb5b1461077d5761027c565b8063313ce567116101e75780634cdad506116101ab5780634cdad50614610597578063577d6763146105d35780635a92afc2146105fb5780636352211e14610625578063650749a61461066157806370a08231146106895761027c565b8063313ce567146104b75780633a98ef39146104e15780633d9e67ec1461050b57806342842e0e146105475780634697f05d1461056f5761027c565b8063095ea7b311610239578063095ea7b3146103885780630a28a477146103b05780630ad58d2f146103ec57806318160ddd1461042857806323b872dd146104525780632a55205a1461047a5761027c565b806301e1d1141461028057806301ffc9a7146102aa57806306fdde03146102e657806307a2d13a14610310578063081812fc1461034c5761027c565b3661027c57005b5f80fd5b34801561028b575f80fd5b50610294610b3f565b6040516102a19190613444565b60405180910390f35b3480156102b5575f80fd5b506102d060048036038101906102cb91906134c3565b610b46565b6040516102dd9190613508565b60405180910390f35b3480156102f1575f80fd5b506102fa610b57565b60405161030791906135ab565b60405180910390f35b34801561031b575f80fd5b50610336600480360381019061033191906135f5565b610be6565b6040516103439190613444565b60405180910390f35b348015610357575f80fd5b50610372600480360381019061036d91906135f5565b610bf8565b60405161037f919061365f565b60405180910390f35b348015610393575f80fd5b506103ae60048036038101906103a991906136a2565b610c13565b005b3480156103bb575f80fd5b506103d660048036038101906103d191906135f5565b610c29565b6040516103e39190613444565b60405180910390f35b3480156103f7575f80fd5b50610412600480360381019061040d91906136e0565b610c3c565b60405161041f9190613508565b60405180910390f35b348015610433575f80fd5b5061043c610f24565b6040516104499190613444565b60405180910390f35b34801561045d575f80fd5b5061047860048036038101906104739190613730565b610f2a565b005b348015610485575f80fd5b506104a0600480360381019061049b9190613780565b611029565b6040516104ae9291906137be565b60405180910390f35b3480156104c2575f80fd5b506104cb611205565b6040516104d89190613800565b60405180910390f35b3480156104ec575f80fd5b506104f5611213565b6040516105029190613444565b60405180910390f35b348015610516575f80fd5b50610531600480360381019061052c91906135f5565b61121c565b60405161053e9190613444565b60405180910390f35b348015610552575f80fd5b5061056d60048036038101906105689190613730565b611245565b005b34801561057a575f80fd5b5061059560048036038101906105909190613843565b611264565b005b3480156105a2575f80fd5b506105bd60048036038101906105b891906135f5565b6112c4565b6040516105ca9190613444565b60405180910390f35b3480156105de575f80fd5b506105f960048036038101906105f49190613881565b6112d6565b005b348015610606575f80fd5b5061060f6112fa565b60405161061c9190613444565b60405180910390f35b348015610630575f80fd5b5061064b600480360381019061064691906135f5565b611300565b604051610658919061365f565b60405180910390f35b34801561066c575f80fd5b50610687600480360381019061068291906135f5565b611311565b005b348015610694575f80fd5b506106af60048036038101906106aa91906138ac565b611323565b6040516106bc9190613444565b60405180910390f35b3480156106d0575f80fd5b506106d96113d9565b005b3480156106e6575f80fd5b5061070160048036038101906106fc91906135f5565b6113ec565b60405161070e9190613444565b60405180910390f35b348015610722575f80fd5b5061073d600480360381019061073891906136e0565b61140e565b60405161074a9190613508565b60405180910390f35b34801561075e575f80fd5b50610767611712565b6040516107749190613444565b60405180910390f35b348015610788575f80fd5b50610791611740565b60405161079e919061365f565b60405180910390f35b3480156107b2575f80fd5b506107cd60048036038101906107c89190613918565b611768565b005b3480156107da575f80fd5b506107f560048036038101906107f091906135f5565b61177e565b6040516108029190613444565b60405180910390f35b348015610816575f80fd5b5061081f6117a1565b60405161082c91906135ab565b60405180910390f35b348015610840575f80fd5b5061085b600480360381019061085691906135f5565b611831565b6040516108689190613444565b60405180910390f35b34801561087c575f80fd5b5061089760048036038101906108929190613843565b61184b565b005b3480156108a4575f80fd5b506108bf60048036038101906108ba91906135f5565b611861565b6040516108cc9190613444565b60405180910390f35b6108ef60048036038101906108ea9190613780565b61188a565b6040516108fc9190613508565b60405180910390f35b348015610910575f80fd5b5061092b600480360381019061092691906135f5565b611a5a565b6040516109389190613444565b60405180910390f35b61095b600480360381019061095691906135f5565b611a6d565b6040516109689190613508565b60405180910390f35b34801561097c575f80fd5b5061099760048036038101906109929190613a82565b611c3c565b005b3480156109a4575f80fd5b506109bf60048036038101906109ba91906135f5565b611c59565b6040516109cc9190613444565b60405180910390f35b3480156109e0575f80fd5b506109fb60048036038101906109f691906135f5565b611c6b565b604051610a0891906135ab565b60405180910390f35b348015610a1c575f80fd5b50610a376004803603810190610a329190613ba0565b611c7d565b005b348015610a44575f80fd5b50610a5f6004803603810190610a5a91906135f5565b611cac565b604051610a6c9190613444565b60405180910390f35b348015610a80575f80fd5b50610a9b6004803603810190610a969190613c0c565b611cc1565b604051610aa89190613508565b60405180910390f35b348015610abc575f80fd5b50610ad76004803603810190610ad291906135f5565b611d4f565b604051610ae49190613444565b60405180910390f35b348015610af8575f80fd5b50610b136004803603810190610b0e91906138ac565b611d61565b005b348015610b20575f80fd5b50610b29611de5565b604051610b369190613508565b60405180910390f35b5f47905090565b5f610b5082611df7565b9050919050565b60605f8054610b6590613c77565b80601f0160208091040260200160405190810160405280929190818152602001828054610b9190613c77565b8015610bdc5780601f10610bb357610100808354040283529160200191610bdc565b820191905f5260205f20905b815481529060010190602001808311610bbf57829003601f168201915b5050505050905090565b5f610bf1825f611e70565b9050919050565b5f610c0282611ed0565b50610c0c82611f56565b9050919050565b610c258282610c20611f8f565b611f96565b5050565b5f610c35826001611fa8565b9050919050565b5f600c5f9054906101000a900460ff161580610c9e575060105f3373ffffffffffffffffffffffffffffffffffffffff1673ffffffffffffffffffffffffffffffffffffffff1681526020019081526020015f205f9054906101000a900460ff165b15610cde576040517f08c379a0000000000000000000000000000000000000000000000000000000008152600401610cd590613cf1565b60405180910390fd5b3373ffffffffffffffffffffffffffffffffffffffff16610cfe84611ed0565b73ffffffffffffffffffffffffffffffffffffffff1614610d54576040517f08c379a0000000000000000000000000000000000000000000000000000000008152600401610d4b90613d59565b60405180910390fd5b5f73ffffffffffffffffffffffffffffffffffffffff168273ffffffffffffffffffffffffffffffffffffffff1603610dc2576040517f08c379a0000000000000000000000000000000000000000000000000000000008152600401610db990613dc1565b60405180910390fd5b610dca610b3f565b8410610dd4575f80fd5b5f610dde8461177e565b905080851115610e23576040517f08c379a0000000000000000000000000000000000000000000000000000000008152600401610e1a90613e29565b60405180910390fd5b5f610e2d86610c29565b90508373ffffffffffffffffffffffffffffffffffffffff166108fc8790811502906040515f60405180830381858888f1935050505092508215610f175780600f5f8781526020019081526020015f205f828254610e8b9190613e74565b9250508190555080600d5f828254610ea39190613e74565b925050819055503373ffffffffffffffffffffffffffffffffffffffff168473ffffffffffffffffffffffffffffffffffffffff16867ffe7813e2866053d5c3938554e517b554fce6666a6561bed9eaa7419b29fa9b688985604051610f0a929190613ea7565b60405180910390a4610f1b565b5f80fd5b50509392505050565b600a5481565b5f73ffffffffffffffffffffffffffffffffffffffff168273ffffffffffffffffffffffffffffffffffffffff1603610f9a575f6040517f64a0ae92000000000000000000000000000000000000000000000000000000008152600401610f91919061365f565b60405180910390fd5b5f610fad8383610fa8611f8f565b611ffc565b90508373ffffffffffffffffffffffffffffffffffffffff168173ffffffffffffffffffffffffffffffffffffffff1614611023578382826040517f64283d7b00000000000000000000000000000000000000000000000000000000815260040161101a93929190613ece565b60405180910390fd5b50505050565b5f805f60095f8681526020019081526020015f206040518060400160405290815f82015f9054906101000a900473ffffffffffffffffffffffffffffffffffffffff1673ffffffffffffffffffffffffffffffffffffffff1673ffffffffffffffffffffffffffffffffffffffff1681526020015f820160149054906101000a90046bffffffffffffffffffffffff166bffffffffffffffffffffffff166bffffffffffffffffffffffff168152505090505f73ffffffffffffffffffffffffffffffffffffffff16815f015173ffffffffffffffffffffffffffffffffffffffff16036111b25760086040518060400160405290815f82015f9054906101000a900473ffffffffffffffffffffffffffffffffffffffff1673ffffffffffffffffffffffffffffffffffffffff1673ffffffffffffffffffffffffffffffffffffffff1681526020015f820160149054906101000a90046bffffffffffffffffffffffff166bffffffffffffffffffffffff166bffffffffffffffffffffffff168152505090505b5f6111bb612207565b6bffffffffffffffffffffffff1682602001516bffffffffffffffffffffffff16866111e79190613f03565b6111f19190613f71565b9050815f0151819350935050509250929050565b5f61120e612210565b905090565b5f600d54905090565b5f7fffffffffffffffffffffffffffffffffffffffffffffffffffffffffffffffff9050919050565b61125f83838360405180602001604052805f815250611c3c565b505050565b61126c612218565b8060105f8473ffffffffffffffffffffffffffffffffffffffff1673ffffffffffffffffffffffffffffffffffffffff1681526020019081526020015f205f6101000a81548160ff0219169083151502179055505050565b5f6112cf825f611e70565b9050919050565b6112de612218565b80600c5f6101000a81548160ff02191690831515021790555050565b600b5481565b5f61130a82611ed0565b9050919050565b611319612218565b80600b8190555050565b5f8073ffffffffffffffffffffffffffffffffffffffff168273ffffffffffffffffffffffffffffffffffffffff1603611394575f6040517f89c62b6400000000000000000000000000000000000000000000000000000000815260040161138b919061365f565b60405180910390fd5b60035f8373ffffffffffffffffffffffffffffffffffffffff1673ffffffffffffffffffffffffffffffffffffffff1681526020019081526020015f20549050919050565b6113e1612218565b6113ea5f61229f565b565b5f611407600f5f8481526020019081526020015f2054610be6565b9050919050565b5f600c5f9054906101000a900460ff161580611470575060105f3373ffffffffffffffffffffffffffffffffffffffff1673ffffffffffffffffffffffffffffffffffffffff1681526020019081526020015f205f9054906101000a900460ff165b156114b0576040517f08c379a00000000000000000000000000000000000000000000000000000000081526004016114a790613cf1565b60405180910390fd5b3373ffffffffffffffffffffffffffffffffffffffff166114d084611ed0565b73ffffffffffffffffffffffffffffffffffffffff1614611526576040517f08c379a000000000000000000000000000000000000000000000000000000000815260040161151d90613d59565b60405180910390fd5b5f73ffffffffffffffffffffffffffffffffffffffff168273ffffffffffffffffffffffffffffffffffffffff1603611594576040517f08c379a000000000000000000000000000000000000000000000000000000000815260040161158b90613dc1565b60405180910390fd5b5f61159e84611831565b9050600f5f8581526020019081526020015f20548511156115f4576040517f08c379a00000000000000000000000000000000000000000000000000000000081526004016115eb90613feb565b60405180910390fd5b6115fc610b3f565b8110801561160957505f85115b611611575f80fd5b5f61161b866112c4565b90508373ffffffffffffffffffffffffffffffffffffffff166108fc8290811502906040515f60405180830381858888f19350505050925082156117055785600f5f8781526020019081526020015f205f8282546116799190613e74565b9250508190555085600d5f8282546116919190613e74565b925050819055503373ffffffffffffffffffffffffffffffffffffffff168473ffffffffffffffffffffffffffffffffffffffff16867ffe7813e2866053d5c3938554e517b554fce6666a6561bed9eaa7419b29fa9b68848a6040516116f8929190613ea7565b60405180910390a4611709565b5f80fd5b50509392505050565b5f61173b61171e611205565b600a61172a9190614138565b60016117369190613f03565b610be6565b905090565b5f60075f9054906101000a900473ffffffffffffffffffffffffffffffffffffffff16905090565b611770612218565b61177a8282612362565b5050565b5f61179a600f5f8481526020019081526020015f20545f611e70565b9050919050565b6060600180546117b090613c77565b80601f01602080910402602001604051908101604052809291908181526020018280546117dc90613c77565b80156118275780601f106117fe57610100808354040283529160200191611827565b820191905f5260205f20905b81548152906001019060200180831161180a57829003601f168201915b5050505050905090565b5f600f5f8381526020019081526020015f20549050919050565b61185d611856611f8f565b83836124fd565b5050565b5f7fffffffffffffffffffffffffffffffffffffffffffffffffffffffffffffffff9050919050565b5f600c5f9054906101000a900460ff1615806118ec575060105f3373ffffffffffffffffffffffffffffffffffffffff1673ffffffffffffffffffffffffffffffffffffffff1681526020019081526020015f205f9054906101000a900460ff165b1561192c576040517f08c379a000000000000000000000000000000000000000000000000000000000815260040161192390613cf1565b60405180910390fd5b5f61193684611a5a565b9050600b5481111561197d576040517f08c379a0000000000000000000000000000000000000000000000000000000008152600401611974906141f2565b60405180910390fd5b8034146119bf576040517f08c379a00000000000000000000000000000000000000000000000000000000081526004016119b69061425a565b60405180910390fd5b83600f5f8581526020019081526020015f205f8282546119df9190614278565b9250508190555083600d5f8282546119f79190614278565b92505081905550823373ffffffffffffffffffffffffffffffffffffffff167f36af321ec8d3c75236829c5317affd40ddb308863a1236d2d277a4025cccee1e3487604051611a47929190613ea7565b60405180910390a3600191505092915050565b5f611a66826001611e70565b9050919050565b5f600c5f9054906101000a900460ff161580611acf575060105f3373ffffffffffffffffffffffffffffffffffffffff1673ffffffffffffffffffffffffffffffffffffffff1681526020019081526020015f205f9054906101000a900460ff165b15611b0f576040517f08c379a0000000000000000000000000000000000000000000000000000000008152600401611b0690613cf1565b60405180910390fd5b5f3411611b51576040517f08c379a0000000000000000000000000000000000000000000000000000000008152600401611b48906142f5565b60405180910390fd5b600b54341115611b96576040517f08c379a0000000000000000000000000000000000000000000000000000000008152600401611b8d906141f2565b60405180910390fd5b5f611ba034611d4f565b905080600f5f8581526020019081526020015f205f828254611bc29190614278565b9250508190555080600d5f828254611bda9190614278565b92505081905550823373ffffffffffffffffffffffffffffffffffffffff167f36af321ec8d3c75236829c5317affd40ddb308863a1236d2d277a4025cccee1e3484604051611c2a929190613ea7565b60405180910390a36001915050919050565b611c47848484610f2a565b611c5384848484612666565b50505050565b5f611c64825f611fa8565b9050919050565b6060611c7682612818565b9050919050565b611c85612218565b600a54821115611c93575f80fd5b611c9d8383612923565b611ca78282612940565b505050565b600f602052805f5260405f205f915090505481565b5f60055f8473ffffffffffffffffffffffffffffffffffffffff1673ffffffffffffffffffffffffffffffffffffffff1681526020019081526020015f205f8373ffffffffffffffffffffffffffffffffffffffff1673ffffffffffffffffffffffffffffffffffffffff1681526020019081526020015f205f9054906101000a900460ff16905092915050565b5f611d5a825f611fa8565b9050919050565b611d69612218565b5f73ffffffffffffffffffffffffffffffffffffffff168173ffffffffffffffffffffffffffffffffffffffff1603611dd9575f6040517f1e4fbdf7000000000000000000000000000000000000000000000000000000008152600401611dd0919061365f565b60405180910390fd5b611de28161229f565b50565b600c5f9054906101000a900460ff1681565b5f7f2a55205a000000000000000000000000000000000000000000000000000000007bffffffffffffffffffffffffffffffffffffffffffffffffffffffff1916827bffffffffffffffffffffffffffffffffffffffffffffffffffffffff19161480611e695750611e688261299a565b5b9050919050565b5f611ec86001611e7e6129fa565b611e889190614278565b611e90612210565b600a611e9c9190614138565b600e54600d54611eac9190614278565b611eb69190614278565b8486612a37909392919063ffffffff16565b905092915050565b5f80611edb83612a8c565b90505f73ffffffffffffffffffffffffffffffffffffffff168173ffffffffffffffffffffffffffffffffffffffff1603611f4d57826040517f7e273289000000000000000000000000000000000000000000000000000000008152600401611f449190613444565b60405180910390fd5b80915050919050565b5f60045f8381526020019081526020015f205f9054906101000a900473ffffffffffffffffffffffffffffffffffffffff169050919050565b5f33905090565b611fa38383836001612ac5565b505050565b5f611ff4611fb4612210565b600a611fc09190614138565b600e54600d54611fd09190614278565b611fda9190614278565b611fe26129fa565b8486612a37909392919063ffffffff16565b905092915050565b5f8061200784612a8c565b90505f73ffffffffffffffffffffffffffffffffffffffff168373ffffffffffffffffffffffffffffffffffffffff161461204857612047818486612c84565b5b5f73ffffffffffffffffffffffffffffffffffffffff168173ffffffffffffffffffffffffffffffffffffffff16146120d3576120875f855f80612ac5565b600160035f8373ffffffffffffffffffffffffffffffffffffffff1673ffffffffffffffffffffffffffffffffffffffff1681526020019081526020015f205f82825403925050819055505b5f73ffffffffffffffffffffffffffffffffffffffff168573ffffffffffffffffffffffffffffffffffffffff161461215257600160035f8773ffffffffffffffffffffffffffffffffffffffff1673ffffffffffffffffffffffffffffffffffffffff1681526020019081526020015f205f82825401925050819055505b8460025f8681526020019081526020015f205f6101000a81548173ffffffffffffffffffffffffffffffffffffffff021916908373ffffffffffffffffffffffffffffffffffffffff160217905550838573ffffffffffffffffffffffffffffffffffffffff168273ffffffffffffffffffffffffffffffffffffffff167fddf252ad1be2c89b69c2b068fc378daa952ba7f163c4a11628f55a4df523b3ef60405160405180910390a4809150509392505050565b5f612710905090565b5f6008905090565b612220611f8f565b73ffffffffffffffffffffffffffffffffffffffff1661223e611740565b73ffffffffffffffffffffffffffffffffffffffff161461229d57612261611f8f565b6040517f118cdaa7000000000000000000000000000000000000000000000000000000008152600401612294919061365f565b60405180910390fd5b565b5f60075f9054906101000a900473ffffffffffffffffffffffffffffffffffffffff1690508160075f6101000a81548173ffffffffffffffffffffffffffffffffffffffff021916908373ffffffffffffffffffffffffffffffffffffffff1602179055508173ffffffffffffffffffffffffffffffffffffffff168173ffffffffffffffffffffffffffffffffffffffff167f8be0079c531659141344cd1fd0a4f28419497f9722a3daafe3b4186f6b6457e060405160405180910390a35050565b5f61236b612207565b6bffffffffffffffffffffffff16905080826bffffffffffffffffffffffff1611156123d05781816040517f6f483d090000000000000000000000000000000000000000000000000000000081526004016123c792919061434c565b60405180910390fd5b5f73ffffffffffffffffffffffffffffffffffffffff168373ffffffffffffffffffffffffffffffffffffffff1603612440575f6040517fb6d9900a000000000000000000000000000000000000000000000000000000008152600401612437919061365f565b60405180910390fd5b60405180604001604052808473ffffffffffffffffffffffffffffffffffffffff168152602001836bffffffffffffffffffffffff1681525060085f820151815f015f6101000a81548173ffffffffffffffffffffffffffffffffffffffff021916908373ffffffffffffffffffffffffffffffffffffffff1602179055506020820151815f0160146101000a8154816bffffffffffffffffffffffff02191690836bffffffffffffffffffffffff160217905550905050505050565b5f73ffffffffffffffffffffffffffffffffffffffff168273ffffffffffffffffffffffffffffffffffffffff160361256d57816040517f5b08ba18000000000000000000000000000000000000000000000000000000008152600401612564919061365f565b60405180910390fd5b8060055f8573ffffffffffffffffffffffffffffffffffffffff1673ffffffffffffffffffffffffffffffffffffffff1681526020019081526020015f205f8473ffffffffffffffffffffffffffffffffffffffff1673ffffffffffffffffffffffffffffffffffffffff1681526020019081526020015f205f6101000a81548160ff0219169083151502179055508173ffffffffffffffffffffffffffffffffffffffff168373ffffffffffffffffffffffffffffffffffffffff167f17307eab39ab6107e8899845ad3d59bd9653f200f220920489ca2b5937696c31836040516126599190613508565b60405180910390a3505050565b5f8373ffffffffffffffffffffffffffffffffffffffff163b1115612812578273ffffffffffffffffffffffffffffffffffffffff1663150b7a026126a9611f8f565b8685856040518563ffffffff1660e01b81526004016126cb94939291906143c5565b6020604051808303815f875af192505050801561270657506040513d601f19601f820116820180604052508101906127039190614423565b60015b612787573d805f8114612734576040519150601f19603f3d011682016040523d82523d5f602084013e612739565b606091505b505f81510361277f57836040517f64a0ae92000000000000000000000000000000000000000000000000000000008152600401612776919061365f565b60405180910390fd5b805181602001fd5b63150b7a0260e01b7bffffffffffffffffffffffffffffffffffffffffffffffffffffffff1916817bffffffffffffffffffffffffffffffffffffffffffffffffffffffff19161461281057836040517f64a0ae92000000000000000000000000000000000000000000000000000000008152600401612807919061365f565b60405180910390fd5b505b50505050565b606061282382611ed0565b505f60065f8481526020019081526020015f20805461284190613c77565b80601f016020809104026020016040519081016040528092919081815260200182805461286d90613c77565b80156128b85780601f1061288f576101008083540402835291602001916128b8565b820191905f5260205f20905b81548152906001019060200180831161289b57829003601f168201915b505050505090505f6128c8612d47565b90505f8151036128dc57819250505061291e565b5f825111156129105780826040516020016128f8929190614488565b6040516020818303038152906040529250505061291e565b61291984612d67565b925050505b919050565b61293c828260405180602001604052805f815250612dcd565b5050565b8060065f8481526020019081526020015f20908161295e919061463f565b507ff8e1a15aba9398e019f0b49df1a4fde98ee17ae345cb5f6b5e2c27f5033e8ce78260405161298e9190613444565b60405180910390a15050565b5f634906490660e01b7bffffffffffffffffffffffffffffffffffffffffffffffffffffffff1916827bffffffffffffffffffffffffffffffffffffffffffffffffffffffff191614806129f357506129f282612de8565b5b9050919050565b5f6001612a05612210565b612a0f919061470e565b600a612a1b9190614138565b6001612a279190613f03565b47612a329190614278565b905090565b5f80612a44868686612ec9565b9050612a4f83612fc8565b8015612a6b57505f8480612a6657612a65613f44565b5b868809115b15612a8057600181612a7d9190614278565b90505b80915050949350505050565b5f60025f8381526020019081526020015f205f9054906101000a900473ffffffffffffffffffffffffffffffffffffffff169050919050565b8080612afd57505f73ffffffffffffffffffffffffffffffffffffffff168273ffffffffffffffffffffffffffffffffffffffff1614155b15612c2f575f612b0c84611ed0565b90505f73ffffffffffffffffffffffffffffffffffffffff168373ffffffffffffffffffffffffffffffffffffffff1614158015612b7657508273ffffffffffffffffffffffffffffffffffffffff168173ffffffffffffffffffffffffffffffffffffffff1614155b8015612b895750612b878184611cc1565b155b15612bcb57826040517fa9fbf51f000000000000000000000000000000000000000000000000000000008152600401612bc2919061365f565b60405180910390fd5b8115612c2d57838573ffffffffffffffffffffffffffffffffffffffff168273ffffffffffffffffffffffffffffffffffffffff167f8c5be1e5ebec7d5bd14f71427d1e84f3dd0314c0f7b2291e5b200ac8c7c3b92560405160405180910390a45b505b8360045f8581526020019081526020015f205f6101000a81548173ffffffffffffffffffffffffffffffffffffffff021916908373ffffffffffffffffffffffffffffffffffffffff16021790555050505050565b612c8f838383612ff5565b612d42575f73ffffffffffffffffffffffffffffffffffffffff168373ffffffffffffffffffffffffffffffffffffffff1603612d0357806040517f7e273289000000000000000000000000000000000000000000000000000000008152600401612cfa9190613444565b60405180910390fd5b81816040517f177e802f000000000000000000000000000000000000000000000000000000008152600401612d399291906137be565b60405180910390fd5b505050565b60606040518060800160405280604281526020016147a060429139905090565b6060612d7282611ed0565b505f612d7c612d47565b90505f815111612d9a5760405180602001604052805f815250612dc5565b80612da4846130b5565b604051602001612db5929190614488565b6040516020818303038152906040525b915050919050565b612dd7838361317f565b612de35f848484612666565b505050565b5f7f80ac58cd000000000000000000000000000000000000000000000000000000007bffffffffffffffffffffffffffffffffffffffffffffffffffffffff1916827bffffffffffffffffffffffffffffffffffffffffffffffffffffffff19161480612eb257507f5b5e139f000000000000000000000000000000000000000000000000000000007bffffffffffffffffffffffffffffffffffffffffffffffffffffffff1916827bffffffffffffffffffffffffffffffffffffffffffffffffffffffff1916145b80612ec25750612ec182613272565b5b9050919050565b5f8083850290505f8019858709828110838203039150505f8103612f0157838281612ef757612ef6613f44565b5b0492505050612fc1565b808411612f3a576040517f227bc15300000000000000000000000000000000000000000000000000000000815260040160405180910390fd5b5f8486880990508281118203915080830392505f855f038616905080860495508084049350600181825f0304019050808302841793505f600287600302189050808702600203810290508087026002038102905080870260020381029050808702600203810290508087026002038102905080870260020381029050808502955050505050505b9392505050565b5f60016002836003811115612fe057612fdf614742565b5b612fea919061476f565b60ff16149050919050565b5f8073ffffffffffffffffffffffffffffffffffffffff168373ffffffffffffffffffffffffffffffffffffffff16141580156130ac57508273ffffffffffffffffffffffffffffffffffffffff168473ffffffffffffffffffffffffffffffffffffffff16148061306d575061306c8484611cc1565b5b806130ab57508273ffffffffffffffffffffffffffffffffffffffff1661309383611f56565b73ffffffffffffffffffffffffffffffffffffffff16145b5b90509392505050565b60605f60016130c3846132db565b0190505f8167ffffffffffffffff8111156130e1576130e061395e565b5b6040519080825280601f01601f1916602001820160405280156131135781602001600182028036833780820191505090505b5090505f82602001820190505b600115613174578080600190039150507f3031323334353637383961626364656600000000000000000000000000000000600a86061a8153600a858161316957613168613f44565b5b0494505f8503613120575b819350505050919050565b5f73ffffffffffffffffffffffffffffffffffffffff168273ffffffffffffffffffffffffffffffffffffffff16036131ef575f6040517f64a0ae920000000000000000000000000000000000000000000000000000000081526004016131e6919061365f565b60405180910390fd5b5f6131fb83835f611ffc565b90505f73ffffffffffffffffffffffffffffffffffffffff168173ffffffffffffffffffffffffffffffffffffffff161461326d575f6040517f73c6ac6e000000000000000000000000000000000000000000000000000000008152600401613264919061365f565b60405180910390fd5b505050565b5f7f01ffc9a7000000000000000000000000000000000000000000000000000000007bffffffffffffffffffffffffffffffffffffffffffffffffffffffff1916827bffffffffffffffffffffffffffffffffffffffffffffffffffffffff1916149050919050565b5f805f90507a184f03e93ff9f4daa797ed6e38ed64bf6a1f0100000000000000008310613337577a184f03e93ff9f4daa797ed6e38ed64bf6a1f010000000000000000838161332d5761332c613f44565b5b0492506040810190505b6d04ee2d6d415b85acef81000000008310613374576d04ee2d6d415b85acef8100000000838161336a57613369613f44565b5b0492506020810190505b662386f26fc1000083106133a357662386f26fc10000838161339957613398613f44565b5b0492506010810190505b6305f5e10083106133cc576305f5e10083816133c2576133c1613f44565b5b0492506008810190505b61271083106133f15761271083816133e7576133e6613f44565b5b0492506004810190505b60648310613414576064838161340a57613409613f44565b5b0492506002810190505b600a8310613423576001810190505b80915050919050565b5f819050919050565b61343e8161342c565b82525050565b5f6020820190506134575f830184613435565b92915050565b5f604051905090565b5f80fd5b5f80fd5b5f7fffffffff0000000000000000000000000000000000000000000000000000000082169050919050565b6134a28161346e565b81146134ac575f80fd5b50565b5f813590506134bd81613499565b92915050565b5f602082840312156134d8576134d7613466565b5b5f6134e5848285016134af565b91505092915050565b5f8115159050919050565b613502816134ee565b82525050565b5f60208201905061351b5f8301846134f9565b92915050565b5f81519050919050565b5f82825260208201905092915050565b5f5b8381101561355857808201518184015260208101905061353d565b5f8484015250505050565b5f601f19601f8301169050919050565b5f61357d82613521565b613587818561352b565b935061359781856020860161353b565b6135a081613563565b840191505092915050565b5f6020820190508181035f8301526135c38184613573565b905092915050565b6135d48161342c565b81146135de575f80fd5b50565b5f813590506135ef816135cb565b92915050565b5f6020828403121561360a57613609613466565b5b5f613617848285016135e1565b91505092915050565b5f73ffffffffffffffffffffffffffffffffffffffff82169050919050565b5f61364982613620565b9050919050565b6136598161363f565b82525050565b5f6020820190506136725f830184613650565b92915050565b6136818161363f565b811461368b575f80fd5b50565b5f8135905061369c81613678565b92915050565b5f80604083850312156136b8576136b7613466565b5b5f6136c58582860161368e565b92505060206136d6858286016135e1565b9150509250929050565b5f805f606084860312156136f7576136f6613466565b5b5f613704868287016135e1565b9350506020613715868287016135e1565b92505060406137268682870161368e565b9150509250925092565b5f805f6060848603121561374757613746613466565b5b5f6137548682870161368e565b93505060206137658682870161368e565b9250506040613776868287016135e1565b9150509250925092565b5f806040838503121561379657613795613466565b5b5f6137a3858286016135e1565b92505060206137b4858286016135e1565b9150509250929050565b5f6040820190506137d15f830185613650565b6137de6020830184613435565b9392505050565b5f60ff82169050919050565b6137fa816137e5565b82525050565b5f6020820190506138135f8301846137f1565b92915050565b613822816134ee565b811461382c575f80fd5b50565b5f8135905061383d81613819565b92915050565b5f806040838503121561385957613858613466565b5b5f6138668582860161368e565b92505060206138778582860161382f565b9150509250929050565b5f6020828403121561389657613895613466565b5b5f6138a38482850161382f565b91505092915050565b5f602082840312156138c1576138c0613466565b5b5f6138ce8482850161368e565b91505092915050565b5f6bffffffffffffffffffffffff82169050919050565b6138f7816138d7565b8114613901575f80fd5b50565b5f81359050613912816138ee565b92915050565b5f806040838503121561392e5761392d613466565b5b5f61393b8582860161368e565b925050602061394c85828601613904565b9150509250929050565b5f80fd5b5f80fd5b7f4e487b71000000000000000000000000000000000000000000000000000000005f52604160045260245ffd5b61399482613563565b810181811067ffffffffffffffff821117156139b3576139b261395e565b5b80604052505050565b5f6139c561345d565b90506139d1828261398b565b919050565b5f67ffffffffffffffff8211156139f0576139ef61395e565b5b6139f982613563565b9050602081019050919050565b828183375f83830152505050565b5f613a26613a21846139d6565b6139bc565b905082815260208101848484011115613a4257613a4161395a565b5b613a4d848285613a06565b509392505050565b5f82601f830112613a6957613a68613956565b5b8135613a79848260208601613a14565b91505092915050565b5f805f8060808587031215613a9a57613a99613466565b5b5f613aa78782880161368e565b9450506020613ab88782880161368e565b9350506040613ac9878288016135e1565b925050606085013567ffffffffffffffff811115613aea57613ae961346a565b5b613af687828801613a55565b91505092959194509250565b5f67ffffffffffffffff821115613b1c57613b1b61395e565b5b613b2582613563565b9050602081019050919050565b5f613b44613b3f84613b02565b6139bc565b905082815260208101848484011115613b6057613b5f61395a565b5b613b6b848285613a06565b509392505050565b5f82601f830112613b8757613b86613956565b5b8135613b97848260208601613b32565b91505092915050565b5f805f60608486031215613bb757613bb6613466565b5b5f613bc48682870161368e565b9350506020613bd5868287016135e1565b925050604084013567ffffffffffffffff811115613bf657613bf561346a565b5b613c0286828701613b73565b9150509250925092565b5f8060408385031215613c2257613c21613466565b5b5f613c2f8582860161368e565b9250506020613c408582860161368e565b9150509250929050565b7f4e487b71000000000000000000000000000000000000000000000000000000005f52602260045260245ffd5b5f6002820490506001821680613c8e57607f821691505b602082108103613ca157613ca0613c4a565b5b50919050565b7f7368617265206163746976697479206e6f7420737461727465640000000000005f82015250565b5f613cdb601a8361352b565b9150613ce682613ca7565b602082019050919050565b5f6020820190508181035f830152613d0881613ccf565b9050919050565b7f6e6f74206f776e657200000000000000000000000000000000000000000000005f82015250565b5f613d4360098361352b565b9150613d4e82613d0f565b602082019050919050565b5f6020820190508181035f830152613d7081613d37565b9050919050565b7f746f2063616e74206265203020616464726573730000000000000000000000005f82015250565b5f613dab60148361352b565b9150613db682613d77565b602082019050919050565b5f6020820190508181035f830152613dd881613d9f565b9050919050565b7f616d6f756e74203c206d617857697468647261770000000000000000000000005f82015250565b5f613e1360148361352b565b9150613e1e82613ddf565b602082019050919050565b5f6020820190508181035f830152613e4081613e07565b9050919050565b7f4e487b71000000000000000000000000000000000000000000000000000000005f52601160045260245ffd5b5f613e7e8261342c565b9150613e898361342c565b9250828203905081811115613ea157613ea0613e47565b5b92915050565b5f604082019050613eba5f830185613435565b613ec76020830184613435565b9392505050565b5f606082019050613ee15f830186613650565b613eee6020830185613435565b613efb6040830184613650565b949350505050565b5f613f0d8261342c565b9150613f188361342c565b9250828202613f268161342c565b91508282048414831517613f3d57613f3c613e47565b5b5092915050565b7f4e487b71000000000000000000000000000000000000000000000000000000005f52601260045260245ffd5b5f613f7b8261342c565b9150613f868361342c565b925082613f9657613f95613f44565b5b828204905092915050565b7f6e6f7420656e6f756768207368617265730000000000000000000000000000005f82015250565b5f613fd560118361352b565b9150613fe082613fa1565b602082019050919050565b5f6020820190508181035f83015261400281613fc9565b9050919050565b5f8160011c9050919050565b5f808291508390505b600185111561405e5780860481111561403a57614039613e47565b5b60018516156140495780820291505b808102905061405785614009565b945061401e565b94509492505050565b5f826140765760019050614131565b81614083575f9050614131565b816001811461409957600281146140a3576140d2565b6001915050614131565b60ff8411156140b5576140b4613e47565b5b8360020a9150848211156140cc576140cb613e47565b5b50614131565b5060208310610133831016604e8410600b84101617156141075782820a90508381111561410257614101613e47565b5b614131565b6141148484846001614015565b9250905081840481111561412b5761412a613e47565b5b81810290505b9392505050565b5f6141428261342c565b915061414d836137e5565b925061417a7fffffffffffffffffffffffffffffffffffffffffffffffffffffffffffffffff8484614067565b905092915050565b7f76616c2063616e6e6f7420657863656564206d61784465706f736974496e4f6e5f8201527f6554782829000000000000000000000000000000000000000000000000000000602082015250565b5f6141dc60258361352b565b91506141e782614182565b604082019050919050565b5f6020820190508181035f830152614209816141d0565b9050919050565b7f73656e642076616c203d3d20707265766965774d696e742829000000000000005f82015250565b5f61424460198361352b565b915061424f82614210565b602082019050919050565b5f6020820190508181035f83015261427181614238565b9050919050565b5f6142828261342c565b915061428d8361342c565b92508282019050808211156142a5576142a4613e47565b5b92915050565b7f73656e642076616c203e203000000000000000000000000000000000000000005f82015250565b5f6142df600c8361352b565b91506142ea826142ab565b602082019050919050565b5f6020820190508181035f83015261430c816142d3565b9050919050565b5f819050919050565b5f61433661433161432c846138d7565b614313565b61342c565b9050919050565b6143468161431c565b82525050565b5f60408201905061435f5f83018561433d565b61436c6020830184613435565b9392505050565b5f81519050919050565b5f82825260208201905092915050565b5f61439782614373565b6143a1818561437d565b93506143b181856020860161353b565b6143ba81613563565b840191505092915050565b5f6080820190506143d85f830187613650565b6143e56020830186613650565b6143f26040830185613435565b8181036060830152614404818461438d565b905095945050505050565b5f8151905061441d81613499565b92915050565b5f6020828403121561443857614437613466565b5b5f6144458482850161440f565b91505092915050565b5f81905092915050565b5f61446282613521565b61446c818561444e565b935061447c81856020860161353b565b80840191505092915050565b5f6144938285614458565b915061449f8284614458565b91508190509392505050565b5f819050815f5260205f209050919050565b5f6020601f8301049050919050565b5f82821b905092915050565b5f600883026145077fffffffffffffffffffffffffffffffffffffffffffffffffffffffffffffffff826144cc565b61451186836144cc565b95508019841693508086168417925050509392505050565b5f61454361453e6145398461342c565b614313565b61342c565b9050919050565b5f819050919050565b61455c83614529565b6145706145688261454a565b8484546144d8565b825550505050565b5f90565b614584614578565b61458f818484614553565b505050565b5b818110156145b2576145a75f8261457c565b600181019050614595565b5050565b601f8211156145f7576145c8816144ab565b6145d1846144bd565b810160208510156145e0578190505b6145f46145ec856144bd565b830182614594565b50505b505050565b5f82821c905092915050565b5f6146175f19846008026145fc565b1980831691505092915050565b5f61462f8383614608565b9150826002028217905092915050565b61464882613521565b67ffffffffffffffff8111156146615761466061395e565b5b61466b8254613c77565b6146768282856145b6565b5f60209050601f8311600181146146a7575f8415614695578287015190505b61469f8582614624565b865550614706565b601f1984166146b5866144ab565b5f5b828110156146dc578489015182556001820191506020850194506020810190506146b7565b868310156146f957848901516146f5601f891682614608565b8355505b6001600288020188555050505b505050505050565b5f614718826137e5565b9150614723836137e5565b9250828203905060ff81111561473c5761473b613e47565b5b92915050565b7f4e487b71000000000000000000000000000000000000000000000000000000005f52602160045260245ffd5b5f614779826137e5565b9150614784836137e5565b92508261479457614793613f44565b5b82820690509291505056fe697066733a2f2f62616679626569646c37637079636a69717a6136727564677a6c3471356c6c3678376e6670716c6c357165717736746f7169756563776732686a65a264697066735822122094b74f7bbf2e08da92e0cc3a85bc5f93649bad287fe5c9827607607fb55f71d664736f6c63430008140033",
			"opcodes": "PUSH1 0xA0 PUSH1 0x40 MSTORE PUSH2 0x2710 PUSH1 0xA SSTORE PUSH7 0xB1A2BC2EC50000 PUSH1 0xB SSTORE PUSH0 NOT PUSH4 0xFFFFFFFF AND PUSH1 0xE SSTORE CALLVALUE DUP1 ISZERO PUSH3 0x2C JUMPI PUSH0 DUP1 REVERT JUMPDEST POP PUSH1 0x40 MLOAD PUSH3 0x50C9 CODESIZE SUB DUP1 PUSH3 0x50C9 DUP4 CODECOPY DUP2 DUP2 ADD PUSH1 0x40 MSTORE DUP2 ADD SWAP1 PUSH3 0x52 SWAP2 SWAP1 PUSH3 0x46D JUMP JUMPDEST DUP1 PUSH1 0x40 MLOAD DUP1 PUSH1 0x40 ADD PUSH1 0x40 MSTORE DUP1 PUSH1 0x18 DUP2 MSTORE PUSH1 0x20 ADD PUSH32 0x424F4F4253204F4620424954434F494E20544553544E45540000000000000000 DUP2 MSTORE POP PUSH1 0x40 MLOAD DUP1 PUSH1 0x40 ADD PUSH1 0x40 MSTORE DUP1 PUSH1 0x8 DUP2 MSTORE PUSH1 0x20 ADD PUSH32 0x424F422054455354000000000000000000000000000000000000000000000000 DUP2 MSTORE POP DUP2 PUSH0 SWAP1 DUP2 PUSH3 0xCF SWAP2 SWAP1 PUSH3 0x701 JUMP JUMPDEST POP DUP1 PUSH1 0x1 SWAP1 DUP2 PUSH3 0xE1 SWAP2 SWAP1 PUSH3 0x701 JUMP JUMPDEST POP POP POP PUSH0 PUSH20 0xFFFFFFFFFFFFFFFFFFFFFFFFFFFFFFFFFFFFFFFF AND DUP2 PUSH20 0xFFFFFFFFFFFFFFFFFFFFFFFFFFFFFFFFFFFFFFFF AND SUB PUSH3 0x157 JUMPI PUSH0 PUSH1 0x40 MLOAD PUSH32 0x1E4FBDF700000000000000000000000000000000000000000000000000000000 DUP2 MSTORE PUSH1 0x4 ADD PUSH3 0x14E SWAP2 SWAP1 PUSH3 0x7F6 JUMP JUMPDEST PUSH1 0x40 MLOAD DUP1 SWAP2 SUB SWAP1 REVERT JUMPDEST PUSH3 0x168 DUP2 PUSH3 0x193 PUSH1 0x20 SHL PUSH1 0x20 SHR JUMP JUMPDEST POP PUSH1 0x12 PUSH1 0xFF AND PUSH1 0x80 DUP2 PUSH1 0xFF AND DUP2 MSTORE POP POP PUSH3 0x18C ADDRESS PUSH2 0x2B2 PUSH3 0x256 PUSH1 0x20 SHL PUSH1 0x20 SHR JUMP JUMPDEST POP PUSH3 0x89C JUMP JUMPDEST PUSH0 PUSH1 0x7 PUSH0 SWAP1 SLOAD SWAP1 PUSH2 0x100 EXP SWAP1 DIV PUSH20 0xFFFFFFFFFFFFFFFFFFFFFFFFFFFFFFFFFFFFFFFF AND SWAP1 POP DUP2 PUSH1 0x7 PUSH0 PUSH2 0x100 EXP DUP2 SLOAD DUP2 PUSH20 0xFFFFFFFFFFFFFFFFFFFFFFFFFFFFFFFFFFFFFFFF MUL NOT AND SWAP1 DUP4 PUSH20 0xFFFFFFFFFFFFFFFFFFFFFFFFFFFFFFFFFFFFFFFF AND MUL OR SWAP1 SSTORE POP DUP2 PUSH20 0xFFFFFFFFFFFFFFFFFFFFFFFFFFFFFFFFFFFFFFFF AND DUP2 PUSH20 0xFFFFFFFFFFFFFFFFFFFFFFFFFFFFFFFFFFFFFFFF AND PUSH32 0x8BE0079C531659141344CD1FD0A4F28419497F9722A3DAAFE3B4186F6B6457E0 PUSH1 0x40 MLOAD PUSH1 0x40 MLOAD DUP1 SWAP2 SUB SWAP1 LOG3 POP POP JUMP JUMPDEST PUSH0 PUSH3 0x267 PUSH3 0x3FF PUSH1 0x20 SHL PUSH1 0x20 SHR JUMP JUMPDEST PUSH12 0xFFFFFFFFFFFFFFFFFFFFFFFF AND SWAP1 POP DUP1 DUP3 PUSH12 0xFFFFFFFFFFFFFFFFFFFFFFFF AND GT ISZERO PUSH3 0x2CF JUMPI DUP2 DUP2 PUSH1 0x40 MLOAD PUSH32 0x6F483D0900000000000000000000000000000000000000000000000000000000 DUP2 MSTORE PUSH1 0x4 ADD PUSH3 0x2C6 SWAP3 SWAP2 SWAP1 PUSH3 0x871 JUMP JUMPDEST PUSH1 0x40 MLOAD DUP1 SWAP2 SUB SWAP1 REVERT JUMPDEST PUSH0 PUSH20 0xFFFFFFFFFFFFFFFFFFFFFFFFFFFFFFFFFFFFFFFF AND DUP4 PUSH20 0xFFFFFFFFFFFFFFFFFFFFFFFFFFFFFFFFFFFFFFFF AND SUB PUSH3 0x342 JUMPI PUSH0 PUSH1 0x40 MLOAD PUSH32 0xB6D9900A00000000000000000000000000000000000000000000000000000000 DUP2 MSTORE PUSH1 0x4 ADD PUSH3 0x339 SWAP2 SWAP1 PUSH3 0x7F6 JUMP JUMPDEST PUSH1 0x40 MLOAD DUP1 SWAP2 SUB SWAP1 REVERT JUMPDEST PUSH1 0x40 MLOAD DUP1 PUSH1 0x40 ADD PUSH1 0x40 MSTORE DUP1 DUP5 PUSH20 0xFFFFFFFFFFFFFFFFFFFFFFFFFFFFFFFFFFFFFFFF AND DUP2 MSTORE PUSH1 0x20 ADD DUP4 PUSH12 0xFFFFFFFFFFFFFFFFFFFFFFFF AND DUP2 MSTORE POP PUSH1 0x8 PUSH0 DUP3 ADD MLOAD DUP2 PUSH0 ADD PUSH0 PUSH2 0x100 EXP DUP2 SLOAD DUP2 PUSH20 0xFFFFFFFFFFFFFFFFFFFFFFFFFFFFFFFFFFFFFFFF MUL NOT AND SWAP1 DUP4 PUSH20 0xFFFFFFFFFFFFFFFFFFFFFFFFFFFFFFFFFFFFFFFF AND MUL OR SWAP1 SSTORE POP PUSH1 0x20 DUP3 ADD MLOAD DUP2 PUSH0 ADD PUSH1 0x14 PUSH2 0x100 EXP DUP2 SLOAD DUP2 PUSH12 0xFFFFFFFFFFFFFFFFFFFFFFFF MUL NOT AND SWAP1 DUP4 PUSH12 0xFFFFFFFFFFFFFFFFFFFFFFFF AND MUL OR SWAP1 SSTORE POP SWAP1 POP POP POP POP POP JUMP JUMPDEST PUSH0 PUSH2 0x2710 SWAP1 POP SWAP1 JUMP JUMPDEST PUSH0 DUP1 REVERT JUMPDEST PUSH0 PUSH20 0xFFFFFFFFFFFFFFFFFFFFFFFFFFFFFFFFFFFFFFFF DUP3 AND SWAP1 POP SWAP2 SWAP1 POP JUMP JUMPDEST PUSH0 PUSH3 0x437 DUP3 PUSH3 0x40C JUMP JUMPDEST SWAP1 POP SWAP2 SWAP1 POP JUMP JUMPDEST PUSH3 0x449 DUP2 PUSH3 0x42B JUMP JUMPDEST DUP2 EQ PUSH3 0x454 JUMPI PUSH0 DUP1 REVERT JUMPDEST POP JUMP JUMPDEST PUSH0 DUP2 MLOAD SWAP1 POP PUSH3 0x467 DUP2 PUSH3 0x43E JUMP JUMPDEST SWAP3 SWAP2 POP POP JUMP JUMPDEST PUSH0 PUSH1 0x20 DUP3 DUP5 SUB SLT ISZERO PUSH3 0x485 JUMPI PUSH3 0x484 PUSH3 0x408 JUMP JUMPDEST JUMPDEST PUSH0 PUSH3 0x494 DUP5 DUP3 DUP6 ADD PUSH3 0x457 JUMP JUMPDEST SWAP2 POP POP SWAP3 SWAP2 POP POP JUMP JUMPDEST PUSH0 DUP2 MLOAD SWAP1 POP SWAP2 SWAP1 POP JUMP JUMPDEST PUSH32 0x4E487B7100000000000000000000000000000000000000000000000000000000 PUSH0 MSTORE PUSH1 0x41 PUSH1 0x4 MSTORE PUSH1 0x24 PUSH0 REVERT JUMPDEST PUSH32 0x4E487B7100000000000000000000000000000000000000000000000000000000 PUSH0 MSTORE PUSH1 0x22 PUSH1 0x4 MSTORE PUSH1 0x24 PUSH0 REVERT JUMPDEST PUSH0 PUSH1 0x2 DUP3 DIV SWAP1 POP PUSH1 0x1 DUP3 AND DUP1 PUSH3 0x519 JUMPI PUSH1 0x7F DUP3 AND SWAP2 POP JUMPDEST PUSH1 0x20 DUP3 LT DUP2 SUB PUSH3 0x52F JUMPI PUSH3 0x52E PUSH3 0x4D4 JUMP JUMPDEST JUMPDEST POP SWAP2 SWAP1 POP JUMP JUMPDEST PUSH0 DUP2 SWAP1 POP DUP2 PUSH0 MSTORE PUSH1 0x20 PUSH0 KECCAK256 SWAP1 POP SWAP2 SWAP1 POP JUMP JUMPDEST PUSH0 PUSH1 0x20 PUSH1 0x1F DUP4 ADD DIV SWAP1 POP SWAP2 SWAP1 POP JUMP JUMPDEST PUSH0 DUP3 DUP3 SHL SWAP1 POP SWAP3 SWAP2 POP POP JUMP JUMPDEST PUSH0 PUSH1 0x8 DUP4 MUL PUSH3 0x593 PUSH32 0xFFFFFFFFFFFFFFFFFFFFFFFFFFFFFFFFFFFFFFFFFFFFFFFFFFFFFFFFFFFFFFFF DUP3 PUSH3 0x556 JUMP JUMPDEST PUSH3 0x59F DUP7 DUP4 PUSH3 0x556 JUMP JUMPDEST SWAP6 POP DUP1 NOT DUP5 AND SWAP4 POP DUP1 DUP7 AND DUP5 OR SWAP3 POP POP POP SWAP4 SWAP3 POP POP POP JUMP JUMPDEST PUSH0 DUP2 SWAP1 POP SWAP2 SWAP1 POP JUMP JUMPDEST PUSH0 DUP2 SWAP1 POP SWAP2 SWAP1 POP JUMP JUMPDEST PUSH0 PUSH3 0x5E9 PUSH3 0x5E3 PUSH3 0x5DD DUP5 PUSH3 0x5B7 JUMP JUMPDEST PUSH3 0x5C0 JUMP JUMPDEST PUSH3 0x5B7 JUMP JUMPDEST SWAP1 POP SWAP2 SWAP1 POP JUMP JUMPDEST PUSH0 DUP2 SWAP1 POP SWAP2 SWAP1 POP JUMP JUMPDEST PUSH3 0x604 DUP4 PUSH3 0x5C9 JUMP JUMPDEST PUSH3 0x61C PUSH3 0x613 DUP3 PUSH3 0x5F0 JUMP JUMPDEST DUP5 DUP5 SLOAD PUSH3 0x562 JUMP JUMPDEST DUP3 SSTORE POP POP POP POP JUMP JUMPDEST PUSH0 SWAP1 JUMP JUMPDEST PUSH3 0x632 PUSH3 0x624 JUMP JUMPDEST PUSH3 0x63F DUP2 DUP5 DUP5 PUSH3 0x5F9 JUMP JUMPDEST POP POP POP JUMP JUMPDEST JUMPDEST DUP2 DUP2 LT ISZERO PUSH3 0x666 JUMPI PUSH3 0x65A PUSH0 DUP3 PUSH3 0x628 JUMP JUMPDEST PUSH1 0x1 DUP2 ADD SWAP1 POP PUSH3 0x645 JUMP JUMPDEST POP POP JUMP JUMPDEST PUSH1 0x1F DUP3 GT ISZERO PUSH3 0x6B5 JUMPI PUSH3 0x67F DUP2 PUSH3 0x535 JUMP JUMPDEST PUSH3 0x68A DUP5 PUSH3 0x547 JUMP JUMPDEST DUP2 ADD PUSH1 0x20 DUP6 LT ISZERO PUSH3 0x69A JUMPI DUP2 SWAP1 POP JUMPDEST PUSH3 0x6B2 PUSH3 0x6A9 DUP6 PUSH3 0x547 JUMP JUMPDEST DUP4 ADD DUP3 PUSH3 0x644 JUMP JUMPDEST POP POP JUMPDEST POP POP POP JUMP JUMPDEST PUSH0 DUP3 DUP3 SHR SWAP1 POP SWAP3 SWAP2 POP POP JUMP JUMPDEST PUSH0 PUSH3 0x6D7 PUSH0 NOT DUP5 PUSH1 0x8 MUL PUSH3 0x6BA JUMP JUMPDEST NOT DUP1 DUP4 AND SWAP2 POP POP SWAP3 SWAP2 POP POP JUMP JUMPDEST PUSH0 PUSH3 0x6F1 DUP4 DUP4 PUSH3 0x6C6 JUMP JUMPDEST SWAP2 POP DUP3 PUSH1 0x2 MUL DUP3 OR SWAP1 POP SWAP3 SWAP2 POP POP JUMP JUMPDEST PUSH3 0x70C DUP3 PUSH3 0x49D JUMP JUMPDEST PUSH8 0xFFFFFFFFFFFFFFFF DUP2 GT ISZERO PUSH3 0x728 JUMPI PUSH3 0x727 PUSH3 0x4A7 JUMP JUMPDEST JUMPDEST PUSH3 0x734 DUP3 SLOAD PUSH3 0x501 JUMP JUMPDEST PUSH3 0x741 DUP3 DUP3 DUP6 PUSH3 0x66A JUMP JUMPDEST PUSH0 PUSH1 0x20 SWAP1 POP PUSH1 0x1F DUP4 GT PUSH1 0x1 DUP2 EQ PUSH3 0x777 JUMPI PUSH0 DUP5 ISZERO PUSH3 0x762 JUMPI DUP3 DUP8 ADD MLOAD SWAP1 POP JUMPDEST PUSH3 0x76E DUP6 DUP3 PUSH3 0x6E4 JUMP JUMPDEST DUP7 SSTORE POP PUSH3 0x7DD JUMP JUMPDEST PUSH1 0x1F NOT DUP5 AND PUSH3 0x787 DUP7 PUSH3 0x535 JUMP JUMPDEST PUSH0 JUMPDEST DUP3 DUP2 LT ISZERO PUSH3 0x7B0 JUMPI DUP5 DUP10 ADD MLOAD DUP3 SSTORE PUSH1 0x1 DUP3 ADD SWAP2 POP PUSH1 0x20 DUP6 ADD SWAP5 POP PUSH1 0x20 DUP2 ADD SWAP1 POP PUSH3 0x789 JUMP JUMPDEST DUP7 DUP4 LT ISZERO PUSH3 0x7D0 JUMPI DUP5 DUP10 ADD MLOAD PUSH3 0x7CC PUSH1 0x1F DUP10 AND DUP3 PUSH3 0x6C6 JUMP JUMPDEST DUP4 SSTORE POP JUMPDEST PUSH1 0x1 PUSH1 0x2 DUP9 MUL ADD DUP9 SSTORE POP POP POP JUMPDEST POP POP POP POP POP POP JUMP JUMPDEST PUSH3 0x7F0 DUP2 PUSH3 0x42B JUMP JUMPDEST DUP3 MSTORE POP POP JUMP JUMPDEST PUSH0 PUSH1 0x20 DUP3 ADD SWAP1 POP PUSH3 0x80B PUSH0 DUP4 ADD DUP5 PUSH3 0x7E5 JUMP JUMPDEST SWAP3 SWAP2 POP POP JUMP JUMPDEST PUSH0 PUSH12 0xFFFFFFFFFFFFFFFFFFFFFFFF DUP3 AND SWAP1 POP SWAP2 SWAP1 POP JUMP JUMPDEST PUSH0 PUSH3 0x848 PUSH3 0x842 PUSH3 0x83C DUP5 PUSH3 0x811 JUMP JUMPDEST PUSH3 0x5C0 JUMP JUMPDEST PUSH3 0x5B7 JUMP JUMPDEST SWAP1 POP SWAP2 SWAP1 POP JUMP JUMPDEST PUSH3 0x85A DUP2 PUSH3 0x828 JUMP JUMPDEST DUP3 MSTORE POP POP JUMP JUMPDEST PUSH3 0x86B DUP2 PUSH3 0x5B7 JUMP JUMPDEST DUP3 MSTORE POP POP JUMP JUMPDEST PUSH0 PUSH1 0x40 DUP3 ADD SWAP1 POP PUSH3 0x886 PUSH0 DUP4 ADD DUP6 PUSH3 0x84F JUMP JUMPDEST PUSH3 0x895 PUSH1 0x20 DUP4 ADD DUP5 PUSH3 0x860 JUMP JUMPDEST SWAP4 SWAP3 POP POP POP JUMP JUMPDEST PUSH1 0x80 MLOAD PUSH2 0x4817 PUSH3 0x8B2 PUSH0 CODECOPY PUSH0 POP POP PUSH2 0x4817 PUSH0 RETURN INVALID PUSH1 0x80 PUSH1 0x40 MSTORE PUSH1 0x4 CALLDATASIZE LT PUSH2 0x275 JUMPI PUSH0 CALLDATALOAD PUSH1 0xE0 SHR DUP1 PUSH4 0x715018A6 GT PUSH2 0x14E JUMPI DUP1 PUSH4 0xACA75A52 GT PUSH2 0xC0 JUMPI DUP1 PUSH4 0xCD279C7C GT PUSH2 0x79 JUMPI DUP1 PUSH4 0xCD279C7C EQ PUSH2 0xA11 JUMPI DUP1 PUSH4 0xD4D747B8 EQ PUSH2 0xA39 JUMPI DUP1 PUSH4 0xE985E9C5 EQ PUSH2 0xA75 JUMPI DUP1 PUSH4 0xEF8B30F7 EQ PUSH2 0xAB1 JUMPI DUP1 PUSH4 0xF2FDE38B EQ PUSH2 0xAED JUMPI DUP1 PUSH4 0xF582D293 EQ PUSH2 0xB15 JUMPI PUSH2 0x27C JUMP JUMPDEST DUP1 PUSH4 0xACA75A52 EQ PUSH2 0x8D5 JUMPI DUP1 PUSH4 0xB3D7F6B9 EQ PUSH2 0x905 JUMPI DUP1 PUSH4 0xB6B55F25 EQ PUSH2 0x941 JUMPI DUP1 PUSH4 0xB88D4FDE EQ PUSH2 0x971 JUMPI DUP1 PUSH4 0xC6E6F592 EQ PUSH2 0x999 JUMPI DUP1 PUSH4 0xC87B56DD EQ PUSH2 0x9D5 JUMPI PUSH2 0x27C JUMP JUMPDEST DUP1 PUSH4 0x8F2FC60B GT PUSH2 0x112 JUMPI DUP1 PUSH4 0x8F2FC60B EQ PUSH2 0x7A7 JUMPI DUP1 PUSH4 0x908C55FC EQ PUSH2 0x7CF JUMPI DUP1 PUSH4 0x95D89B41 EQ PUSH2 0x80B JUMPI DUP1 PUSH4 0xA10DE6D6 EQ PUSH2 0x835 JUMPI DUP1 PUSH4 0xA22CB465 EQ PUSH2 0x871 JUMPI DUP1 PUSH4 0xAC11E794 EQ PUSH2 0x899 JUMPI PUSH2 0x27C JUMP JUMPDEST DUP1 PUSH4 0x715018A6 EQ PUSH2 0x6C5 JUMPI DUP1 PUSH4 0x7C05A2A7 EQ PUSH2 0x6DB JUMPI DUP1 PUSH4 0x85804864 EQ PUSH2 0x717 JUMPI DUP1 PUSH4 0x87269729 EQ PUSH2 0x753 JUMPI DUP1 PUSH4 0x8DA5CB5B EQ PUSH2 0x77D JUMPI PUSH2 0x27C JUMP JUMPDEST DUP1 PUSH4 0x313CE567 GT PUSH2 0x1E7 JUMPI DUP1 PUSH4 0x4CDAD506 GT PUSH2 0x1AB JUMPI DUP1 PUSH4 0x4CDAD506 EQ PUSH2 0x597 JUMPI DUP1 PUSH4 0x577D6763 EQ PUSH2 0x5D3 JUMPI DUP1 PUSH4 0x5A92AFC2 EQ PUSH2 0x5FB JUMPI DUP1 PUSH4 0x6352211E EQ PUSH2 0x625 JUMPI DUP1 PUSH4 0x650749A6 EQ PUSH2 0x661 JUMPI DUP1 PUSH4 0x70A08231 EQ PUSH2 0x689 JUMPI PUSH2 0x27C JUMP JUMPDEST DUP1 PUSH4 0x313CE567 EQ PUSH2 0x4B7 JUMPI DUP1 PUSH4 0x3A98EF39 EQ PUSH2 0x4E1 JUMPI DUP1 PUSH4 0x3D9E67EC EQ PUSH2 0x50B JUMPI DUP1 PUSH4 0x42842E0E EQ PUSH2 0x547 JUMPI DUP1 PUSH4 0x4697F05D EQ PUSH2 0x56F JUMPI PUSH2 0x27C JUMP JUMPDEST DUP1 PUSH4 0x95EA7B3 GT PUSH2 0x239 JUMPI DUP1 PUSH4 0x95EA7B3 EQ PUSH2 0x388 JUMPI DUP1 PUSH4 0xA28A477 EQ PUSH2 0x3B0 JUMPI DUP1 PUSH4 0xAD58D2F EQ PUSH2 0x3EC JUMPI DUP1 PUSH4 0x18160DDD EQ PUSH2 0x428 JUMPI DUP1 PUSH4 0x23B872DD EQ PUSH2 0x452 JUMPI DUP1 PUSH4 0x2A55205A EQ PUSH2 0x47A JUMPI PUSH2 0x27C JUMP JUMPDEST DUP1 PUSH4 0x1E1D114 EQ PUSH2 0x280 JUMPI DUP1 PUSH4 0x1FFC9A7 EQ PUSH2 0x2AA JUMPI DUP1 PUSH4 0x6FDDE03 EQ PUSH2 0x2E6 JUMPI DUP1 PUSH4 0x7A2D13A EQ PUSH2 0x310 JUMPI DUP1 PUSH4 0x81812FC EQ PUSH2 0x34C JUMPI PUSH2 0x27C JUMP JUMPDEST CALLDATASIZE PUSH2 0x27C JUMPI STOP JUMPDEST PUSH0 DUP1 REVERT JUMPDEST CALLVALUE DUP1 ISZERO PUSH2 0x28B JUMPI PUSH0 DUP1 REVERT JUMPDEST POP PUSH2 0x294 PUSH2 0xB3F JUMP JUMPDEST PUSH1 0x40 MLOAD PUSH2 0x2A1 SWAP2 SWAP1 PUSH2 0x3444 JUMP JUMPDEST PUSH1 0x40 MLOAD DUP1 SWAP2 SUB SWAP1 RETURN JUMPDEST CALLVALUE DUP1 ISZERO PUSH2 0x2B5 JUMPI PUSH0 DUP1 REVERT JUMPDEST POP PUSH2 0x2D0 PUSH1 0x4 DUP1 CALLDATASIZE SUB DUP2 ADD SWAP1 PUSH2 0x2CB SWAP2 SWAP1 PUSH2 0x34C3 JUMP JUMPDEST PUSH2 0xB46 JUMP JUMPDEST PUSH1 0x40 MLOAD PUSH2 0x2DD SWAP2 SWAP1 PUSH2 0x3508 JUMP JUMPDEST PUSH1 0x40 MLOAD DUP1 SWAP2 SUB SWAP1 RETURN JUMPDEST CALLVALUE DUP1 ISZERO PUSH2 0x2F1 JUMPI PUSH0 DUP1 REVERT JUMPDEST POP PUSH2 0x2FA PUSH2 0xB57 JUMP JUMPDEST PUSH1 0x40 MLOAD PUSH2 0x307 SWAP2 SWAP1 PUSH2 0x35AB JUMP JUMPDEST PUSH1 0x40 MLOAD DUP1 SWAP2 SUB SWAP1 RETURN JUMPDEST CALLVALUE DUP1 ISZERO PUSH2 0x31B JUMPI PUSH0 DUP1 REVERT JUMPDEST POP PUSH2 0x336 PUSH1 0x4 DUP1 CALLDATASIZE SUB DUP2 ADD SWAP1 PUSH2 0x331 SWAP2 SWAP1 PUSH2 0x35F5 JUMP JUMPDEST PUSH2 0xBE6 JUMP JUMPDEST PUSH1 0x40 MLOAD PUSH2 0x343 SWAP2 SWAP1 PUSH2 0x3444 JUMP JUMPDEST PUSH1 0x40 MLOAD DUP1 SWAP2 SUB SWAP1 RETURN JUMPDEST CALLVALUE DUP1 ISZERO PUSH2 0x357 JUMPI PUSH0 DUP1 REVERT JUMPDEST POP PUSH2 0x372 PUSH1 0x4 DUP1 CALLDATASIZE SUB DUP2 ADD SWAP1 PUSH2 0x36D SWAP2 SWAP1 PUSH2 0x35F5 JUMP JUMPDEST PUSH2 0xBF8 JUMP JUMPDEST PUSH1 0x40 MLOAD PUSH2 0x37F SWAP2 SWAP1 PUSH2 0x365F JUMP JUMPDEST PUSH1 0x40 MLOAD DUP1 SWAP2 SUB SWAP1 RETURN JUMPDEST CALLVALUE DUP1 ISZERO PUSH2 0x393 JUMPI PUSH0 DUP1 REVERT JUMPDEST POP PUSH2 0x3AE PUSH1 0x4 DUP1 CALLDATASIZE SUB DUP2 ADD SWAP1 PUSH2 0x3A9 SWAP2 SWAP1 PUSH2 0x36A2 JUMP JUMPDEST PUSH2 0xC13 JUMP JUMPDEST STOP JUMPDEST CALLVALUE DUP1 ISZERO PUSH2 0x3BB JUMPI PUSH0 DUP1 REVERT JUMPDEST POP PUSH2 0x3D6 PUSH1 0x4 DUP1 CALLDATASIZE SUB DUP2 ADD SWAP1 PUSH2 0x3D1 SWAP2 SWAP1 PUSH2 0x35F5 JUMP JUMPDEST PUSH2 0xC29 JUMP JUMPDEST PUSH1 0x40 MLOAD PUSH2 0x3E3 SWAP2 SWAP1 PUSH2 0x3444 JUMP JUMPDEST PUSH1 0x40 MLOAD DUP1 SWAP2 SUB SWAP1 RETURN JUMPDEST CALLVALUE DUP1 ISZERO PUSH2 0x3F7 JUMPI PUSH0 DUP1 REVERT JUMPDEST POP PUSH2 0x412 PUSH1 0x4 DUP1 CALLDATASIZE SUB DUP2 ADD SWAP1 PUSH2 0x40D SWAP2 SWAP1 PUSH2 0x36E0 JUMP JUMPDEST PUSH2 0xC3C JUMP JUMPDEST PUSH1 0x40 MLOAD PUSH2 0x41F SWAP2 SWAP1 PUSH2 0x3508 JUMP JUMPDEST PUSH1 0x40 MLOAD DUP1 SWAP2 SUB SWAP1 RETURN JUMPDEST CALLVALUE DUP1 ISZERO PUSH2 0x433 JUMPI PUSH0 DUP1 REVERT JUMPDEST POP PUSH2 0x43C PUSH2 0xF24 JUMP JUMPDEST PUSH1 0x40 MLOAD PUSH2 0x449 SWAP2 SWAP1 PUSH2 0x3444 JUMP JUMPDEST PUSH1 0x40 MLOAD DUP1 SWAP2 SUB SWAP1 RETURN JUMPDEST CALLVALUE DUP1 ISZERO PUSH2 0x45D JUMPI PUSH0 DUP1 REVERT JUMPDEST POP PUSH2 0x478 PUSH1 0x4 DUP1 CALLDATASIZE SUB DUP2 ADD SWAP1 PUSH2 0x473 SWAP2 SWAP1 PUSH2 0x3730 JUMP JUMPDEST PUSH2 0xF2A JUMP JUMPDEST STOP JUMPDEST CALLVALUE DUP1 ISZERO PUSH2 0x485 JUMPI PUSH0 DUP1 REVERT JUMPDEST POP PUSH2 0x4A0 PUSH1 0x4 DUP1 CALLDATASIZE SUB DUP2 ADD SWAP1 PUSH2 0x49B SWAP2 SWAP1 PUSH2 0x3780 JUMP JUMPDEST PUSH2 0x1029 JUMP JUMPDEST PUSH1 0x40 MLOAD PUSH2 0x4AE SWAP3 SWAP2 SWAP1 PUSH2 0x37BE JUMP JUMPDEST PUSH1 0x40 MLOAD DUP1 SWAP2 SUB SWAP1 RETURN JUMPDEST CALLVALUE DUP1 ISZERO PUSH2 0x4C2 JUMPI PUSH0 DUP1 REVERT JUMPDEST POP PUSH2 0x4CB PUSH2 0x1205 JUMP JUMPDEST PUSH1 0x40 MLOAD PUSH2 0x4D8 SWAP2 SWAP1 PUSH2 0x3800 JUMP JUMPDEST PUSH1 0x40 MLOAD DUP1 SWAP2 SUB SWAP1 RETURN JUMPDEST CALLVALUE DUP1 ISZERO PUSH2 0x4EC JUMPI PUSH0 DUP1 REVERT JUMPDEST POP PUSH2 0x4F5 PUSH2 0x1213 JUMP JUMPDEST PUSH1 0x40 MLOAD PUSH2 0x502 SWAP2 SWAP1 PUSH2 0x3444 JUMP JUMPDEST PUSH1 0x40 MLOAD DUP1 SWAP2 SUB SWAP1 RETURN JUMPDEST CALLVALUE DUP1 ISZERO PUSH2 0x516 JUMPI PUSH0 DUP1 REVERT JUMPDEST POP PUSH2 0x531 PUSH1 0x4 DUP1 CALLDATASIZE SUB DUP2 ADD SWAP1 PUSH2 0x52C SWAP2 SWAP1 PUSH2 0x35F5 JUMP JUMPDEST PUSH2 0x121C JUMP JUMPDEST PUSH1 0x40 MLOAD PUSH2 0x53E SWAP2 SWAP1 PUSH2 0x3444 JUMP JUMPDEST PUSH1 0x40 MLOAD DUP1 SWAP2 SUB SWAP1 RETURN JUMPDEST CALLVALUE DUP1 ISZERO PUSH2 0x552 JUMPI PUSH0 DUP1 REVERT JUMPDEST POP PUSH2 0x56D PUSH1 0x4 DUP1 CALLDATASIZE SUB DUP2 ADD SWAP1 PUSH2 0x568 SWAP2 SWAP1 PUSH2 0x3730 JUMP JUMPDEST PUSH2 0x1245 JUMP JUMPDEST STOP JUMPDEST CALLVALUE DUP1 ISZERO PUSH2 0x57A JUMPI PUSH0 DUP1 REVERT JUMPDEST POP PUSH2 0x595 PUSH1 0x4 DUP1 CALLDATASIZE SUB DUP2 ADD SWAP1 PUSH2 0x590 SWAP2 SWAP1 PUSH2 0x3843 JUMP JUMPDEST PUSH2 0x1264 JUMP JUMPDEST STOP JUMPDEST CALLVALUE DUP1 ISZERO PUSH2 0x5A2 JUMPI PUSH0 DUP1 REVERT JUMPDEST POP PUSH2 0x5BD PUSH1 0x4 DUP1 CALLDATASIZE SUB DUP2 ADD SWAP1 PUSH2 0x5B8 SWAP2 SWAP1 PUSH2 0x35F5 JUMP JUMPDEST PUSH2 0x12C4 JUMP JUMPDEST PUSH1 0x40 MLOAD PUSH2 0x5CA SWAP2 SWAP1 PUSH2 0x3444 JUMP JUMPDEST PUSH1 0x40 MLOAD DUP1 SWAP2 SUB SWAP1 RETURN JUMPDEST CALLVALUE DUP1 ISZERO PUSH2 0x5DE JUMPI PUSH0 DUP1 REVERT JUMPDEST POP PUSH2 0x5F9 PUSH1 0x4 DUP1 CALLDATASIZE SUB DUP2 ADD SWAP1 PUSH2 0x5F4 SWAP2 SWAP1 PUSH2 0x3881 JUMP JUMPDEST PUSH2 0x12D6 JUMP JUMPDEST STOP JUMPDEST CALLVALUE DUP1 ISZERO PUSH2 0x606 JUMPI PUSH0 DUP1 REVERT JUMPDEST POP PUSH2 0x60F PUSH2 0x12FA JUMP JUMPDEST PUSH1 0x40 MLOAD PUSH2 0x61C SWAP2 SWAP1 PUSH2 0x3444 JUMP JUMPDEST PUSH1 0x40 MLOAD DUP1 SWAP2 SUB SWAP1 RETURN JUMPDEST CALLVALUE DUP1 ISZERO PUSH2 0x630 JUMPI PUSH0 DUP1 REVERT JUMPDEST POP PUSH2 0x64B PUSH1 0x4 DUP1 CALLDATASIZE SUB DUP2 ADD SWAP1 PUSH2 0x646 SWAP2 SWAP1 PUSH2 0x35F5 JUMP JUMPDEST PUSH2 0x1300 JUMP JUMPDEST PUSH1 0x40 MLOAD PUSH2 0x658 SWAP2 SWAP1 PUSH2 0x365F JUMP JUMPDEST PUSH1 0x40 MLOAD DUP1 SWAP2 SUB SWAP1 RETURN JUMPDEST CALLVALUE DUP1 ISZERO PUSH2 0x66C JUMPI PUSH0 DUP1 REVERT JUMPDEST POP PUSH2 0x687 PUSH1 0x4 DUP1 CALLDATASIZE SUB DUP2 ADD SWAP1 PUSH2 0x682 SWAP2 SWAP1 PUSH2 0x35F5 JUMP JUMPDEST PUSH2 0x1311 JUMP JUMPDEST STOP JUMPDEST CALLVALUE DUP1 ISZERO PUSH2 0x694 JUMPI PUSH0 DUP1 REVERT JUMPDEST POP PUSH2 0x6AF PUSH1 0x4 DUP1 CALLDATASIZE SUB DUP2 ADD SWAP1 PUSH2 0x6AA SWAP2 SWAP1 PUSH2 0x38AC JUMP JUMPDEST PUSH2 0x1323 JUMP JUMPDEST PUSH1 0x40 MLOAD PUSH2 0x6BC SWAP2 SWAP1 PUSH2 0x3444 JUMP JUMPDEST PUSH1 0x40 MLOAD DUP1 SWAP2 SUB SWAP1 RETURN JUMPDEST CALLVALUE DUP1 ISZERO PUSH2 0x6D0 JUMPI PUSH0 DUP1 REVERT JUMPDEST POP PUSH2 0x6D9 PUSH2 0x13D9 JUMP JUMPDEST STOP JUMPDEST CALLVALUE DUP1 ISZERO PUSH2 0x6E6 JUMPI PUSH0 DUP1 REVERT JUMPDEST POP PUSH2 0x701 PUSH1 0x4 DUP1 CALLDATASIZE SUB DUP2 ADD SWAP1 PUSH2 0x6FC SWAP2 SWAP1 PUSH2 0x35F5 JUMP JUMPDEST PUSH2 0x13EC JUMP JUMPDEST PUSH1 0x40 MLOAD PUSH2 0x70E SWAP2 SWAP1 PUSH2 0x3444 JUMP JUMPDEST PUSH1 0x40 MLOAD DUP1 SWAP2 SUB SWAP1 RETURN JUMPDEST CALLVALUE DUP1 ISZERO PUSH2 0x722 JUMPI PUSH0 DUP1 REVERT JUMPDEST POP PUSH2 0x73D PUSH1 0x4 DUP1 CALLDATASIZE SUB DUP2 ADD SWAP1 PUSH2 0x738 SWAP2 SWAP1 PUSH2 0x36E0 JUMP JUMPDEST PUSH2 0x140E JUMP JUMPDEST PUSH1 0x40 MLOAD PUSH2 0x74A SWAP2 SWAP1 PUSH2 0x3508 JUMP JUMPDEST PUSH1 0x40 MLOAD DUP1 SWAP2 SUB SWAP1 RETURN JUMPDEST CALLVALUE DUP1 ISZERO PUSH2 0x75E JUMPI PUSH0 DUP1 REVERT JUMPDEST POP PUSH2 0x767 PUSH2 0x1712 JUMP JUMPDEST PUSH1 0x40 MLOAD PUSH2 0x774 SWAP2 SWAP1 PUSH2 0x3444 JUMP JUMPDEST PUSH1 0x40 MLOAD DUP1 SWAP2 SUB SWAP1 RETURN JUMPDEST CALLVALUE DUP1 ISZERO PUSH2 0x788 JUMPI PUSH0 DUP1 REVERT JUMPDEST POP PUSH2 0x791 PUSH2 0x1740 JUMP JUMPDEST PUSH1 0x40 MLOAD PUSH2 0x79E SWAP2 SWAP1 PUSH2 0x365F JUMP JUMPDEST PUSH1 0x40 MLOAD DUP1 SWAP2 SUB SWAP1 RETURN JUMPDEST CALLVALUE DUP1 ISZERO PUSH2 0x7B2 JUMPI PUSH0 DUP1 REVERT JUMPDEST POP PUSH2 0x7CD PUSH1 0x4 DUP1 CALLDATASIZE SUB DUP2 ADD SWAP1 PUSH2 0x7C8 SWAP2 SWAP1 PUSH2 0x3918 JUMP JUMPDEST PUSH2 0x1768 JUMP JUMPDEST STOP JUMPDEST CALLVALUE DUP1 ISZERO PUSH2 0x7DA JUMPI PUSH0 DUP1 REVERT JUMPDEST POP PUSH2 0x7F5 PUSH1 0x4 DUP1 CALLDATASIZE SUB DUP2 ADD SWAP1 PUSH2 0x7F0 SWAP2 SWAP1 PUSH2 0x35F5 JUMP JUMPDEST PUSH2 0x177E JUMP JUMPDEST PUSH1 0x40 MLOAD PUSH2 0x802 SWAP2 SWAP1 PUSH2 0x3444 JUMP JUMPDEST PUSH1 0x40 MLOAD DUP1 SWAP2 SUB SWAP1 RETURN JUMPDEST CALLVALUE DUP1 ISZERO PUSH2 0x816 JUMPI PUSH0 DUP1 REVERT JUMPDEST POP PUSH2 0x81F PUSH2 0x17A1 JUMP JUMPDEST PUSH1 0x40 MLOAD PUSH2 0x82C SWAP2 SWAP1 PUSH2 0x35AB JUMP JUMPDEST PUSH1 0x40 MLOAD DUP1 SWAP2 SUB SWAP1 RETURN JUMPDEST CALLVALUE DUP1 ISZERO PUSH2 0x840 JUMPI PUSH0 DUP1 REVERT JUMPDEST POP PUSH2 0x85B PUSH1 0x4 DUP1 CALLDATASIZE SUB DUP2 ADD SWAP1 PUSH2 0x856 SWAP2 SWAP1 PUSH2 0x35F5 JUMP JUMPDEST PUSH2 0x1831 JUMP JUMPDEST PUSH1 0x40 MLOAD PUSH2 0x868 SWAP2 SWAP1 PUSH2 0x3444 JUMP JUMPDEST PUSH1 0x40 MLOAD DUP1 SWAP2 SUB SWAP1 RETURN JUMPDEST CALLVALUE DUP1 ISZERO PUSH2 0x87C JUMPI PUSH0 DUP1 REVERT JUMPDEST POP PUSH2 0x897 PUSH1 0x4 DUP1 CALLDATASIZE SUB DUP2 ADD SWAP1 PUSH2 0x892 SWAP2 SWAP1 PUSH2 0x3843 JUMP JUMPDEST PUSH2 0x184B JUMP JUMPDEST STOP JUMPDEST CALLVALUE DUP1 ISZERO PUSH2 0x8A4 JUMPI PUSH0 DUP1 REVERT JUMPDEST POP PUSH2 0x8BF PUSH1 0x4 DUP1 CALLDATASIZE SUB DUP2 ADD SWAP1 PUSH2 0x8BA SWAP2 SWAP1 PUSH2 0x35F5 JUMP JUMPDEST PUSH2 0x1861 JUMP JUMPDEST PUSH1 0x40 MLOAD PUSH2 0x8CC SWAP2 SWAP1 PUSH2 0x3444 JUMP JUMPDEST PUSH1 0x40 MLOAD DUP1 SWAP2 SUB SWAP1 RETURN JUMPDEST PUSH2 0x8EF PUSH1 0x4 DUP1 CALLDATASIZE SUB DUP2 ADD SWAP1 PUSH2 0x8EA SWAP2 SWAP1 PUSH2 0x3780 JUMP JUMPDEST PUSH2 0x188A JUMP JUMPDEST PUSH1 0x40 MLOAD PUSH2 0x8FC SWAP2 SWAP1 PUSH2 0x3508 JUMP JUMPDEST PUSH1 0x40 MLOAD DUP1 SWAP2 SUB SWAP1 RETURN JUMPDEST CALLVALUE DUP1 ISZERO PUSH2 0x910 JUMPI PUSH0 DUP1 REVERT JUMPDEST POP PUSH2 0x92B PUSH1 0x4 DUP1 CALLDATASIZE SUB DUP2 ADD SWAP1 PUSH2 0x926 SWAP2 SWAP1 PUSH2 0x35F5 JUMP JUMPDEST PUSH2 0x1A5A JUMP JUMPDEST PUSH1 0x40 MLOAD PUSH2 0x938 SWAP2 SWAP1 PUSH2 0x3444 JUMP JUMPDEST PUSH1 0x40 MLOAD DUP1 SWAP2 SUB SWAP1 RETURN JUMPDEST PUSH2 0x95B PUSH1 0x4 DUP1 CALLDATASIZE SUB DUP2 ADD SWAP1 PUSH2 0x956 SWAP2 SWAP1 PUSH2 0x35F5 JUMP JUMPDEST PUSH2 0x1A6D JUMP JUMPDEST PUSH1 0x40 MLOAD PUSH2 0x968 SWAP2 SWAP1 PUSH2 0x3508 JUMP JUMPDEST PUSH1 0x40 MLOAD DUP1 SWAP2 SUB SWAP1 RETURN JUMPDEST CALLVALUE DUP1 ISZERO PUSH2 0x97C JUMPI PUSH0 DUP1 REVERT JUMPDEST POP PUSH2 0x997 PUSH1 0x4 DUP1 CALLDATASIZE SUB DUP2 ADD SWAP1 PUSH2 0x992 SWAP2 SWAP1 PUSH2 0x3A82 JUMP JUMPDEST PUSH2 0x1C3C JUMP JUMPDEST STOP JUMPDEST CALLVALUE DUP1 ISZERO PUSH2 0x9A4 JUMPI PUSH0 DUP1 REVERT JUMPDEST POP PUSH2 0x9BF PUSH1 0x4 DUP1 CALLDATASIZE SUB DUP2 ADD SWAP1 PUSH2 0x9BA SWAP2 SWAP1 PUSH2 0x35F5 JUMP JUMPDEST PUSH2 0x1C59 JUMP JUMPDEST PUSH1 0x40 MLOAD PUSH2 0x9CC SWAP2 SWAP1 PUSH2 0x3444 JUMP JUMPDEST PUSH1 0x40 MLOAD DUP1 SWAP2 SUB SWAP1 RETURN JUMPDEST CALLVALUE DUP1 ISZERO PUSH2 0x9E0 JUMPI PUSH0 DUP1 REVERT JUMPDEST POP PUSH2 0x9FB PUSH1 0x4 DUP1 CALLDATASIZE SUB DUP2 ADD SWAP1 PUSH2 0x9F6 SWAP2 SWAP1 PUSH2 0x35F5 JUMP JUMPDEST PUSH2 0x1C6B JUMP JUMPDEST PUSH1 0x40 MLOAD PUSH2 0xA08 SWAP2 SWAP1 PUSH2 0x35AB JUMP JUMPDEST PUSH1 0x40 MLOAD DUP1 SWAP2 SUB SWAP1 RETURN JUMPDEST CALLVALUE DUP1 ISZERO PUSH2 0xA1C JUMPI PUSH0 DUP1 REVERT JUMPDEST POP PUSH2 0xA37 PUSH1 0x4 DUP1 CALLDATASIZE SUB DUP2 ADD SWAP1 PUSH2 0xA32 SWAP2 SWAP1 PUSH2 0x3BA0 JUMP JUMPDEST PUSH2 0x1C7D JUMP JUMPDEST STOP JUMPDEST CALLVALUE DUP1 ISZERO PUSH2 0xA44 JUMPI PUSH0 DUP1 REVERT JUMPDEST POP PUSH2 0xA5F PUSH1 0x4 DUP1 CALLDATASIZE SUB DUP2 ADD SWAP1 PUSH2 0xA5A SWAP2 SWAP1 PUSH2 0x35F5 JUMP JUMPDEST PUSH2 0x1CAC JUMP JUMPDEST PUSH1 0x40 MLOAD PUSH2 0xA6C SWAP2 SWAP1 PUSH2 0x3444 JUMP JUMPDEST PUSH1 0x40 MLOAD DUP1 SWAP2 SUB SWAP1 RETURN JUMPDEST CALLVALUE DUP1 ISZERO PUSH2 0xA80 JUMPI PUSH0 DUP1 REVERT JUMPDEST POP PUSH2 0xA9B PUSH1 0x4 DUP1 CALLDATASIZE SUB DUP2 ADD SWAP1 PUSH2 0xA96 SWAP2 SWAP1 PUSH2 0x3C0C JUMP JUMPDEST PUSH2 0x1CC1 JUMP JUMPDEST PUSH1 0x40 MLOAD PUSH2 0xAA8 SWAP2 SWAP1 PUSH2 0x3508 JUMP JUMPDEST PUSH1 0x40 MLOAD DUP1 SWAP2 SUB SWAP1 RETURN JUMPDEST CALLVALUE DUP1 ISZERO PUSH2 0xABC JUMPI PUSH0 DUP1 REVERT JUMPDEST POP PUSH2 0xAD7 PUSH1 0x4 DUP1 CALLDATASIZE SUB DUP2 ADD SWAP1 PUSH2 0xAD2 SWAP2 SWAP1 PUSH2 0x35F5 JUMP JUMPDEST PUSH2 0x1D4F JUMP JUMPDEST PUSH1 0x40 MLOAD PUSH2 0xAE4 SWAP2 SWAP1 PUSH2 0x3444 JUMP JUMPDEST PUSH1 0x40 MLOAD DUP1 SWAP2 SUB SWAP1 RETURN JUMPDEST CALLVALUE DUP1 ISZERO PUSH2 0xAF8 JUMPI PUSH0 DUP1 REVERT JUMPDEST POP PUSH2 0xB13 PUSH1 0x4 DUP1 CALLDATASIZE SUB DUP2 ADD SWAP1 PUSH2 0xB0E SWAP2 SWAP1 PUSH2 0x38AC JUMP JUMPDEST PUSH2 0x1D61 JUMP JUMPDEST STOP JUMPDEST CALLVALUE DUP1 ISZERO PUSH2 0xB20 JUMPI PUSH0 DUP1 REVERT JUMPDEST POP PUSH2 0xB29 PUSH2 0x1DE5 JUMP JUMPDEST PUSH1 0x40 MLOAD PUSH2 0xB36 SWAP2 SWAP1 PUSH2 0x3508 JUMP JUMPDEST PUSH1 0x40 MLOAD DUP1 SWAP2 SUB SWAP1 RETURN JUMPDEST PUSH0 SELFBALANCE SWAP1 POP SWAP1 JUMP JUMPDEST PUSH0 PUSH2 0xB50 DUP3 PUSH2 0x1DF7 JUMP JUMPDEST SWAP1 POP SWAP2 SWAP1 POP JUMP JUMPDEST PUSH1 0x60 PUSH0 DUP1 SLOAD PUSH2 0xB65 SWAP1 PUSH2 0x3C77 JUMP JUMPDEST DUP1 PUSH1 0x1F ADD PUSH1 0x20 DUP1 SWAP2 DIV MUL PUSH1 0x20 ADD PUSH1 0x40 MLOAD SWAP1 DUP2 ADD PUSH1 0x40 MSTORE DUP1 SWAP3 SWAP2 SWAP1 DUP2 DUP2 MSTORE PUSH1 0x20 ADD DUP3 DUP1 SLOAD PUSH2 0xB91 SWAP1 PUSH2 0x3C77 JUMP JUMPDEST DUP1 ISZERO PUSH2 0xBDC JUMPI DUP1 PUSH1 0x1F LT PUSH2 0xBB3 JUMPI PUSH2 0x100 DUP1 DUP4 SLOAD DIV MUL DUP4 MSTORE SWAP2 PUSH1 0x20 ADD SWAP2 PUSH2 0xBDC JUMP JUMPDEST DUP3 ADD SWAP2 SWAP1 PUSH0 MSTORE PUSH1 0x20 PUSH0 KECCAK256 SWAP1 JUMPDEST DUP2 SLOAD DUP2 MSTORE SWAP1 PUSH1 0x1 ADD SWAP1 PUSH1 0x20 ADD DUP1 DUP4 GT PUSH2 0xBBF JUMPI DUP3 SWAP1 SUB PUSH1 0x1F AND DUP3 ADD SWAP2 JUMPDEST POP POP POP POP POP SWAP1 POP SWAP1 JUMP JUMPDEST PUSH0 PUSH2 0xBF1 DUP3 PUSH0 PUSH2 0x1E70 JUMP JUMPDEST SWAP1 POP SWAP2 SWAP1 POP JUMP JUMPDEST PUSH0 PUSH2 0xC02 DUP3 PUSH2 0x1ED0 JUMP JUMPDEST POP PUSH2 0xC0C DUP3 PUSH2 0x1F56 JUMP JUMPDEST SWAP1 POP SWAP2 SWAP1 POP JUMP JUMPDEST PUSH2 0xC25 DUP3 DUP3 PUSH2 0xC20 PUSH2 0x1F8F JUMP JUMPDEST PUSH2 0x1F96 JUMP JUMPDEST POP POP JUMP JUMPDEST PUSH0 PUSH2 0xC35 DUP3 PUSH1 0x1 PUSH2 0x1FA8 JUMP JUMPDEST SWAP1 POP SWAP2 SWAP1 POP JUMP JUMPDEST PUSH0 PUSH1 0xC PUSH0 SWAP1 SLOAD SWAP1 PUSH2 0x100 EXP SWAP1 DIV PUSH1 0xFF AND ISZERO DUP1 PUSH2 0xC9E JUMPI POP PUSH1 0x10 PUSH0 CALLER PUSH20 0xFFFFFFFFFFFFFFFFFFFFFFFFFFFFFFFFFFFFFFFF AND PUSH20 0xFFFFFFFFFFFFFFFFFFFFFFFFFFFFFFFFFFFFFFFF AND DUP2 MSTORE PUSH1 0x20 ADD SWAP1 DUP2 MSTORE PUSH1 0x20 ADD PUSH0 KECCAK256 PUSH0 SWAP1 SLOAD SWAP1 PUSH2 0x100 EXP SWAP1 DIV PUSH1 0xFF AND JUMPDEST ISZERO PUSH2 0xCDE JUMPI PUSH1 0x40 MLOAD PUSH32 0x8C379A000000000000000000000000000000000000000000000000000000000 DUP2 MSTORE PUSH1 0x4 ADD PUSH2 0xCD5 SWAP1 PUSH2 0x3CF1 JUMP JUMPDEST PUSH1 0x40 MLOAD DUP1 SWAP2 SUB SWAP1 REVERT JUMPDEST CALLER PUSH20 0xFFFFFFFFFFFFFFFFFFFFFFFFFFFFFFFFFFFFFFFF AND PUSH2 0xCFE DUP5 PUSH2 0x1ED0 JUMP JUMPDEST PUSH20 0xFFFFFFFFFFFFFFFFFFFFFFFFFFFFFFFFFFFFFFFF AND EQ PUSH2 0xD54 JUMPI PUSH1 0x40 MLOAD PUSH32 0x8C379A000000000000000000000000000000000000000000000000000000000 DUP2 MSTORE PUSH1 0x4 ADD PUSH2 0xD4B SWAP1 PUSH2 0x3D59 JUMP JUMPDEST PUSH1 0x40 MLOAD DUP1 SWAP2 SUB SWAP1 REVERT JUMPDEST PUSH0 PUSH20 0xFFFFFFFFFFFFFFFFFFFFFFFFFFFFFFFFFFFFFFFF AND DUP3 PUSH20 0xFFFFFFFFFFFFFFFFFFFFFFFFFFFFFFFFFFFFFFFF AND SUB PUSH2 0xDC2 JUMPI PUSH1 0x40 MLOAD PUSH32 0x8C379A000000000000000000000000000000000000000000000000000000000 DUP2 MSTORE PUSH1 0x4 ADD PUSH2 0xDB9 SWAP1 PUSH2 0x3DC1 JUMP JUMPDEST PUSH1 0x40 MLOAD DUP1 SWAP2 SUB SWAP1 REVERT JUMPDEST PUSH2 0xDCA PUSH2 0xB3F JUMP JUMPDEST DUP5 LT PUSH2 0xDD4 JUMPI PUSH0 DUP1 REVERT JUMPDEST PUSH0 PUSH2 0xDDE DUP5 PUSH2 0x177E JUMP JUMPDEST SWAP1 POP DUP1 DUP6 GT ISZERO PUSH2 0xE23 JUMPI PUSH1 0x40 MLOAD PUSH32 0x8C379A000000000000000000000000000000000000000000000000000000000 DUP2 MSTORE PUSH1 0x4 ADD PUSH2 0xE1A SWAP1 PUSH2 0x3E29 JUMP JUMPDEST PUSH1 0x40 MLOAD DUP1 SWAP2 SUB SWAP1 REVERT JUMPDEST PUSH0 PUSH2 0xE2D DUP7 PUSH2 0xC29 JUMP JUMPDEST SWAP1 POP DUP4 PUSH20 0xFFFFFFFFFFFFFFFFFFFFFFFFFFFFFFFFFFFFFFFF AND PUSH2 0x8FC DUP8 SWAP1 DUP2 ISZERO MUL SWAP1 PUSH1 0x40 MLOAD PUSH0 PUSH1 0x40 MLOAD DUP1 DUP4 SUB DUP2 DUP6 DUP9 DUP9 CALL SWAP4 POP POP POP POP SWAP3 POP DUP3 ISZERO PUSH2 0xF17 JUMPI DUP1 PUSH1 0xF PUSH0 DUP8 DUP2 MSTORE PUSH1 0x20 ADD SWAP1 DUP2 MSTORE PUSH1 0x20 ADD PUSH0 KECCAK256 PUSH0 DUP3 DUP3 SLOAD PUSH2 0xE8B SWAP2 SWAP1 PUSH2 0x3E74 JUMP JUMPDEST SWAP3 POP POP DUP2 SWAP1 SSTORE POP DUP1 PUSH1 0xD PUSH0 DUP3 DUP3 SLOAD PUSH2 0xEA3 SWAP2 SWAP1 PUSH2 0x3E74 JUMP JUMPDEST SWAP3 POP POP DUP2 SWAP1 SSTORE POP CALLER PUSH20 0xFFFFFFFFFFFFFFFFFFFFFFFFFFFFFFFFFFFFFFFF AND DUP5 PUSH20 0xFFFFFFFFFFFFFFFFFFFFFFFFFFFFFFFFFFFFFFFF AND DUP7 PUSH32 0xFE7813E2866053D5C3938554E517B554FCE6666A6561BED9EAA7419B29FA9B68 DUP10 DUP6 PUSH1 0x40 MLOAD PUSH2 0xF0A SWAP3 SWAP2 SWAP1 PUSH2 0x3EA7 JUMP JUMPDEST PUSH1 0x40 MLOAD DUP1 SWAP2 SUB SWAP1 LOG4 PUSH2 0xF1B JUMP JUMPDEST PUSH0 DUP1 REVERT JUMPDEST POP POP SWAP4 SWAP3 POP POP POP JUMP JUMPDEST PUSH1 0xA SLOAD DUP2 JUMP JUMPDEST PUSH0 PUSH20 0xFFFFFFFFFFFFFFFFFFFFFFFFFFFFFFFFFFFFFFFF AND DUP3 PUSH20 0xFFFFFFFFFFFFFFFFFFFFFFFFFFFFFFFFFFFFFFFF AND SUB PUSH2 0xF9A JUMPI PUSH0 PUSH1 0x40 MLOAD PUSH32 0x64A0AE9200000000000000000000000000000000000000000000000000000000 DUP2 MSTORE PUSH1 0x4 ADD PUSH2 0xF91 SWAP2 SWAP1 PUSH2 0x365F JUMP JUMPDEST PUSH1 0x40 MLOAD DUP1 SWAP2 SUB SWAP1 REVERT JUMPDEST PUSH0 PUSH2 0xFAD DUP4 DUP4 PUSH2 0xFA8 PUSH2 0x1F8F JUMP JUMPDEST PUSH2 0x1FFC JUMP JUMPDEST SWAP1 POP DUP4 PUSH20 0xFFFFFFFFFFFFFFFFFFFFFFFFFFFFFFFFFFFFFFFF AND DUP2 PUSH20 0xFFFFFFFFFFFFFFFFFFFFFFFFFFFFFFFFFFFFFFFF AND EQ PUSH2 0x1023 JUMPI DUP4 DUP3 DUP3 PUSH1 0x40 MLOAD PUSH32 0x64283D7B00000000000000000000000000000000000000000000000000000000 DUP2 MSTORE PUSH1 0x4 ADD PUSH2 0x101A SWAP4 SWAP3 SWAP2 SWAP1 PUSH2 0x3ECE JUMP JUMPDEST PUSH1 0x40 MLOAD DUP1 SWAP2 SUB SWAP1 REVERT JUMPDEST POP POP POP POP JUMP JUMPDEST PUSH0 DUP1 PUSH0 PUSH1 0x9 PUSH0 DUP7 DUP2 MSTORE PUSH1 0x20 ADD SWAP1 DUP2 MSTORE PUSH1 0x20 ADD PUSH0 KECCAK256 PUSH1 0x40 MLOAD DUP1 PUSH1 0x40 ADD PUSH1 0x40 MSTORE SWAP1 DUP2 PUSH0 DUP3 ADD PUSH0 SWAP1 SLOAD SWAP1 PUSH2 0x100 EXP SWAP1 DIV PUSH20 0xFFFFFFFFFFFFFFFFFFFFFFFFFFFFFFFFFFFFFFFF AND PUSH20 0xFFFFFFFFFFFFFFFFFFFFFFFFFFFFFFFFFFFFFFFF AND PUSH20 0xFFFFFFFFFFFFFFFFFFFFFFFFFFFFFFFFFFFFFFFF AND DUP2 MSTORE PUSH1 0x20 ADD PUSH0 DUP3 ADD PUSH1 0x14 SWAP1 SLOAD SWAP1 PUSH2 0x100 EXP SWAP1 DIV PUSH12 0xFFFFFFFFFFFFFFFFFFFFFFFF AND PUSH12 0xFFFFFFFFFFFFFFFFFFFFFFFF AND PUSH12 0xFFFFFFFFFFFFFFFFFFFFFFFF AND DUP2 MSTORE POP POP SWAP1 POP PUSH0 PUSH20 0xFFFFFFFFFFFFFFFFFFFFFFFFFFFFFFFFFFFFFFFF AND DUP2 PUSH0 ADD MLOAD PUSH20 0xFFFFFFFFFFFFFFFFFFFFFFFFFFFFFFFFFFFFFFFF AND SUB PUSH2 0x11B2 JUMPI PUSH1 0x8 PUSH1 0x40 MLOAD DUP1 PUSH1 0x40 ADD PUSH1 0x40 MSTORE SWAP1 DUP2 PUSH0 DUP3 ADD PUSH0 SWAP1 SLOAD SWAP1 PUSH2 0x100 EXP SWAP1 DIV PUSH20 0xFFFFFFFFFFFFFFFFFFFFFFFFFFFFFFFFFFFFFFFF AND PUSH20 0xFFFFFFFFFFFFFFFFFFFFFFFFFFFFFFFFFFFFFFFF AND PUSH20 0xFFFFFFFFFFFFFFFFFFFFFFFFFFFFFFFFFFFFFFFF AND DUP2 MSTORE PUSH1 0x20 ADD PUSH0 DUP3 ADD PUSH1 0x14 SWAP1 SLOAD SWAP1 PUSH2 0x100 EXP SWAP1 DIV PUSH12 0xFFFFFFFFFFFFFFFFFFFFFFFF AND PUSH12 0xFFFFFFFFFFFFFFFFFFFFFFFF AND PUSH12 0xFFFFFFFFFFFFFFFFFFFFFFFF AND DUP2 MSTORE POP POP SWAP1 POP JUMPDEST PUSH0 PUSH2 0x11BB PUSH2 0x2207 JUMP JUMPDEST PUSH12 0xFFFFFFFFFFFFFFFFFFFFFFFF AND DUP3 PUSH1 0x20 ADD MLOAD PUSH12 0xFFFFFFFFFFFFFFFFFFFFFFFF AND DUP7 PUSH2 0x11E7 SWAP2 SWAP1 PUSH2 0x3F03 JUMP JUMPDEST PUSH2 0x11F1 SWAP2 SWAP1 PUSH2 0x3F71 JUMP JUMPDEST SWAP1 POP DUP2 PUSH0 ADD MLOAD DUP2 SWAP4 POP SWAP4 POP POP POP SWAP3 POP SWAP3 SWAP1 POP JUMP JUMPDEST PUSH0 PUSH2 0x120E PUSH2 0x2210 JUMP JUMPDEST SWAP1 POP SWAP1 JUMP JUMPDEST PUSH0 PUSH1 0xD SLOAD SWAP1 POP SWAP1 JUMP JUMPDEST PUSH0 PUSH32 0xFFFFFFFFFFFFFFFFFFFFFFFFFFFFFFFFFFFFFFFFFFFFFFFFFFFFFFFFFFFFFFFF SWAP1 POP SWAP2 SWAP1 POP JUMP JUMPDEST PUSH2 0x125F DUP4 DUP4 DUP4 PUSH1 0x40 MLOAD DUP1 PUSH1 0x20 ADD PUSH1 0x40 MSTORE DUP1 PUSH0 DUP2 MSTORE POP PUSH2 0x1C3C JUMP JUMPDEST POP POP POP JUMP JUMPDEST PUSH2 0x126C PUSH2 0x2218 JUMP JUMPDEST DUP1 PUSH1 0x10 PUSH0 DUP5 PUSH20 0xFFFFFFFFFFFFFFFFFFFFFFFFFFFFFFFFFFFFFFFF AND PUSH20 0xFFFFFFFFFFFFFFFFFFFFFFFFFFFFFFFFFFFFFFFF AND DUP2 MSTORE PUSH1 0x20 ADD SWAP1 DUP2 MSTORE PUSH1 0x20 ADD PUSH0 KECCAK256 PUSH0 PUSH2 0x100 EXP DUP2 SLOAD DUP2 PUSH1 0xFF MUL NOT AND SWAP1 DUP4 ISZERO ISZERO MUL OR SWAP1 SSTORE POP POP POP JUMP JUMPDEST PUSH0 PUSH2 0x12CF DUP3 PUSH0 PUSH2 0x1E70 JUMP JUMPDEST SWAP1 POP SWAP2 SWAP1 POP JUMP JUMPDEST PUSH2 0x12DE PUSH2 0x2218 JUMP JUMPDEST DUP1 PUSH1 0xC PUSH0 PUSH2 0x100 EXP DUP2 SLOAD DUP2 PUSH1 0xFF MUL NOT AND SWAP1 DUP4 ISZERO ISZERO MUL OR SWAP1 SSTORE POP POP JUMP JUMPDEST PUSH1 0xB SLOAD DUP2 JUMP JUMPDEST PUSH0 PUSH2 0x130A DUP3 PUSH2 0x1ED0 JUMP JUMPDEST SWAP1 POP SWAP2 SWAP1 POP JUMP JUMPDEST PUSH2 0x1319 PUSH2 0x2218 JUMP JUMPDEST DUP1 PUSH1 0xB DUP2 SWAP1 SSTORE POP POP JUMP JUMPDEST PUSH0 DUP1 PUSH20 0xFFFFFFFFFFFFFFFFFFFFFFFFFFFFFFFFFFFFFFFF AND DUP3 PUSH20 0xFFFFFFFFFFFFFFFFFFFFFFFFFFFFFFFFFFFFFFFF AND SUB PUSH2 0x1394 JUMPI PUSH0 PUSH1 0x40 MLOAD PUSH32 0x89C62B6400000000000000000000000000000000000000000000000000000000 DUP2 MSTORE PUSH1 0x4 ADD PUSH2 0x138B SWAP2 SWAP1 PUSH2 0x365F JUMP JUMPDEST PUSH1 0x40 MLOAD DUP1 SWAP2 SUB SWAP1 REVERT JUMPDEST PUSH1 0x3 PUSH0 DUP4 PUSH20 0xFFFFFFFFFFFFFFFFFFFFFFFFFFFFFFFFFFFFFFFF AND PUSH20 0xFFFFFFFFFFFFFFFFFFFFFFFFFFFFFFFFFFFFFFFF AND DUP2 MSTORE PUSH1 0x20 ADD SWAP1 DUP2 MSTORE PUSH1 0x20 ADD PUSH0 KECCAK256 SLOAD SWAP1 POP SWAP2 SWAP1 POP JUMP JUMPDEST PUSH2 0x13E1 PUSH2 0x2218 JUMP JUMPDEST PUSH2 0x13EA PUSH0 PUSH2 0x229F JUMP JUMPDEST JUMP JUMPDEST PUSH0 PUSH2 0x1407 PUSH1 0xF PUSH0 DUP5 DUP2 MSTORE PUSH1 0x20 ADD SWAP1 DUP2 MSTORE PUSH1 0x20 ADD PUSH0 KECCAK256 SLOAD PUSH2 0xBE6 JUMP JUMPDEST SWAP1 POP SWAP2 SWAP1 POP JUMP JUMPDEST PUSH0 PUSH1 0xC PUSH0 SWAP1 SLOAD SWAP1 PUSH2 0x100 EXP SWAP1 DIV PUSH1 0xFF AND ISZERO DUP1 PUSH2 0x1470 JUMPI POP PUSH1 0x10 PUSH0 CALLER PUSH20 0xFFFFFFFFFFFFFFFFFFFFFFFFFFFFFFFFFFFFFFFF AND PUSH20 0xFFFFFFFFFFFFFFFFFFFFFFFFFFFFFFFFFFFFFFFF AND DUP2 MSTORE PUSH1 0x20 ADD SWAP1 DUP2 MSTORE PUSH1 0x20 ADD PUSH0 KECCAK256 PUSH0 SWAP1 SLOAD SWAP1 PUSH2 0x100 EXP SWAP1 DIV PUSH1 0xFF AND JUMPDEST ISZERO PUSH2 0x14B0 JUMPI PUSH1 0x40 MLOAD PUSH32 0x8C379A000000000000000000000000000000000000000000000000000000000 DUP2 MSTORE PUSH1 0x4 ADD PUSH2 0x14A7 SWAP1 PUSH2 0x3CF1 JUMP JUMPDEST PUSH1 0x40 MLOAD DUP1 SWAP2 SUB SWAP1 REVERT JUMPDEST CALLER PUSH20 0xFFFFFFFFFFFFFFFFFFFFFFFFFFFFFFFFFFFFFFFF AND PUSH2 0x14D0 DUP5 PUSH2 0x1ED0 JUMP JUMPDEST PUSH20 0xFFFFFFFFFFFFFFFFFFFFFFFFFFFFFFFFFFFFFFFF AND EQ PUSH2 0x1526 JUMPI PUSH1 0x40 MLOAD PUSH32 0x8C379A000000000000000000000000000000000000000000000000000000000 DUP2 MSTORE PUSH1 0x4 ADD PUSH2 0x151D SWAP1 PUSH2 0x3D59 JUMP JUMPDEST PUSH1 0x40 MLOAD DUP1 SWAP2 SUB SWAP1 REVERT JUMPDEST PUSH0 PUSH20 0xFFFFFFFFFFFFFFFFFFFFFFFFFFFFFFFFFFFFFFFF AND DUP3 PUSH20 0xFFFFFFFFFFFFFFFFFFFFFFFFFFFFFFFFFFFFFFFF AND SUB PUSH2 0x1594 JUMPI PUSH1 0x40 MLOAD PUSH32 0x8C379A000000000000000000000000000000000000000000000000000000000 DUP2 MSTORE PUSH1 0x4 ADD PUSH2 0x158B SWAP1 PUSH2 0x3DC1 JUMP JUMPDEST PUSH1 0x40 MLOAD DUP1 SWAP2 SUB SWAP1 REVERT JUMPDEST PUSH0 PUSH2 0x159E DUP5 PUSH2 0x1831 JUMP JUMPDEST SWAP1 POP PUSH1 0xF PUSH0 DUP6 DUP2 MSTORE PUSH1 0x20 ADD SWAP1 DUP2 MSTORE PUSH1 0x20 ADD PUSH0 KECCAK256 SLOAD DUP6 GT ISZERO PUSH2 0x15F4 JUMPI PUSH1 0x40 MLOAD PUSH32 0x8C379A000000000000000000000000000000000000000000000000000000000 DUP2 MSTORE PUSH1 0x4 ADD PUSH2 0x15EB SWAP1 PUSH2 0x3FEB JUMP JUMPDEST PUSH1 0x40 MLOAD DUP1 SWAP2 SUB SWAP1 REVERT JUMPDEST PUSH2 0x15FC PUSH2 0xB3F JUMP JUMPDEST DUP2 LT DUP1 ISZERO PUSH2 0x1609 JUMPI POP PUSH0 DUP6 GT JUMPDEST PUSH2 0x1611 JUMPI PUSH0 DUP1 REVERT JUMPDEST PUSH0 PUSH2 0x161B DUP7 PUSH2 0x12C4 JUMP JUMPDEST SWAP1 POP DUP4 PUSH20 0xFFFFFFFFFFFFFFFFFFFFFFFFFFFFFFFFFFFFFFFF AND PUSH2 0x8FC DUP3 SWAP1 DUP2 ISZERO MUL SWAP1 PUSH1 0x40 MLOAD PUSH0 PUSH1 0x40 MLOAD DUP1 DUP4 SUB DUP2 DUP6 DUP9 DUP9 CALL SWAP4 POP POP POP POP SWAP3 POP DUP3 ISZERO PUSH2 0x1705 JUMPI DUP6 PUSH1 0xF PUSH0 DUP8 DUP2 MSTORE PUSH1 0x20 ADD SWAP1 DUP2 MSTORE PUSH1 0x20 ADD PUSH0 KECCAK256 PUSH0 DUP3 DUP3 SLOAD PUSH2 0x1679 SWAP2 SWAP1 PUSH2 0x3E74 JUMP JUMPDEST SWAP3 POP POP DUP2 SWAP1 SSTORE POP DUP6 PUSH1 0xD PUSH0 DUP3 DUP3 SLOAD PUSH2 0x1691 SWAP2 SWAP1 PUSH2 0x3E74 JUMP JUMPDEST SWAP3 POP POP DUP2 SWAP1 SSTORE POP CALLER PUSH20 0xFFFFFFFFFFFFFFFFFFFFFFFFFFFFFFFFFFFFFFFF AND DUP5 PUSH20 0xFFFFFFFFFFFFFFFFFFFFFFFFFFFFFFFFFFFFFFFF AND DUP7 PUSH32 0xFE7813E2866053D5C3938554E517B554FCE6666A6561BED9EAA7419B29FA9B68 DUP5 DUP11 PUSH1 0x40 MLOAD PUSH2 0x16F8 SWAP3 SWAP2 SWAP1 PUSH2 0x3EA7 JUMP JUMPDEST PUSH1 0x40 MLOAD DUP1 SWAP2 SUB SWAP1 LOG4 PUSH2 0x1709 JUMP JUMPDEST PUSH0 DUP1 REVERT JUMPDEST POP POP SWAP4 SWAP3 POP POP POP JUMP JUMPDEST PUSH0 PUSH2 0x173B PUSH2 0x171E PUSH2 0x1205 JUMP JUMPDEST PUSH1 0xA PUSH2 0x172A SWAP2 SWAP1 PUSH2 0x4138 JUMP JUMPDEST PUSH1 0x1 PUSH2 0x1736 SWAP2 SWAP1 PUSH2 0x3F03 JUMP JUMPDEST PUSH2 0xBE6 JUMP JUMPDEST SWAP1 POP SWAP1 JUMP JUMPDEST PUSH0 PUSH1 0x7 PUSH0 SWAP1 SLOAD SWAP1 PUSH2 0x100 EXP SWAP1 DIV PUSH20 0xFFFFFFFFFFFFFFFFFFFFFFFFFFFFFFFFFFFFFFFF AND SWAP1 POP SWAP1 JUMP JUMPDEST PUSH2 0x1770 PUSH2 0x2218 JUMP JUMPDEST PUSH2 0x177A DUP3 DUP3 PUSH2 0x2362 JUMP JUMPDEST POP POP JUMP JUMPDEST PUSH0 PUSH2 0x179A PUSH1 0xF PUSH0 DUP5 DUP2 MSTORE PUSH1 0x20 ADD SWAP1 DUP2 MSTORE PUSH1 0x20 ADD PUSH0 KECCAK256 SLOAD PUSH0 PUSH2 0x1E70 JUMP JUMPDEST SWAP1 POP SWAP2 SWAP1 POP JUMP JUMPDEST PUSH1 0x60 PUSH1 0x1 DUP1 SLOAD PUSH2 0x17B0 SWAP1 PUSH2 0x3C77 JUMP JUMPDEST DUP1 PUSH1 0x1F ADD PUSH1 0x20 DUP1 SWAP2 DIV MUL PUSH1 0x20 ADD PUSH1 0x40 MLOAD SWAP1 DUP2 ADD PUSH1 0x40 MSTORE DUP1 SWAP3 SWAP2 SWAP1 DUP2 DUP2 MSTORE PUSH1 0x20 ADD DUP3 DUP1 SLOAD PUSH2 0x17DC SWAP1 PUSH2 0x3C77 JUMP JUMPDEST DUP1 ISZERO PUSH2 0x1827 JUMPI DUP1 PUSH1 0x1F LT PUSH2 0x17FE JUMPI PUSH2 0x100 DUP1 DUP4 SLOAD DIV MUL DUP4 MSTORE SWAP2 PUSH1 0x20 ADD SWAP2 PUSH2 0x1827 JUMP JUMPDEST DUP3 ADD SWAP2 SWAP1 PUSH0 MSTORE PUSH1 0x20 PUSH0 KECCAK256 SWAP1 JUMPDEST DUP2 SLOAD DUP2 MSTORE SWAP1 PUSH1 0x1 ADD SWAP1 PUSH1 0x20 ADD DUP1 DUP4 GT PUSH2 0x180A JUMPI DUP3 SWAP1 SUB PUSH1 0x1F AND DUP3 ADD SWAP2 JUMPDEST POP POP POP POP POP SWAP1 POP SWAP1 JUMP JUMPDEST PUSH0 PUSH1 0xF PUSH0 DUP4 DUP2 MSTORE PUSH1 0x20 ADD SWAP1 DUP2 MSTORE PUSH1 0x20 ADD PUSH0 KECCAK256 SLOAD SWAP1 POP SWAP2 SWAP1 POP JUMP JUMPDEST PUSH2 0x185D PUSH2 0x1856 PUSH2 0x1F8F JUMP JUMPDEST DUP4 DUP4 PUSH2 0x24FD JUMP JUMPDEST POP POP JUMP JUMPDEST PUSH0 PUSH32 0xFFFFFFFFFFFFFFFFFFFFFFFFFFFFFFFFFFFFFFFFFFFFFFFFFFFFFFFFFFFFFFFF SWAP1 POP SWAP2 SWAP1 POP JUMP JUMPDEST PUSH0 PUSH1 0xC PUSH0 SWAP1 SLOAD SWAP1 PUSH2 0x100 EXP SWAP1 DIV PUSH1 0xFF AND ISZERO DUP1 PUSH2 0x18EC JUMPI POP PUSH1 0x10 PUSH0 CALLER PUSH20 0xFFFFFFFFFFFFFFFFFFFFFFFFFFFFFFFFFFFFFFFF AND PUSH20 0xFFFFFFFFFFFFFFFFFFFFFFFFFFFFFFFFFFFFFFFF AND DUP2 MSTORE PUSH1 0x20 ADD SWAP1 DUP2 MSTORE PUSH1 0x20 ADD PUSH0 KECCAK256 PUSH0 SWAP1 SLOAD SWAP1 PUSH2 0x100 EXP SWAP1 DIV PUSH1 0xFF AND JUMPDEST ISZERO PUSH2 0x192C JUMPI PUSH1 0x40 MLOAD PUSH32 0x8C379A000000000000000000000000000000000000000000000000000000000 DUP2 MSTORE PUSH1 0x4 ADD PUSH2 0x1923 SWAP1 PUSH2 0x3CF1 JUMP JUMPDEST PUSH1 0x40 MLOAD DUP1 SWAP2 SUB SWAP1 REVERT JUMPDEST PUSH0 PUSH2 0x1936 DUP5 PUSH2 0x1A5A JUMP JUMPDEST SWAP1 POP PUSH1 0xB SLOAD DUP2 GT ISZERO PUSH2 0x197D JUMPI PUSH1 0x40 MLOAD PUSH32 0x8C379A000000000000000000000000000000000000000000000000000000000 DUP2 MSTORE PUSH1 0x4 ADD PUSH2 0x1974 SWAP1 PUSH2 0x41F2 JUMP JUMPDEST PUSH1 0x40 MLOAD DUP1 SWAP2 SUB SWAP1 REVERT JUMPDEST DUP1 CALLVALUE EQ PUSH2 0x19BF JUMPI PUSH1 0x40 MLOAD PUSH32 0x8C379A000000000000000000000000000000000000000000000000000000000 DUP2 MSTORE PUSH1 0x4 ADD PUSH2 0x19B6 SWAP1 PUSH2 0x425A JUMP JUMPDEST PUSH1 0x40 MLOAD DUP1 SWAP2 SUB SWAP1 REVERT JUMPDEST DUP4 PUSH1 0xF PUSH0 DUP6 DUP2 MSTORE PUSH1 0x20 ADD SWAP1 DUP2 MSTORE PUSH1 0x20 ADD PUSH0 KECCAK256 PUSH0 DUP3 DUP3 SLOAD PUSH2 0x19DF SWAP2 SWAP1 PUSH2 0x4278 JUMP JUMPDEST SWAP3 POP POP DUP2 SWAP1 SSTORE POP DUP4 PUSH1 0xD PUSH0 DUP3 DUP3 SLOAD PUSH2 0x19F7 SWAP2 SWAP1 PUSH2 0x4278 JUMP JUMPDEST SWAP3 POP POP DUP2 SWAP1 SSTORE POP DUP3 CALLER PUSH20 0xFFFFFFFFFFFFFFFFFFFFFFFFFFFFFFFFFFFFFFFF AND PUSH32 0x36AF321EC8D3C75236829C5317AFFD40DDB308863A1236D2D277A4025CCCEE1E CALLVALUE DUP8 PUSH1 0x40 MLOAD PUSH2 0x1A47 SWAP3 SWAP2 SWAP1 PUSH2 0x3EA7 JUMP JUMPDEST PUSH1 0x40 MLOAD DUP1 SWAP2 SUB SWAP1 LOG3 PUSH1 0x1 SWAP2 POP POP SWAP3 SWAP2 POP POP JUMP JUMPDEST PUSH0 PUSH2 0x1A66 DUP3 PUSH1 0x1 PUSH2 0x1E70 JUMP JUMPDEST SWAP1 POP SWAP2 SWAP1 POP JUMP JUMPDEST PUSH0 PUSH1 0xC PUSH0 SWAP1 SLOAD SWAP1 PUSH2 0x100 EXP SWAP1 DIV PUSH1 0xFF AND ISZERO DUP1 PUSH2 0x1ACF JUMPI POP PUSH1 0x10 PUSH0 CALLER PUSH20 0xFFFFFFFFFFFFFFFFFFFFFFFFFFFFFFFFFFFFFFFF AND PUSH20 0xFFFFFFFFFFFFFFFFFFFFFFFFFFFFFFFFFFFFFFFF AND DUP2 MSTORE PUSH1 0x20 ADD SWAP1 DUP2 MSTORE PUSH1 0x20 ADD PUSH0 KECCAK256 PUSH0 SWAP1 SLOAD SWAP1 PUSH2 0x100 EXP SWAP1 DIV PUSH1 0xFF AND JUMPDEST ISZERO PUSH2 0x1B0F JUMPI PUSH1 0x40 MLOAD PUSH32 0x8C379A000000000000000000000000000000000000000000000000000000000 DUP2 MSTORE PUSH1 0x4 ADD PUSH2 0x1B06 SWAP1 PUSH2 0x3CF1 JUMP JUMPDEST PUSH1 0x40 MLOAD DUP1 SWAP2 SUB SWAP1 REVERT JUMPDEST PUSH0 CALLVALUE GT PUSH2 0x1B51 JUMPI PUSH1 0x40 MLOAD PUSH32 0x8C379A000000000000000000000000000000000000000000000000000000000 DUP2 MSTORE PUSH1 0x4 ADD PUSH2 0x1B48 SWAP1 PUSH2 0x42F5 JUMP JUMPDEST PUSH1 0x40 MLOAD DUP1 SWAP2 SUB SWAP1 REVERT JUMPDEST PUSH1 0xB SLOAD CALLVALUE GT ISZERO PUSH2 0x1B96 JUMPI PUSH1 0x40 MLOAD PUSH32 0x8C379A000000000000000000000000000000000000000000000000000000000 DUP2 MSTORE PUSH1 0x4 ADD PUSH2 0x1B8D SWAP1 PUSH2 0x41F2 JUMP JUMPDEST PUSH1 0x40 MLOAD DUP1 SWAP2 SUB SWAP1 REVERT JUMPDEST PUSH0 PUSH2 0x1BA0 CALLVALUE PUSH2 0x1D4F JUMP JUMPDEST SWAP1 POP DUP1 PUSH1 0xF PUSH0 DUP6 DUP2 MSTORE PUSH1 0x20 ADD SWAP1 DUP2 MSTORE PUSH1 0x20 ADD PUSH0 KECCAK256 PUSH0 DUP3 DUP3 SLOAD PUSH2 0x1BC2 SWAP2 SWAP1 PUSH2 0x4278 JUMP JUMPDEST SWAP3 POP POP DUP2 SWAP1 SSTORE POP DUP1 PUSH1 0xD PUSH0 DUP3 DUP3 SLOAD PUSH2 0x1BDA SWAP2 SWAP1 PUSH2 0x4278 JUMP JUMPDEST SWAP3 POP POP DUP2 SWAP1 SSTORE POP DUP3 CALLER PUSH20 0xFFFFFFFFFFFFFFFFFFFFFFFFFFFFFFFFFFFFFFFF AND PUSH32 0x36AF321EC8D3C75236829C5317AFFD40DDB308863A1236D2D277A4025CCCEE1E CALLVALUE DUP5 PUSH1 0x40 MLOAD PUSH2 0x1C2A SWAP3 SWAP2 SWAP1 PUSH2 0x3EA7 JUMP JUMPDEST PUSH1 0x40 MLOAD DUP1 SWAP2 SUB SWAP1 LOG3 PUSH1 0x1 SWAP2 POP POP SWAP2 SWAP1 POP JUMP JUMPDEST PUSH2 0x1C47 DUP5 DUP5 DUP5 PUSH2 0xF2A JUMP JUMPDEST PUSH2 0x1C53 DUP5 DUP5 DUP5 DUP5 PUSH2 0x2666 JUMP JUMPDEST POP POP POP POP JUMP JUMPDEST PUSH0 PUSH2 0x1C64 DUP3 PUSH0 PUSH2 0x1FA8 JUMP JUMPDEST SWAP1 POP SWAP2 SWAP1 POP JUMP JUMPDEST PUSH1 0x60 PUSH2 0x1C76 DUP3 PUSH2 0x2818 JUMP JUMPDEST SWAP1 POP SWAP2 SWAP1 POP JUMP JUMPDEST PUSH2 0x1C85 PUSH2 0x2218 JUMP JUMPDEST PUSH1 0xA SLOAD DUP3 GT ISZERO PUSH2 0x1C93 JUMPI PUSH0 DUP1 REVERT JUMPDEST PUSH2 0x1C9D DUP4 DUP4 PUSH2 0x2923 JUMP JUMPDEST PUSH2 0x1CA7 DUP3 DUP3 PUSH2 0x2940 JUMP JUMPDEST POP POP POP JUMP JUMPDEST PUSH1 0xF PUSH1 0x20 MSTORE DUP1 PUSH0 MSTORE PUSH1 0x40 PUSH0 KECCAK256 PUSH0 SWAP2 POP SWAP1 POP SLOAD DUP2 JUMP JUMPDEST PUSH0 PUSH1 0x5 PUSH0 DUP5 PUSH20 0xFFFFFFFFFFFFFFFFFFFFFFFFFFFFFFFFFFFFFFFF AND PUSH20 0xFFFFFFFFFFFFFFFFFFFFFFFFFFFFFFFFFFFFFFFF AND DUP2 MSTORE PUSH1 0x20 ADD SWAP1 DUP2 MSTORE PUSH1 0x20 ADD PUSH0 KECCAK256 PUSH0 DUP4 PUSH20 0xFFFFFFFFFFFFFFFFFFFFFFFFFFFFFFFFFFFFFFFF AND PUSH20 0xFFFFFFFFFFFFFFFFFFFFFFFFFFFFFFFFFFFFFFFF AND DUP2 MSTORE PUSH1 0x20 ADD SWAP1 DUP2 MSTORE PUSH1 0x20 ADD PUSH0 KECCAK256 PUSH0 SWAP1 SLOAD SWAP1 PUSH2 0x100 EXP SWAP1 DIV PUSH1 0xFF AND SWAP1 POP SWAP3 SWAP2 POP POP JUMP JUMPDEST PUSH0 PUSH2 0x1D5A DUP3 PUSH0 PUSH2 0x1FA8 JUMP JUMPDEST SWAP1 POP SWAP2 SWAP1 POP JUMP JUMPDEST PUSH2 0x1D69 PUSH2 0x2218 JUMP JUMPDEST PUSH0 PUSH20 0xFFFFFFFFFFFFFFFFFFFFFFFFFFFFFFFFFFFFFFFF AND DUP2 PUSH20 0xFFFFFFFFFFFFFFFFFFFFFFFFFFFFFFFFFFFFFFFF AND SUB PUSH2 0x1DD9 JUMPI PUSH0 PUSH1 0x40 MLOAD PUSH32 0x1E4FBDF700000000000000000000000000000000000000000000000000000000 DUP2 MSTORE PUSH1 0x4 ADD PUSH2 0x1DD0 SWAP2 SWAP1 PUSH2 0x365F JUMP JUMPDEST PUSH1 0x40 MLOAD DUP1 SWAP2 SUB SWAP1 REVERT JUMPDEST PUSH2 0x1DE2 DUP2 PUSH2 0x229F JUMP JUMPDEST POP JUMP JUMPDEST PUSH1 0xC PUSH0 SWAP1 SLOAD SWAP1 PUSH2 0x100 EXP SWAP1 DIV PUSH1 0xFF AND DUP2 JUMP JUMPDEST PUSH0 PUSH32 0x2A55205A00000000000000000000000000000000000000000000000000000000 PUSH28 0xFFFFFFFFFFFFFFFFFFFFFFFFFFFFFFFFFFFFFFFFFFFFFFFFFFFFFFFF NOT AND DUP3 PUSH28 0xFFFFFFFFFFFFFFFFFFFFFFFFFFFFFFFFFFFFFFFFFFFFFFFFFFFFFFFF NOT AND EQ DUP1 PUSH2 0x1E69 JUMPI POP PUSH2 0x1E68 DUP3 PUSH2 0x299A JUMP JUMPDEST JUMPDEST SWAP1 POP SWAP2 SWAP1 POP JUMP JUMPDEST PUSH0 PUSH2 0x1EC8 PUSH1 0x1 PUSH2 0x1E7E PUSH2 0x29FA JUMP JUMPDEST PUSH2 0x1E88 SWAP2 SWAP1 PUSH2 0x4278 JUMP JUMPDEST PUSH2 0x1E90 PUSH2 0x2210 JUMP JUMPDEST PUSH1 0xA PUSH2 0x1E9C SWAP2 SWAP1 PUSH2 0x4138 JUMP JUMPDEST PUSH1 0xE SLOAD PUSH1 0xD SLOAD PUSH2 0x1EAC SWAP2 SWAP1 PUSH2 0x4278 JUMP JUMPDEST PUSH2 0x1EB6 SWAP2 SWAP1 PUSH2 0x4278 JUMP JUMPDEST DUP5 DUP7 PUSH2 0x2A37 SWAP1 SWAP4 SWAP3 SWAP2 SWAP1 PUSH4 0xFFFFFFFF AND JUMP JUMPDEST SWAP1 POP SWAP3 SWAP2 POP POP JUMP JUMPDEST PUSH0 DUP1 PUSH2 0x1EDB DUP4 PUSH2 0x2A8C JUMP JUMPDEST SWAP1 POP PUSH0 PUSH20 0xFFFFFFFFFFFFFFFFFFFFFFFFFFFFFFFFFFFFFFFF AND DUP2 PUSH20 0xFFFFFFFFFFFFFFFFFFFFFFFFFFFFFFFFFFFFFFFF AND SUB PUSH2 0x1F4D JUMPI DUP3 PUSH1 0x40 MLOAD PUSH32 0x7E27328900000000000000000000000000000000000000000000000000000000 DUP2 MSTORE PUSH1 0x4 ADD PUSH2 0x1F44 SWAP2 SWAP1 PUSH2 0x3444 JUMP JUMPDEST PUSH1 0x40 MLOAD DUP1 SWAP2 SUB SWAP1 REVERT JUMPDEST DUP1 SWAP2 POP POP SWAP2 SWAP1 POP JUMP JUMPDEST PUSH0 PUSH1 0x4 PUSH0 DUP4 DUP2 MSTORE PUSH1 0x20 ADD SWAP1 DUP2 MSTORE PUSH1 0x20 ADD PUSH0 KECCAK256 PUSH0 SWAP1 SLOAD SWAP1 PUSH2 0x100 EXP SWAP1 DIV PUSH20 0xFFFFFFFFFFFFFFFFFFFFFFFFFFFFFFFFFFFFFFFF AND SWAP1 POP SWAP2 SWAP1 POP JUMP JUMPDEST PUSH0 CALLER SWAP1 POP SWAP1 JUMP JUMPDEST PUSH2 0x1FA3 DUP4 DUP4 DUP4 PUSH1 0x1 PUSH2 0x2AC5 JUMP JUMPDEST POP POP POP JUMP JUMPDEST PUSH0 PUSH2 0x1FF4 PUSH2 0x1FB4 PUSH2 0x2210 JUMP JUMPDEST PUSH1 0xA PUSH2 0x1FC0 SWAP2 SWAP1 PUSH2 0x4138 JUMP JUMPDEST PUSH1 0xE SLOAD PUSH1 0xD SLOAD PUSH2 0x1FD0 SWAP2 SWAP1 PUSH2 0x4278 JUMP JUMPDEST PUSH2 0x1FDA SWAP2 SWAP1 PUSH2 0x4278 JUMP JUMPDEST PUSH2 0x1FE2 PUSH2 0x29FA JUMP JUMPDEST DUP5 DUP7 PUSH2 0x2A37 SWAP1 SWAP4 SWAP3 SWAP2 SWAP1 PUSH4 0xFFFFFFFF AND JUMP JUMPDEST SWAP1 POP SWAP3 SWAP2 POP POP JUMP JUMPDEST PUSH0 DUP1 PUSH2 0x2007 DUP5 PUSH2 0x2A8C JUMP JUMPDEST SWAP1 POP PUSH0 PUSH20 0xFFFFFFFFFFFFFFFFFFFFFFFFFFFFFFFFFFFFFFFF AND DUP4 PUSH20 0xFFFFFFFFFFFFFFFFFFFFFFFFFFFFFFFFFFFFFFFF AND EQ PUSH2 0x2048 JUMPI PUSH2 0x2047 DUP2 DUP5 DUP7 PUSH2 0x2C84 JUMP JUMPDEST JUMPDEST PUSH0 PUSH20 0xFFFFFFFFFFFFFFFFFFFFFFFFFFFFFFFFFFFFFFFF AND DUP2 PUSH20 0xFFFFFFFFFFFFFFFFFFFFFFFFFFFFFFFFFFFFFFFF AND EQ PUSH2 0x20D3 JUMPI PUSH2 0x2087 PUSH0 DUP6 PUSH0 DUP1 PUSH2 0x2AC5 JUMP JUMPDEST PUSH1 0x1 PUSH1 0x3 PUSH0 DUP4 PUSH20 0xFFFFFFFFFFFFFFFFFFFFFFFFFFFFFFFFFFFFFFFF AND PUSH20 0xFFFFFFFFFFFFFFFFFFFFFFFFFFFFFFFFFFFFFFFF AND DUP2 MSTORE PUSH1 0x20 ADD SWAP1 DUP2 MSTORE PUSH1 0x20 ADD PUSH0 KECCAK256 PUSH0 DUP3 DUP3 SLOAD SUB SWAP3 POP POP DUP2 SWAP1 SSTORE POP JUMPDEST PUSH0 PUSH20 0xFFFFFFFFFFFFFFFFFFFFFFFFFFFFFFFFFFFFFFFF AND DUP6 PUSH20 0xFFFFFFFFFFFFFFFFFFFFFFFFFFFFFFFFFFFFFFFF AND EQ PUSH2 0x2152 JUMPI PUSH1 0x1 PUSH1 0x3 PUSH0 DUP8 PUSH20 0xFFFFFFFFFFFFFFFFFFFFFFFFFFFFFFFFFFFFFFFF AND PUSH20 0xFFFFFFFFFFFFFFFFFFFFFFFFFFFFFFFFFFFFFFFF AND DUP2 MSTORE PUSH1 0x20 ADD SWAP1 DUP2 MSTORE PUSH1 0x20 ADD PUSH0 KECCAK256 PUSH0 DUP3 DUP3 SLOAD ADD SWAP3 POP POP DUP2 SWAP1 SSTORE POP JUMPDEST DUP5 PUSH1 0x2 PUSH0 DUP7 DUP2 MSTORE PUSH1 0x20 ADD SWAP1 DUP2 MSTORE PUSH1 0x20 ADD PUSH0 KECCAK256 PUSH0 PUSH2 0x100 EXP DUP2 SLOAD DUP2 PUSH20 0xFFFFFFFFFFFFFFFFFFFFFFFFFFFFFFFFFFFFFFFF MUL NOT AND SWAP1 DUP4 PUSH20 0xFFFFFFFFFFFFFFFFFFFFFFFFFFFFFFFFFFFFFFFF AND MUL OR SWAP1 SSTORE POP DUP4 DUP6 PUSH20 0xFFFFFFFFFFFFFFFFFFFFFFFFFFFFFFFFFFFFFFFF AND DUP3 PUSH20 0xFFFFFFFFFFFFFFFFFFFFFFFFFFFFFFFFFFFFFFFF AND PUSH32 0xDDF252AD1BE2C89B69C2B068FC378DAA952BA7F163C4A11628F55A4DF523B3EF PUSH1 0x40 MLOAD PUSH1 0x40 MLOAD DUP1 SWAP2 SUB SWAP1 LOG4 DUP1 SWAP2 POP POP SWAP4 SWAP3 POP POP POP JUMP JUMPDEST PUSH0 PUSH2 0x2710 SWAP1 POP SWAP1 JUMP JUMPDEST PUSH0 PUSH1 0x8 SWAP1 POP SWAP1 JUMP JUMPDEST PUSH2 0x2220 PUSH2 0x1F8F JUMP JUMPDEST PUSH20 0xFFFFFFFFFFFFFFFFFFFFFFFFFFFFFFFFFFFFFFFF AND PUSH2 0x223E PUSH2 0x1740 JUMP JUMPDEST PUSH20 0xFFFFFFFFFFFFFFFFFFFFFFFFFFFFFFFFFFFFFFFF AND EQ PUSH2 0x229D JUMPI PUSH2 0x2261 PUSH2 0x1F8F JUMP JUMPDEST PUSH1 0x40 MLOAD PUSH32 0x118CDAA700000000000000000000000000000000000000000000000000000000 DUP2 MSTORE PUSH1 0x4 ADD PUSH2 0x2294 SWAP2 SWAP1 PUSH2 0x365F JUMP JUMPDEST PUSH1 0x40 MLOAD DUP1 SWAP2 SUB SWAP1 REVERT JUMPDEST JUMP JUMPDEST PUSH0 PUSH1 0x7 PUSH0 SWAP1 SLOAD SWAP1 PUSH2 0x100 EXP SWAP1 DIV PUSH20 0xFFFFFFFFFFFFFFFFFFFFFFFFFFFFFFFFFFFFFFFF AND SWAP1 POP DUP2 PUSH1 0x7 PUSH0 PUSH2 0x100 EXP DUP2 SLOAD DUP2 PUSH20 0xFFFFFFFFFFFFFFFFFFFFFFFFFFFFFFFFFFFFFFFF MUL NOT AND SWAP1 DUP4 PUSH20 0xFFFFFFFFFFFFFFFFFFFFFFFFFFFFFFFFFFFFFFFF AND MUL OR SWAP1 SSTORE POP DUP2 PUSH20 0xFFFFFFFFFFFFFFFFFFFFFFFFFFFFFFFFFFFFFFFF AND DUP2 PUSH20 0xFFFFFFFFFFFFFFFFFFFFFFFFFFFFFFFFFFFFFFFF AND PUSH32 0x8BE0079C531659141344CD1FD0A4F28419497F9722A3DAAFE3B4186F6B6457E0 PUSH1 0x40 MLOAD PUSH1 0x40 MLOAD DUP1 SWAP2 SUB SWAP1 LOG3 POP POP JUMP JUMPDEST PUSH0 PUSH2 0x236B PUSH2 0x2207 JUMP JUMPDEST PUSH12 0xFFFFFFFFFFFFFFFFFFFFFFFF AND SWAP1 POP DUP1 DUP3 PUSH12 0xFFFFFFFFFFFFFFFFFFFFFFFF AND GT ISZERO PUSH2 0x23D0 JUMPI DUP2 DUP2 PUSH1 0x40 MLOAD PUSH32 0x6F483D0900000000000000000000000000000000000000000000000000000000 DUP2 MSTORE PUSH1 0x4 ADD PUSH2 0x23C7 SWAP3 SWAP2 SWAP1 PUSH2 0x434C JUMP JUMPDEST PUSH1 0x40 MLOAD DUP1 SWAP2 SUB SWAP1 REVERT JUMPDEST PUSH0 PUSH20 0xFFFFFFFFFFFFFFFFFFFFFFFFFFFFFFFFFFFFFFFF AND DUP4 PUSH20 0xFFFFFFFFFFFFFFFFFFFFFFFFFFFFFFFFFFFFFFFF AND SUB PUSH2 0x2440 JUMPI PUSH0 PUSH1 0x40 MLOAD PUSH32 0xB6D9900A00000000000000000000000000000000000000000000000000000000 DUP2 MSTORE PUSH1 0x4 ADD PUSH2 0x2437 SWAP2 SWAP1 PUSH2 0x365F JUMP JUMPDEST PUSH1 0x40 MLOAD DUP1 SWAP2 SUB SWAP1 REVERT JUMPDEST PUSH1 0x40 MLOAD DUP1 PUSH1 0x40 ADD PUSH1 0x40 MSTORE DUP1 DUP5 PUSH20 0xFFFFFFFFFFFFFFFFFFFFFFFFFFFFFFFFFFFFFFFF AND DUP2 MSTORE PUSH1 0x20 ADD DUP4 PUSH12 0xFFFFFFFFFFFFFFFFFFFFFFFF AND DUP2 MSTORE POP PUSH1 0x8 PUSH0 DUP3 ADD MLOAD DUP2 PUSH0 ADD PUSH0 PUSH2 0x100 EXP DUP2 SLOAD DUP2 PUSH20 0xFFFFFFFFFFFFFFFFFFFFFFFFFFFFFFFFFFFFFFFF MUL NOT AND SWAP1 DUP4 PUSH20 0xFFFFFFFFFFFFFFFFFFFFFFFFFFFFFFFFFFFFFFFF AND MUL OR SWAP1 SSTORE POP PUSH1 0x20 DUP3 ADD MLOAD DUP2 PUSH0 ADD PUSH1 0x14 PUSH2 0x100 EXP DUP2 SLOAD DUP2 PUSH12 0xFFFFFFFFFFFFFFFFFFFFFFFF MUL NOT AND SWAP1 DUP4 PUSH12 0xFFFFFFFFFFFFFFFFFFFFFFFF AND MUL OR SWAP1 SSTORE POP SWAP1 POP POP POP POP POP JUMP JUMPDEST PUSH0 PUSH20 0xFFFFFFFFFFFFFFFFFFFFFFFFFFFFFFFFFFFFFFFF AND DUP3 PUSH20 0xFFFFFFFFFFFFFFFFFFFFFFFFFFFFFFFFFFFFFFFF AND SUB PUSH2 0x256D JUMPI DUP2 PUSH1 0x40 MLOAD PUSH32 0x5B08BA1800000000000000000000000000000000000000000000000000000000 DUP2 MSTORE PUSH1 0x4 ADD PUSH2 0x2564 SWAP2 SWAP1 PUSH2 0x365F JUMP JUMPDEST PUSH1 0x40 MLOAD DUP1 SWAP2 SUB SWAP1 REVERT JUMPDEST DUP1 PUSH1 0x5 PUSH0 DUP6 PUSH20 0xFFFFFFFFFFFFFFFFFFFFFFFFFFFFFFFFFFFFFFFF AND PUSH20 0xFFFFFFFFFFFFFFFFFFFFFFFFFFFFFFFFFFFFFFFF AND DUP2 MSTORE PUSH1 0x20 ADD SWAP1 DUP2 MSTORE PUSH1 0x20 ADD PUSH0 KECCAK256 PUSH0 DUP5 PUSH20 0xFFFFFFFFFFFFFFFFFFFFFFFFFFFFFFFFFFFFFFFF AND PUSH20 0xFFFFFFFFFFFFFFFFFFFFFFFFFFFFFFFFFFFFFFFF AND DUP2 MSTORE PUSH1 0x20 ADD SWAP1 DUP2 MSTORE PUSH1 0x20 ADD PUSH0 KECCAK256 PUSH0 PUSH2 0x100 EXP DUP2 SLOAD DUP2 PUSH1 0xFF MUL NOT AND SWAP1 DUP4 ISZERO ISZERO MUL OR SWAP1 SSTORE POP DUP2 PUSH20 0xFFFFFFFFFFFFFFFFFFFFFFFFFFFFFFFFFFFFFFFF AND DUP4 PUSH20 0xFFFFFFFFFFFFFFFFFFFFFFFFFFFFFFFFFFFFFFFF AND PUSH32 0x17307EAB39AB6107E8899845AD3D59BD9653F200F220920489CA2B5937696C31 DUP4 PUSH1 0x40 MLOAD PUSH2 0x2659 SWAP2 SWAP1 PUSH2 0x3508 JUMP JUMPDEST PUSH1 0x40 MLOAD DUP1 SWAP2 SUB SWAP1 LOG3 POP POP POP JUMP JUMPDEST PUSH0 DUP4 PUSH20 0xFFFFFFFFFFFFFFFFFFFFFFFFFFFFFFFFFFFFFFFF AND EXTCODESIZE GT ISZERO PUSH2 0x2812 JUMPI DUP3 PUSH20 0xFFFFFFFFFFFFFFFFFFFFFFFFFFFFFFFFFFFFFFFF AND PUSH4 0x150B7A02 PUSH2 0x26A9 PUSH2 0x1F8F JUMP JUMPDEST DUP7 DUP6 DUP6 PUSH1 0x40 MLOAD DUP6 PUSH4 0xFFFFFFFF AND PUSH1 0xE0 SHL DUP2 MSTORE PUSH1 0x4 ADD PUSH2 0x26CB SWAP5 SWAP4 SWAP3 SWAP2 SWAP1 PUSH2 0x43C5 JUMP JUMPDEST PUSH1 0x20 PUSH1 0x40 MLOAD DUP1 DUP4 SUB DUP2 PUSH0 DUP8 GAS CALL SWAP3 POP POP POP DUP1 ISZERO PUSH2 0x2706 JUMPI POP PUSH1 0x40 MLOAD RETURNDATASIZE PUSH1 0x1F NOT PUSH1 0x1F DUP3 ADD AND DUP3 ADD DUP1 PUSH1 0x40 MSTORE POP DUP2 ADD SWAP1 PUSH2 0x2703 SWAP2 SWAP1 PUSH2 0x4423 JUMP JUMPDEST PUSH1 0x1 JUMPDEST PUSH2 0x2787 JUMPI RETURNDATASIZE DUP1 PUSH0 DUP2 EQ PUSH2 0x2734 JUMPI PUSH1 0x40 MLOAD SWAP2 POP PUSH1 0x1F NOT PUSH1 0x3F RETURNDATASIZE ADD AND DUP3 ADD PUSH1 0x40 MSTORE RETURNDATASIZE DUP3 MSTORE RETURNDATASIZE PUSH0 PUSH1 0x20 DUP5 ADD RETURNDATACOPY PUSH2 0x2739 JUMP JUMPDEST PUSH1 0x60 SWAP2 POP JUMPDEST POP PUSH0 DUP2 MLOAD SUB PUSH2 0x277F JUMPI DUP4 PUSH1 0x40 MLOAD PUSH32 0x64A0AE9200000000000000000000000000000000000000000000000000000000 DUP2 MSTORE PUSH1 0x4 ADD PUSH2 0x2776 SWAP2 SWAP1 PUSH2 0x365F JUMP JUMPDEST PUSH1 0x40 MLOAD DUP1 SWAP2 SUB SWAP1 REVERT JUMPDEST DUP1 MLOAD DUP2 PUSH1 0x20 ADD REVERT JUMPDEST PUSH4 0x150B7A02 PUSH1 0xE0 SHL PUSH28 0xFFFFFFFFFFFFFFFFFFFFFFFFFFFFFFFFFFFFFFFFFFFFFFFFFFFFFFFF NOT AND DUP2 PUSH28 0xFFFFFFFFFFFFFFFFFFFFFFFFFFFFFFFFFFFFFFFFFFFFFFFFFFFFFFFF NOT AND EQ PUSH2 0x2810 JUMPI DUP4 PUSH1 0x40 MLOAD PUSH32 0x64A0AE9200000000000000000000000000000000000000000000000000000000 DUP2 MSTORE PUSH1 0x4 ADD PUSH2 0x2807 SWAP2 SWAP1 PUSH2 0x365F JUMP JUMPDEST PUSH1 0x40 MLOAD DUP1 SWAP2 SUB SWAP1 REVERT JUMPDEST POP JUMPDEST POP POP POP POP JUMP JUMPDEST PUSH1 0x60 PUSH2 0x2823 DUP3 PUSH2 0x1ED0 JUMP JUMPDEST POP PUSH0 PUSH1 0x6 PUSH0 DUP5 DUP2 MSTORE PUSH1 0x20 ADD SWAP1 DUP2 MSTORE PUSH1 0x20 ADD PUSH0 KECCAK256 DUP1 SLOAD PUSH2 0x2841 SWAP1 PUSH2 0x3C77 JUMP JUMPDEST DUP1 PUSH1 0x1F ADD PUSH1 0x20 DUP1 SWAP2 DIV MUL PUSH1 0x20 ADD PUSH1 0x40 MLOAD SWAP1 DUP2 ADD PUSH1 0x40 MSTORE DUP1 SWAP3 SWAP2 SWAP1 DUP2 DUP2 MSTORE PUSH1 0x20 ADD DUP3 DUP1 SLOAD PUSH2 0x286D SWAP1 PUSH2 0x3C77 JUMP JUMPDEST DUP1 ISZERO PUSH2 0x28B8 JUMPI DUP1 PUSH1 0x1F LT PUSH2 0x288F JUMPI PUSH2 0x100 DUP1 DUP4 SLOAD DIV MUL DUP4 MSTORE SWAP2 PUSH1 0x20 ADD SWAP2 PUSH2 0x28B8 JUMP JUMPDEST DUP3 ADD SWAP2 SWAP1 PUSH0 MSTORE PUSH1 0x20 PUSH0 KECCAK256 SWAP1 JUMPDEST DUP2 SLOAD DUP2 MSTORE SWAP1 PUSH1 0x1 ADD SWAP1 PUSH1 0x20 ADD DUP1 DUP4 GT PUSH2 0x289B JUMPI DUP3 SWAP1 SUB PUSH1 0x1F AND DUP3 ADD SWAP2 JUMPDEST POP POP POP POP POP SWAP1 POP PUSH0 PUSH2 0x28C8 PUSH2 0x2D47 JUMP JUMPDEST SWAP1 POP PUSH0 DUP2 MLOAD SUB PUSH2 0x28DC JUMPI DUP2 SWAP3 POP POP POP PUSH2 0x291E JUMP JUMPDEST PUSH0 DUP3 MLOAD GT ISZERO PUSH2 0x2910 JUMPI DUP1 DUP3 PUSH1 0x40 MLOAD PUSH1 0x20 ADD PUSH2 0x28F8 SWAP3 SWAP2 SWAP1 PUSH2 0x4488 JUMP JUMPDEST PUSH1 0x40 MLOAD PUSH1 0x20 DUP2 DUP4 SUB SUB DUP2 MSTORE SWAP1 PUSH1 0x40 MSTORE SWAP3 POP POP POP PUSH2 0x291E JUMP JUMPDEST PUSH2 0x2919 DUP5 PUSH2 0x2D67 JUMP JUMPDEST SWAP3 POP POP POP JUMPDEST SWAP2 SWAP1 POP JUMP JUMPDEST PUSH2 0x293C DUP3 DUP3 PUSH1 0x40 MLOAD DUP1 PUSH1 0x20 ADD PUSH1 0x40 MSTORE DUP1 PUSH0 DUP2 MSTORE POP PUSH2 0x2DCD JUMP JUMPDEST POP POP JUMP JUMPDEST DUP1 PUSH1 0x6 PUSH0 DUP5 DUP2 MSTORE PUSH1 0x20 ADD SWAP1 DUP2 MSTORE PUSH1 0x20 ADD PUSH0 KECCAK256 SWAP1 DUP2 PUSH2 0x295E SWAP2 SWAP1 PUSH2 0x463F JUMP JUMPDEST POP PUSH32 0xF8E1A15ABA9398E019F0B49DF1A4FDE98EE17AE345CB5F6B5E2C27F5033E8CE7 DUP3 PUSH1 0x40 MLOAD PUSH2 0x298E SWAP2 SWAP1 PUSH2 0x3444 JUMP JUMPDEST PUSH1 0x40 MLOAD DUP1 SWAP2 SUB SWAP1 LOG1 POP POP JUMP JUMPDEST PUSH0 PUSH4 0x49064906 PUSH1 0xE0 SHL PUSH28 0xFFFFFFFFFFFFFFFFFFFFFFFFFFFFFFFFFFFFFFFFFFFFFFFFFFFFFFFF NOT AND DUP3 PUSH28 0xFFFFFFFFFFFFFFFFFFFFFFFFFFFFFFFFFFFFFFFFFFFFFFFFFFFFFFFF NOT AND EQ DUP1 PUSH2 0x29F3 JUMPI POP PUSH2 0x29F2 DUP3 PUSH2 0x2DE8 JUMP JUMPDEST JUMPDEST SWAP1 POP SWAP2 SWAP1 POP JUMP JUMPDEST PUSH0 PUSH1 0x1 PUSH2 0x2A05 PUSH2 0x2210 JUMP JUMPDEST PUSH2 0x2A0F SWAP2 SWAP1 PUSH2 0x470E JUMP JUMPDEST PUSH1 0xA PUSH2 0x2A1B SWAP2 SWAP1 PUSH2 0x4138 JUMP JUMPDEST PUSH1 0x1 PUSH2 0x2A27 SWAP2 SWAP1 PUSH2 0x3F03 JUMP JUMPDEST SELFBALANCE PUSH2 0x2A32 SWAP2 SWAP1 PUSH2 0x4278 JUMP JUMPDEST SWAP1 POP SWAP1 JUMP JUMPDEST PUSH0 DUP1 PUSH2 0x2A44 DUP7 DUP7 DUP7 PUSH2 0x2EC9 JUMP JUMPDEST SWAP1 POP PUSH2 0x2A4F DUP4 PUSH2 0x2FC8 JUMP JUMPDEST DUP1 ISZERO PUSH2 0x2A6B JUMPI POP PUSH0 DUP5 DUP1 PUSH2 0x2A66 JUMPI PUSH2 0x2A65 PUSH2 0x3F44 JUMP JUMPDEST JUMPDEST DUP7 DUP9 MULMOD GT JUMPDEST ISZERO PUSH2 0x2A80 JUMPI PUSH1 0x1 DUP2 PUSH2 0x2A7D SWAP2 SWAP1 PUSH2 0x4278 JUMP JUMPDEST SWAP1 POP JUMPDEST DUP1 SWAP2 POP POP SWAP5 SWAP4 POP POP POP POP JUMP JUMPDEST PUSH0 PUSH1 0x2 PUSH0 DUP4 DUP2 MSTORE PUSH1 0x20 ADD SWAP1 DUP2 MSTORE PUSH1 0x20 ADD PUSH0 KECCAK256 PUSH0 SWAP1 SLOAD SWAP1 PUSH2 0x100 EXP SWAP1 DIV PUSH20 0xFFFFFFFFFFFFFFFFFFFFFFFFFFFFFFFFFFFFFFFF AND SWAP1 POP SWAP2 SWAP1 POP JUMP JUMPDEST DUP1 DUP1 PUSH2 0x2AFD JUMPI POP PUSH0 PUSH20 0xFFFFFFFFFFFFFFFFFFFFFFFFFFFFFFFFFFFFFFFF AND DUP3 PUSH20 0xFFFFFFFFFFFFFFFFFFFFFFFFFFFFFFFFFFFFFFFF AND EQ ISZERO JUMPDEST ISZERO PUSH2 0x2C2F JUMPI PUSH0 PUSH2 0x2B0C DUP5 PUSH2 0x1ED0 JUMP JUMPDEST SWAP1 POP PUSH0 PUSH20 0xFFFFFFFFFFFFFFFFFFFFFFFFFFFFFFFFFFFFFFFF AND DUP4 PUSH20 0xFFFFFFFFFFFFFFFFFFFFFFFFFFFFFFFFFFFFFFFF AND EQ ISZERO DUP1 ISZERO PUSH2 0x2B76 JUMPI POP DUP3 PUSH20 0xFFFFFFFFFFFFFFFFFFFFFFFFFFFFFFFFFFFFFFFF AND DUP2 PUSH20 0xFFFFFFFFFFFFFFFFFFFFFFFFFFFFFFFFFFFFFFFF AND EQ ISZERO JUMPDEST DUP1 ISZERO PUSH2 0x2B89 JUMPI POP PUSH2 0x2B87 DUP2 DUP5 PUSH2 0x1CC1 JUMP JUMPDEST ISZERO JUMPDEST ISZERO PUSH2 0x2BCB JUMPI DUP3 PUSH1 0x40 MLOAD PUSH32 0xA9FBF51F00000000000000000000000000000000000000000000000000000000 DUP2 MSTORE PUSH1 0x4 ADD PUSH2 0x2BC2 SWAP2 SWAP1 PUSH2 0x365F JUMP JUMPDEST PUSH1 0x40 MLOAD DUP1 SWAP2 SUB SWAP1 REVERT JUMPDEST DUP2 ISZERO PUSH2 0x2C2D JUMPI DUP4 DUP6 PUSH20 0xFFFFFFFFFFFFFFFFFFFFFFFFFFFFFFFFFFFFFFFF AND DUP3 PUSH20 0xFFFFFFFFFFFFFFFFFFFFFFFFFFFFFFFFFFFFFFFF AND PUSH32 0x8C5BE1E5EBEC7D5BD14F71427D1E84F3DD0314C0F7B2291E5B200AC8C7C3B925 PUSH1 0x40 MLOAD PUSH1 0x40 MLOAD DUP1 SWAP2 SUB SWAP1 LOG4 JUMPDEST POP JUMPDEST DUP4 PUSH1 0x4 PUSH0 DUP6 DUP2 MSTORE PUSH1 0x20 ADD SWAP1 DUP2 MSTORE PUSH1 0x20 ADD PUSH0 KECCAK256 PUSH0 PUSH2 0x100 EXP DUP2 SLOAD DUP2 PUSH20 0xFFFFFFFFFFFFFFFFFFFFFFFFFFFFFFFFFFFFFFFF MUL NOT AND SWAP1 DUP4 PUSH20 0xFFFFFFFFFFFFFFFFFFFFFFFFFFFFFFFFFFFFFFFF AND MUL OR SWAP1 SSTORE POP POP POP POP POP JUMP JUMPDEST PUSH2 0x2C8F DUP4 DUP4 DUP4 PUSH2 0x2FF5 JUMP JUMPDEST PUSH2 0x2D42 JUMPI PUSH0 PUSH20 0xFFFFFFFFFFFFFFFFFFFFFFFFFFFFFFFFFFFFFFFF AND DUP4 PUSH20 0xFFFFFFFFFFFFFFFFFFFFFFFFFFFFFFFFFFFFFFFF AND SUB PUSH2 0x2D03 JUMPI DUP1 PUSH1 0x40 MLOAD PUSH32 0x7E27328900000000000000000000000000000000000000000000000000000000 DUP2 MSTORE PUSH1 0x4 ADD PUSH2 0x2CFA SWAP2 SWAP1 PUSH2 0x3444 JUMP JUMPDEST PUSH1 0x40 MLOAD DUP1 SWAP2 SUB SWAP1 REVERT JUMPDEST DUP2 DUP2 PUSH1 0x40 MLOAD PUSH32 0x177E802F00000000000000000000000000000000000000000000000000000000 DUP2 MSTORE PUSH1 0x4 ADD PUSH2 0x2D39 SWAP3 SWAP2 SWAP1 PUSH2 0x37BE JUMP JUMPDEST PUSH1 0x40 MLOAD DUP1 SWAP2 SUB SWAP1 REVERT JUMPDEST POP POP POP JUMP JUMPDEST PUSH1 0x60 PUSH1 0x40 MLOAD DUP1 PUSH1 0x80 ADD PUSH1 0x40 MSTORE DUP1 PUSH1 0x42 DUP2 MSTORE PUSH1 0x20 ADD PUSH2 0x47A0 PUSH1 0x42 SWAP2 CODECOPY SWAP1 POP SWAP1 JUMP JUMPDEST PUSH1 0x60 PUSH2 0x2D72 DUP3 PUSH2 0x1ED0 JUMP JUMPDEST POP PUSH0 PUSH2 0x2D7C PUSH2 0x2D47 JUMP JUMPDEST SWAP1 POP PUSH0 DUP2 MLOAD GT PUSH2 0x2D9A JUMPI PUSH1 0x40 MLOAD DUP1 PUSH1 0x20 ADD PUSH1 0x40 MSTORE DUP1 PUSH0 DUP2 MSTORE POP PUSH2 0x2DC5 JUMP JUMPDEST DUP1 PUSH2 0x2DA4 DUP5 PUSH2 0x30B5 JUMP JUMPDEST PUSH1 0x40 MLOAD PUSH1 0x20 ADD PUSH2 0x2DB5 SWAP3 SWAP2 SWAP1 PUSH2 0x4488 JUMP JUMPDEST PUSH1 0x40 MLOAD PUSH1 0x20 DUP2 DUP4 SUB SUB DUP2 MSTORE SWAP1 PUSH1 0x40 MSTORE JUMPDEST SWAP2 POP POP SWAP2 SWAP1 POP JUMP JUMPDEST PUSH2 0x2DD7 DUP4 DUP4 PUSH2 0x317F JUMP JUMPDEST PUSH2 0x2DE3 PUSH0 DUP5 DUP5 DUP5 PUSH2 0x2666 JUMP JUMPDEST POP POP POP JUMP JUMPDEST PUSH0 PUSH32 0x80AC58CD00000000000000000000000000000000000000000000000000000000 PUSH28 0xFFFFFFFFFFFFFFFFFFFFFFFFFFFFFFFFFFFFFFFFFFFFFFFFFFFFFFFF NOT AND DUP3 PUSH28 0xFFFFFFFFFFFFFFFFFFFFFFFFFFFFFFFFFFFFFFFFFFFFFFFFFFFFFFFF NOT AND EQ DUP1 PUSH2 0x2EB2 JUMPI POP PUSH32 0x5B5E139F00000000000000000000000000000000000000000000000000000000 PUSH28 0xFFFFFFFFFFFFFFFFFFFFFFFFFFFFFFFFFFFFFFFFFFFFFFFFFFFFFFFF NOT AND DUP3 PUSH28 0xFFFFFFFFFFFFFFFFFFFFFFFFFFFFFFFFFFFFFFFFFFFFFFFFFFFFFFFF NOT AND EQ JUMPDEST DUP1 PUSH2 0x2EC2 JUMPI POP PUSH2 0x2EC1 DUP3 PUSH2 0x3272 JUMP JUMPDEST JUMPDEST SWAP1 POP SWAP2 SWAP1 POP JUMP JUMPDEST PUSH0 DUP1 DUP4 DUP6 MUL SWAP1 POP PUSH0 DUP1 NOT DUP6 DUP8 MULMOD DUP3 DUP2 LT DUP4 DUP3 SUB SUB SWAP2 POP POP PUSH0 DUP2 SUB PUSH2 0x2F01 JUMPI DUP4 DUP3 DUP2 PUSH2 0x2EF7 JUMPI PUSH2 0x2EF6 PUSH2 0x3F44 JUMP JUMPDEST JUMPDEST DIV SWAP3 POP POP POP PUSH2 0x2FC1 JUMP JUMPDEST DUP1 DUP5 GT PUSH2 0x2F3A JUMPI PUSH1 0x40 MLOAD PUSH32 0x227BC15300000000000000000000000000000000000000000000000000000000 DUP2 MSTORE PUSH1 0x4 ADD PUSH1 0x40 MLOAD DUP1 SWAP2 SUB SWAP1 REVERT JUMPDEST PUSH0 DUP5 DUP7 DUP9 MULMOD SWAP1 POP DUP3 DUP2 GT DUP3 SUB SWAP2 POP DUP1 DUP4 SUB SWAP3 POP PUSH0 DUP6 PUSH0 SUB DUP7 AND SWAP1 POP DUP1 DUP7 DIV SWAP6 POP DUP1 DUP5 DIV SWAP4 POP PUSH1 0x1 DUP2 DUP3 PUSH0 SUB DIV ADD SWAP1 POP DUP1 DUP4 MUL DUP5 OR SWAP4 POP PUSH0 PUSH1 0x2 DUP8 PUSH1 0x3 MUL XOR SWAP1 POP DUP1 DUP8 MUL PUSH1 0x2 SUB DUP2 MUL SWAP1 POP DUP1 DUP8 MUL PUSH1 0x2 SUB DUP2 MUL SWAP1 POP DUP1 DUP8 MUL PUSH1 0x2 SUB DUP2 MUL SWAP1 POP DUP1 DUP8 MUL PUSH1 0x2 SUB DUP2 MUL SWAP1 POP DUP1 DUP8 MUL PUSH1 0x2 SUB DUP2 MUL SWAP1 POP DUP1 DUP8 MUL PUSH1 0x2 SUB DUP2 MUL SWAP1 POP DUP1 DUP6 MUL SWAP6 POP POP POP POP POP POP JUMPDEST SWAP4 SWAP3 POP POP POP JUMP JUMPDEST PUSH0 PUSH1 0x1 PUSH1 0x2 DUP4 PUSH1 0x3 DUP2 GT ISZERO PUSH2 0x2FE0 JUMPI PUSH2 0x2FDF PUSH2 0x4742 JUMP JUMPDEST JUMPDEST PUSH2 0x2FEA SWAP2 SWAP1 PUSH2 0x476F JUMP JUMPDEST PUSH1 0xFF AND EQ SWAP1 POP SWAP2 SWAP1 POP JUMP JUMPDEST PUSH0 DUP1 PUSH20 0xFFFFFFFFFFFFFFFFFFFFFFFFFFFFFFFFFFFFFFFF AND DUP4 PUSH20 0xFFFFFFFFFFFFFFFFFFFFFFFFFFFFFFFFFFFFFFFF AND EQ ISZERO DUP1 ISZERO PUSH2 0x30AC JUMPI POP DUP3 PUSH20 0xFFFFFFFFFFFFFFFFFFFFFFFFFFFFFFFFFFFFFFFF AND DUP5 PUSH20 0xFFFFFFFFFFFFFFFFFFFFFFFFFFFFFFFFFFFFFFFF AND EQ DUP1 PUSH2 0x306D JUMPI POP PUSH2 0x306C DUP5 DUP5 PUSH2 0x1CC1 JUMP JUMPDEST JUMPDEST DUP1 PUSH2 0x30AB JUMPI POP DUP3 PUSH20 0xFFFFFFFFFFFFFFFFFFFFFFFFFFFFFFFFFFFFFFFF AND PUSH2 0x3093 DUP4 PUSH2 0x1F56 JUMP JUMPDEST PUSH20 0xFFFFFFFFFFFFFFFFFFFFFFFFFFFFFFFFFFFFFFFF AND EQ JUMPDEST JUMPDEST SWAP1 POP SWAP4 SWAP3 POP POP POP JUMP JUMPDEST PUSH1 0x60 PUSH0 PUSH1 0x1 PUSH2 0x30C3 DUP5 PUSH2 0x32DB JUMP JUMPDEST ADD SWAP1 POP PUSH0 DUP2 PUSH8 0xFFFFFFFFFFFFFFFF DUP2 GT ISZERO PUSH2 0x30E1 JUMPI PUSH2 0x30E0 PUSH2 0x395E JUMP JUMPDEST JUMPDEST PUSH1 0x40 MLOAD SWAP1 DUP1 DUP3 MSTORE DUP1 PUSH1 0x1F ADD PUSH1 0x1F NOT AND PUSH1 0x20 ADD DUP3 ADD PUSH1 0x40 MSTORE DUP1 ISZERO PUSH2 0x3113 JUMPI DUP2 PUSH1 0x20 ADD PUSH1 0x1 DUP3 MUL DUP1 CALLDATASIZE DUP4 CALLDATACOPY DUP1 DUP3 ADD SWAP2 POP POP SWAP1 POP JUMPDEST POP SWAP1 POP PUSH0 DUP3 PUSH1 0x20 ADD DUP3 ADD SWAP1 POP JUMPDEST PUSH1 0x1 ISZERO PUSH2 0x3174 JUMPI DUP1 DUP1 PUSH1 0x1 SWAP1 SUB SWAP2 POP POP PUSH32 0x3031323334353637383961626364656600000000000000000000000000000000 PUSH1 0xA DUP7 MOD BYTE DUP2 MSTORE8 PUSH1 0xA DUP6 DUP2 PUSH2 0x3169 JUMPI PUSH2 0x3168 PUSH2 0x3F44 JUMP JUMPDEST JUMPDEST DIV SWAP5 POP PUSH0 DUP6 SUB PUSH2 0x3120 JUMPI JUMPDEST DUP2 SWAP4 POP POP POP POP SWAP2 SWAP1 POP JUMP JUMPDEST PUSH0 PUSH20 0xFFFFFFFFFFFFFFFFFFFFFFFFFFFFFFFFFFFFFFFF AND DUP3 PUSH20 0xFFFFFFFFFFFFFFFFFFFFFFFFFFFFFFFFFFFFFFFF AND SUB PUSH2 0x31EF JUMPI PUSH0 PUSH1 0x40 MLOAD PUSH32 0x64A0AE9200000000000000000000000000000000000000000000000000000000 DUP2 MSTORE PUSH1 0x4 ADD PUSH2 0x31E6 SWAP2 SWAP1 PUSH2 0x365F JUMP JUMPDEST PUSH1 0x40 MLOAD DUP1 SWAP2 SUB SWAP1 REVERT JUMPDEST PUSH0 PUSH2 0x31FB DUP4 DUP4 PUSH0 PUSH2 0x1FFC JUMP JUMPDEST SWAP1 POP PUSH0 PUSH20 0xFFFFFFFFFFFFFFFFFFFFFFFFFFFFFFFFFFFFFFFF AND DUP2 PUSH20 0xFFFFFFFFFFFFFFFFFFFFFFFFFFFFFFFFFFFFFFFF AND EQ PUSH2 0x326D JUMPI PUSH0 PUSH1 0x40 MLOAD PUSH32 0x73C6AC6E00000000000000000000000000000000000000000000000000000000 DUP2 MSTORE PUSH1 0x4 ADD PUSH2 0x3264 SWAP2 SWAP1 PUSH2 0x365F JUMP JUMPDEST PUSH1 0x40 MLOAD DUP1 SWAP2 SUB SWAP1 REVERT JUMPDEST POP POP POP JUMP JUMPDEST PUSH0 PUSH32 0x1FFC9A700000000000000000000000000000000000000000000000000000000 PUSH28 0xFFFFFFFFFFFFFFFFFFFFFFFFFFFFFFFFFFFFFFFFFFFFFFFFFFFFFFFF NOT AND DUP3 PUSH28 0xFFFFFFFFFFFFFFFFFFFFFFFFFFFFFFFFFFFFFFFFFFFFFFFFFFFFFFFF NOT AND EQ SWAP1 POP SWAP2 SWAP1 POP JUMP JUMPDEST PUSH0 DUP1 PUSH0 SWAP1 POP PUSH27 0x184F03E93FF9F4DAA797ED6E38ED64BF6A1F010000000000000000 DUP4 LT PUSH2 0x3337 JUMPI PUSH27 0x184F03E93FF9F4DAA797ED6E38ED64BF6A1F010000000000000000 DUP4 DUP2 PUSH2 0x332D JUMPI PUSH2 0x332C PUSH2 0x3F44 JUMP JUMPDEST JUMPDEST DIV SWAP3 POP PUSH1 0x40 DUP2 ADD SWAP1 POP JUMPDEST PUSH14 0x4EE2D6D415B85ACEF8100000000 DUP4 LT PUSH2 0x3374 JUMPI PUSH14 0x4EE2D6D415B85ACEF8100000000 DUP4 DUP2 PUSH2 0x336A JUMPI PUSH2 0x3369 PUSH2 0x3F44 JUMP JUMPDEST JUMPDEST DIV SWAP3 POP PUSH1 0x20 DUP2 ADD SWAP1 POP JUMPDEST PUSH7 0x2386F26FC10000 DUP4 LT PUSH2 0x33A3 JUMPI PUSH7 0x2386F26FC10000 DUP4 DUP2 PUSH2 0x3399 JUMPI PUSH2 0x3398 PUSH2 0x3F44 JUMP JUMPDEST JUMPDEST DIV SWAP3 POP PUSH1 0x10 DUP2 ADD SWAP1 POP JUMPDEST PUSH4 0x5F5E100 DUP4 LT PUSH2 0x33CC JUMPI PUSH4 0x5F5E100 DUP4 DUP2 PUSH2 0x33C2 JUMPI PUSH2 0x33C1 PUSH2 0x3F44 JUMP JUMPDEST JUMPDEST DIV SWAP3 POP PUSH1 0x8 DUP2 ADD SWAP1 POP JUMPDEST PUSH2 0x2710 DUP4 LT PUSH2 0x33F1 JUMPI PUSH2 0x2710 DUP4 DUP2 PUSH2 0x33E7 JUMPI PUSH2 0x33E6 PUSH2 0x3F44 JUMP JUMPDEST JUMPDEST DIV SWAP3 POP PUSH1 0x4 DUP2 ADD SWAP1 POP JUMPDEST PUSH1 0x64 DUP4 LT PUSH2 0x3414 JUMPI PUSH1 0x64 DUP4 DUP2 PUSH2 0x340A JUMPI PUSH2 0x3409 PUSH2 0x3F44 JUMP JUMPDEST JUMPDEST DIV SWAP3 POP PUSH1 0x2 DUP2 ADD SWAP1 POP JUMPDEST PUSH1 0xA DUP4 LT PUSH2 0x3423 JUMPI PUSH1 0x1 DUP2 ADD SWAP1 POP JUMPDEST DUP1 SWAP2 POP POP SWAP2 SWAP1 POP JUMP JUMPDEST PUSH0 DUP2 SWAP1 POP SWAP2 SWAP1 POP JUMP JUMPDEST PUSH2 0x343E DUP2 PUSH2 0x342C JUMP JUMPDEST DUP3 MSTORE POP POP JUMP JUMPDEST PUSH0 PUSH1 0x20 DUP3 ADD SWAP1 POP PUSH2 0x3457 PUSH0 DUP4 ADD DUP5 PUSH2 0x3435 JUMP JUMPDEST SWAP3 SWAP2 POP POP JUMP JUMPDEST PUSH0 PUSH1 0x40 MLOAD SWAP1 POP SWAP1 JUMP JUMPDEST PUSH0 DUP1 REVERT JUMPDEST PUSH0 DUP1 REVERT JUMPDEST PUSH0 PUSH32 0xFFFFFFFF00000000000000000000000000000000000000000000000000000000 DUP3 AND SWAP1 POP SWAP2 SWAP1 POP JUMP JUMPDEST PUSH2 0x34A2 DUP2 PUSH2 0x346E JUMP JUMPDEST DUP2 EQ PUSH2 0x34AC JUMPI PUSH0 DUP1 REVERT JUMPDEST POP JUMP JUMPDEST PUSH0 DUP2 CALLDATALOAD SWAP1 POP PUSH2 0x34BD DUP2 PUSH2 0x3499 JUMP JUMPDEST SWAP3 SWAP2 POP POP JUMP JUMPDEST PUSH0 PUSH1 0x20 DUP3 DUP5 SUB SLT ISZERO PUSH2 0x34D8 JUMPI PUSH2 0x34D7 PUSH2 0x3466 JUMP JUMPDEST JUMPDEST PUSH0 PUSH2 0x34E5 DUP5 DUP3 DUP6 ADD PUSH2 0x34AF JUMP JUMPDEST SWAP2 POP POP SWAP3 SWAP2 POP POP JUMP JUMPDEST PUSH0 DUP2 ISZERO ISZERO SWAP1 POP SWAP2 SWAP1 POP JUMP JUMPDEST PUSH2 0x3502 DUP2 PUSH2 0x34EE JUMP JUMPDEST DUP3 MSTORE POP POP JUMP JUMPDEST PUSH0 PUSH1 0x20 DUP3 ADD SWAP1 POP PUSH2 0x351B PUSH0 DUP4 ADD DUP5 PUSH2 0x34F9 JUMP JUMPDEST SWAP3 SWAP2 POP POP JUMP JUMPDEST PUSH0 DUP2 MLOAD SWAP1 POP SWAP2 SWAP1 POP JUMP JUMPDEST PUSH0 DUP3 DUP3 MSTORE PUSH1 0x20 DUP3 ADD SWAP1 POP SWAP3 SWAP2 POP POP JUMP JUMPDEST PUSH0 JUMPDEST DUP4 DUP2 LT ISZERO PUSH2 0x3558 JUMPI DUP1 DUP3 ADD MLOAD DUP2 DUP5 ADD MSTORE PUSH1 0x20 DUP2 ADD SWAP1 POP PUSH2 0x353D JUMP JUMPDEST PUSH0 DUP5 DUP5 ADD MSTORE POP POP POP POP JUMP JUMPDEST PUSH0 PUSH1 0x1F NOT PUSH1 0x1F DUP4 ADD AND SWAP1 POP SWAP2 SWAP1 POP JUMP JUMPDEST PUSH0 PUSH2 0x357D DUP3 PUSH2 0x3521 JUMP JUMPDEST PUSH2 0x3587 DUP2 DUP6 PUSH2 0x352B JUMP JUMPDEST SWAP4 POP PUSH2 0x3597 DUP2 DUP6 PUSH1 0x20 DUP7 ADD PUSH2 0x353B JUMP JUMPDEST PUSH2 0x35A0 DUP2 PUSH2 0x3563 JUMP JUMPDEST DUP5 ADD SWAP2 POP POP SWAP3 SWAP2 POP POP JUMP JUMPDEST PUSH0 PUSH1 0x20 DUP3 ADD SWAP1 POP DUP2 DUP2 SUB PUSH0 DUP4 ADD MSTORE PUSH2 0x35C3 DUP2 DUP5 PUSH2 0x3573 JUMP JUMPDEST SWAP1 POP SWAP3 SWAP2 POP POP JUMP JUMPDEST PUSH2 0x35D4 DUP2 PUSH2 0x342C JUMP JUMPDEST DUP2 EQ PUSH2 0x35DE JUMPI PUSH0 DUP1 REVERT JUMPDEST POP JUMP JUMPDEST PUSH0 DUP2 CALLDATALOAD SWAP1 POP PUSH2 0x35EF DUP2 PUSH2 0x35CB JUMP JUMPDEST SWAP3 SWAP2 POP POP JUMP JUMPDEST PUSH0 PUSH1 0x20 DUP3 DUP5 SUB SLT ISZERO PUSH2 0x360A JUMPI PUSH2 0x3609 PUSH2 0x3466 JUMP JUMPDEST JUMPDEST PUSH0 PUSH2 0x3617 DUP5 DUP3 DUP6 ADD PUSH2 0x35E1 JUMP JUMPDEST SWAP2 POP POP SWAP3 SWAP2 POP POP JUMP JUMPDEST PUSH0 PUSH20 0xFFFFFFFFFFFFFFFFFFFFFFFFFFFFFFFFFFFFFFFF DUP3 AND SWAP1 POP SWAP2 SWAP1 POP JUMP JUMPDEST PUSH0 PUSH2 0x3649 DUP3 PUSH2 0x3620 JUMP JUMPDEST SWAP1 POP SWAP2 SWAP1 POP JUMP JUMPDEST PUSH2 0x3659 DUP2 PUSH2 0x363F JUMP JUMPDEST DUP3 MSTORE POP POP JUMP JUMPDEST PUSH0 PUSH1 0x20 DUP3 ADD SWAP1 POP PUSH2 0x3672 PUSH0 DUP4 ADD DUP5 PUSH2 0x3650 JUMP JUMPDEST SWAP3 SWAP2 POP POP JUMP JUMPDEST PUSH2 0x3681 DUP2 PUSH2 0x363F JUMP JUMPDEST DUP2 EQ PUSH2 0x368B JUMPI PUSH0 DUP1 REVERT JUMPDEST POP JUMP JUMPDEST PUSH0 DUP2 CALLDATALOAD SWAP1 POP PUSH2 0x369C DUP2 PUSH2 0x3678 JUMP JUMPDEST SWAP3 SWAP2 POP POP JUMP JUMPDEST PUSH0 DUP1 PUSH1 0x40 DUP4 DUP6 SUB SLT ISZERO PUSH2 0x36B8 JUMPI PUSH2 0x36B7 PUSH2 0x3466 JUMP JUMPDEST JUMPDEST PUSH0 PUSH2 0x36C5 DUP6 DUP3 DUP7 ADD PUSH2 0x368E JUMP JUMPDEST SWAP3 POP POP PUSH1 0x20 PUSH2 0x36D6 DUP6 DUP3 DUP7 ADD PUSH2 0x35E1 JUMP JUMPDEST SWAP2 POP POP SWAP3 POP SWAP3 SWAP1 POP JUMP JUMPDEST PUSH0 DUP1 PUSH0 PUSH1 0x60 DUP5 DUP7 SUB SLT ISZERO PUSH2 0x36F7 JUMPI PUSH2 0x36F6 PUSH2 0x3466 JUMP JUMPDEST JUMPDEST PUSH0 PUSH2 0x3704 DUP7 DUP3 DUP8 ADD PUSH2 0x35E1 JUMP JUMPDEST SWAP4 POP POP PUSH1 0x20 PUSH2 0x3715 DUP7 DUP3 DUP8 ADD PUSH2 0x35E1 JUMP JUMPDEST SWAP3 POP POP PUSH1 0x40 PUSH2 0x3726 DUP7 DUP3 DUP8 ADD PUSH2 0x368E JUMP JUMPDEST SWAP2 POP POP SWAP3 POP SWAP3 POP SWAP3 JUMP JUMPDEST PUSH0 DUP1 PUSH0 PUSH1 0x60 DUP5 DUP7 SUB SLT ISZERO PUSH2 0x3747 JUMPI PUSH2 0x3746 PUSH2 0x3466 JUMP JUMPDEST JUMPDEST PUSH0 PUSH2 0x3754 DUP7 DUP3 DUP8 ADD PUSH2 0x368E JUMP JUMPDEST SWAP4 POP POP PUSH1 0x20 PUSH2 0x3765 DUP7 DUP3 DUP8 ADD PUSH2 0x368E JUMP JUMPDEST SWAP3 POP POP PUSH1 0x40 PUSH2 0x3776 DUP7 DUP3 DUP8 ADD PUSH2 0x35E1 JUMP JUMPDEST SWAP2 POP POP SWAP3 POP SWAP3 POP SWAP3 JUMP JUMPDEST PUSH0 DUP1 PUSH1 0x40 DUP4 DUP6 SUB SLT ISZERO PUSH2 0x3796 JUMPI PUSH2 0x3795 PUSH2 0x3466 JUMP JUMPDEST JUMPDEST PUSH0 PUSH2 0x37A3 DUP6 DUP3 DUP7 ADD PUSH2 0x35E1 JUMP JUMPDEST SWAP3 POP POP PUSH1 0x20 PUSH2 0x37B4 DUP6 DUP3 DUP7 ADD PUSH2 0x35E1 JUMP JUMPDEST SWAP2 POP POP SWAP3 POP SWAP3 SWAP1 POP JUMP JUMPDEST PUSH0 PUSH1 0x40 DUP3 ADD SWAP1 POP PUSH2 0x37D1 PUSH0 DUP4 ADD DUP6 PUSH2 0x3650 JUMP JUMPDEST PUSH2 0x37DE PUSH1 0x20 DUP4 ADD DUP5 PUSH2 0x3435 JUMP JUMPDEST SWAP4 SWAP3 POP POP POP JUMP JUMPDEST PUSH0 PUSH1 0xFF DUP3 AND SWAP1 POP SWAP2 SWAP1 POP JUMP JUMPDEST PUSH2 0x37FA DUP2 PUSH2 0x37E5 JUMP JUMPDEST DUP3 MSTORE POP POP JUMP JUMPDEST PUSH0 PUSH1 0x20 DUP3 ADD SWAP1 POP PUSH2 0x3813 PUSH0 DUP4 ADD DUP5 PUSH2 0x37F1 JUMP JUMPDEST SWAP3 SWAP2 POP POP JUMP JUMPDEST PUSH2 0x3822 DUP2 PUSH2 0x34EE JUMP JUMPDEST DUP2 EQ PUSH2 0x382C JUMPI PUSH0 DUP1 REVERT JUMPDEST POP JUMP JUMPDEST PUSH0 DUP2 CALLDATALOAD SWAP1 POP PUSH2 0x383D DUP2 PUSH2 0x3819 JUMP JUMPDEST SWAP3 SWAP2 POP POP JUMP JUMPDEST PUSH0 DUP1 PUSH1 0x40 DUP4 DUP6 SUB SLT ISZERO PUSH2 0x3859 JUMPI PUSH2 0x3858 PUSH2 0x3466 JUMP JUMPDEST JUMPDEST PUSH0 PUSH2 0x3866 DUP6 DUP3 DUP7 ADD PUSH2 0x368E JUMP JUMPDEST SWAP3 POP POP PUSH1 0x20 PUSH2 0x3877 DUP6 DUP3 DUP7 ADD PUSH2 0x382F JUMP JUMPDEST SWAP2 POP POP SWAP3 POP SWAP3 SWAP1 POP JUMP JUMPDEST PUSH0 PUSH1 0x20 DUP3 DUP5 SUB SLT ISZERO PUSH2 0x3896 JUMPI PUSH2 0x3895 PUSH2 0x3466 JUMP JUMPDEST JUMPDEST PUSH0 PUSH2 0x38A3 DUP5 DUP3 DUP6 ADD PUSH2 0x382F JUMP JUMPDEST SWAP2 POP POP SWAP3 SWAP2 POP POP JUMP JUMPDEST PUSH0 PUSH1 0x20 DUP3 DUP5 SUB SLT ISZERO PUSH2 0x38C1 JUMPI PUSH2 0x38C0 PUSH2 0x3466 JUMP JUMPDEST JUMPDEST PUSH0 PUSH2 0x38CE DUP5 DUP3 DUP6 ADD PUSH2 0x368E JUMP JUMPDEST SWAP2 POP POP SWAP3 SWAP2 POP POP JUMP JUMPDEST PUSH0 PUSH12 0xFFFFFFFFFFFFFFFFFFFFFFFF DUP3 AND SWAP1 POP SWAP2 SWAP1 POP JUMP JUMPDEST PUSH2 0x38F7 DUP2 PUSH2 0x38D7 JUMP JUMPDEST DUP2 EQ PUSH2 0x3901 JUMPI PUSH0 DUP1 REVERT JUMPDEST POP JUMP JUMPDEST PUSH0 DUP2 CALLDATALOAD SWAP1 POP PUSH2 0x3912 DUP2 PUSH2 0x38EE JUMP JUMPDEST SWAP3 SWAP2 POP POP JUMP JUMPDEST PUSH0 DUP1 PUSH1 0x40 DUP4 DUP6 SUB SLT ISZERO PUSH2 0x392E JUMPI PUSH2 0x392D PUSH2 0x3466 JUMP JUMPDEST JUMPDEST PUSH0 PUSH2 0x393B DUP6 DUP3 DUP7 ADD PUSH2 0x368E JUMP JUMPDEST SWAP3 POP POP PUSH1 0x20 PUSH2 0x394C DUP6 DUP3 DUP7 ADD PUSH2 0x3904 JUMP JUMPDEST SWAP2 POP POP SWAP3 POP SWAP3 SWAP1 POP JUMP JUMPDEST PUSH0 DUP1 REVERT JUMPDEST PUSH0 DUP1 REVERT JUMPDEST PUSH32 0x4E487B7100000000000000000000000000000000000000000000000000000000 PUSH0 MSTORE PUSH1 0x41 PUSH1 0x4 MSTORE PUSH1 0x24 PUSH0 REVERT JUMPDEST PUSH2 0x3994 DUP3 PUSH2 0x3563 JUMP JUMPDEST DUP2 ADD DUP2 DUP2 LT PUSH8 0xFFFFFFFFFFFFFFFF DUP3 GT OR ISZERO PUSH2 0x39B3 JUMPI PUSH2 0x39B2 PUSH2 0x395E JUMP JUMPDEST JUMPDEST DUP1 PUSH1 0x40 MSTORE POP POP POP JUMP JUMPDEST PUSH0 PUSH2 0x39C5 PUSH2 0x345D JUMP JUMPDEST SWAP1 POP PUSH2 0x39D1 DUP3 DUP3 PUSH2 0x398B JUMP JUMPDEST SWAP2 SWAP1 POP JUMP JUMPDEST PUSH0 PUSH8 0xFFFFFFFFFFFFFFFF DUP3 GT ISZERO PUSH2 0x39F0 JUMPI PUSH2 0x39EF PUSH2 0x395E JUMP JUMPDEST JUMPDEST PUSH2 0x39F9 DUP3 PUSH2 0x3563 JUMP JUMPDEST SWAP1 POP PUSH1 0x20 DUP2 ADD SWAP1 POP SWAP2 SWAP1 POP JUMP JUMPDEST DUP3 DUP2 DUP4 CALLDATACOPY PUSH0 DUP4 DUP4 ADD MSTORE POP POP POP JUMP JUMPDEST PUSH0 PUSH2 0x3A26 PUSH2 0x3A21 DUP5 PUSH2 0x39D6 JUMP JUMPDEST PUSH2 0x39BC JUMP JUMPDEST SWAP1 POP DUP3 DUP2 MSTORE PUSH1 0x20 DUP2 ADD DUP5 DUP5 DUP5 ADD GT ISZERO PUSH2 0x3A42 JUMPI PUSH2 0x3A41 PUSH2 0x395A JUMP JUMPDEST JUMPDEST PUSH2 0x3A4D DUP5 DUP3 DUP6 PUSH2 0x3A06 JUMP JUMPDEST POP SWAP4 SWAP3 POP POP POP JUMP JUMPDEST PUSH0 DUP3 PUSH1 0x1F DUP4 ADD SLT PUSH2 0x3A69 JUMPI PUSH2 0x3A68 PUSH2 0x3956 JUMP JUMPDEST JUMPDEST DUP2 CALLDATALOAD PUSH2 0x3A79 DUP5 DUP3 PUSH1 0x20 DUP7 ADD PUSH2 0x3A14 JUMP JUMPDEST SWAP2 POP POP SWAP3 SWAP2 POP POP JUMP JUMPDEST PUSH0 DUP1 PUSH0 DUP1 PUSH1 0x80 DUP6 DUP8 SUB SLT ISZERO PUSH2 0x3A9A JUMPI PUSH2 0x3A99 PUSH2 0x3466 JUMP JUMPDEST JUMPDEST PUSH0 PUSH2 0x3AA7 DUP8 DUP3 DUP9 ADD PUSH2 0x368E JUMP JUMPDEST SWAP5 POP POP PUSH1 0x20 PUSH2 0x3AB8 DUP8 DUP3 DUP9 ADD PUSH2 0x368E JUMP JUMPDEST SWAP4 POP POP PUSH1 0x40 PUSH2 0x3AC9 DUP8 DUP3 DUP9 ADD PUSH2 0x35E1 JUMP JUMPDEST SWAP3 POP POP PUSH1 0x60 DUP6 ADD CALLDATALOAD PUSH8 0xFFFFFFFFFFFFFFFF DUP2 GT ISZERO PUSH2 0x3AEA JUMPI PUSH2 0x3AE9 PUSH2 0x346A JUMP JUMPDEST JUMPDEST PUSH2 0x3AF6 DUP8 DUP3 DUP9 ADD PUSH2 0x3A55 JUMP JUMPDEST SWAP2 POP POP SWAP3 SWAP6 SWAP2 SWAP5 POP SWAP3 POP JUMP JUMPDEST PUSH0 PUSH8 0xFFFFFFFFFFFFFFFF DUP3 GT ISZERO PUSH2 0x3B1C JUMPI PUSH2 0x3B1B PUSH2 0x395E JUMP JUMPDEST JUMPDEST PUSH2 0x3B25 DUP3 PUSH2 0x3563 JUMP JUMPDEST SWAP1 POP PUSH1 0x20 DUP2 ADD SWAP1 POP SWAP2 SWAP1 POP JUMP JUMPDEST PUSH0 PUSH2 0x3B44 PUSH2 0x3B3F DUP5 PUSH2 0x3B02 JUMP JUMPDEST PUSH2 0x39BC JUMP JUMPDEST SWAP1 POP DUP3 DUP2 MSTORE PUSH1 0x20 DUP2 ADD DUP5 DUP5 DUP5 ADD GT ISZERO PUSH2 0x3B60 JUMPI PUSH2 0x3B5F PUSH2 0x395A JUMP JUMPDEST JUMPDEST PUSH2 0x3B6B DUP5 DUP3 DUP6 PUSH2 0x3A06 JUMP JUMPDEST POP SWAP4 SWAP3 POP POP POP JUMP JUMPDEST PUSH0 DUP3 PUSH1 0x1F DUP4 ADD SLT PUSH2 0x3B87 JUMPI PUSH2 0x3B86 PUSH2 0x3956 JUMP JUMPDEST JUMPDEST DUP2 CALLDATALOAD PUSH2 0x3B97 DUP5 DUP3 PUSH1 0x20 DUP7 ADD PUSH2 0x3B32 JUMP JUMPDEST SWAP2 POP POP SWAP3 SWAP2 POP POP JUMP JUMPDEST PUSH0 DUP1 PUSH0 PUSH1 0x60 DUP5 DUP7 SUB SLT ISZERO PUSH2 0x3BB7 JUMPI PUSH2 0x3BB6 PUSH2 0x3466 JUMP JUMPDEST JUMPDEST PUSH0 PUSH2 0x3BC4 DUP7 DUP3 DUP8 ADD PUSH2 0x368E JUMP JUMPDEST SWAP4 POP POP PUSH1 0x20 PUSH2 0x3BD5 DUP7 DUP3 DUP8 ADD PUSH2 0x35E1 JUMP JUMPDEST SWAP3 POP POP PUSH1 0x40 DUP5 ADD CALLDATALOAD PUSH8 0xFFFFFFFFFFFFFFFF DUP2 GT ISZERO PUSH2 0x3BF6 JUMPI PUSH2 0x3BF5 PUSH2 0x346A JUMP JUMPDEST JUMPDEST PUSH2 0x3C02 DUP7 DUP3 DUP8 ADD PUSH2 0x3B73 JUMP JUMPDEST SWAP2 POP POP SWAP3 POP SWAP3 POP SWAP3 JUMP JUMPDEST PUSH0 DUP1 PUSH1 0x40 DUP4 DUP6 SUB SLT ISZERO PUSH2 0x3C22 JUMPI PUSH2 0x3C21 PUSH2 0x3466 JUMP JUMPDEST JUMPDEST PUSH0 PUSH2 0x3C2F DUP6 DUP3 DUP7 ADD PUSH2 0x368E JUMP JUMPDEST SWAP3 POP POP PUSH1 0x20 PUSH2 0x3C40 DUP6 DUP3 DUP7 ADD PUSH2 0x368E JUMP JUMPDEST SWAP2 POP POP SWAP3 POP SWAP3 SWAP1 POP JUMP JUMPDEST PUSH32 0x4E487B7100000000000000000000000000000000000000000000000000000000 PUSH0 MSTORE PUSH1 0x22 PUSH1 0x4 MSTORE PUSH1 0x24 PUSH0 REVERT JUMPDEST PUSH0 PUSH1 0x2 DUP3 DIV SWAP1 POP PUSH1 0x1 DUP3 AND DUP1 PUSH2 0x3C8E JUMPI PUSH1 0x7F DUP3 AND SWAP2 POP JUMPDEST PUSH1 0x20 DUP3 LT DUP2 SUB PUSH2 0x3CA1 JUMPI PUSH2 0x3CA0 PUSH2 0x3C4A JUMP JUMPDEST JUMPDEST POP SWAP2 SWAP1 POP JUMP JUMPDEST PUSH32 0x7368617265206163746976697479206E6F742073746172746564000000000000 PUSH0 DUP3 ADD MSTORE POP JUMP JUMPDEST PUSH0 PUSH2 0x3CDB PUSH1 0x1A DUP4 PUSH2 0x352B JUMP JUMPDEST SWAP2 POP PUSH2 0x3CE6 DUP3 PUSH2 0x3CA7 JUMP JUMPDEST PUSH1 0x20 DUP3 ADD SWAP1 POP SWAP2 SWAP1 POP JUMP JUMPDEST PUSH0 PUSH1 0x20 DUP3 ADD SWAP1 POP DUP2 DUP2 SUB PUSH0 DUP4 ADD MSTORE PUSH2 0x3D08 DUP2 PUSH2 0x3CCF JUMP JUMPDEST SWAP1 POP SWAP2 SWAP1 POP JUMP JUMPDEST PUSH32 0x6E6F74206F776E65720000000000000000000000000000000000000000000000 PUSH0 DUP3 ADD MSTORE POP JUMP JUMPDEST PUSH0 PUSH2 0x3D43 PUSH1 0x9 DUP4 PUSH2 0x352B JUMP JUMPDEST SWAP2 POP PUSH2 0x3D4E DUP3 PUSH2 0x3D0F JUMP JUMPDEST PUSH1 0x20 DUP3 ADD SWAP1 POP SWAP2 SWAP1 POP JUMP JUMPDEST PUSH0 PUSH1 0x20 DUP3 ADD SWAP1 POP DUP2 DUP2 SUB PUSH0 DUP4 ADD MSTORE PUSH2 0x3D70 DUP2 PUSH2 0x3D37 JUMP JUMPDEST SWAP1 POP SWAP2 SWAP1 POP JUMP JUMPDEST PUSH32 0x746F2063616E7420626520302061646472657373000000000000000000000000 PUSH0 DUP3 ADD MSTORE POP JUMP JUMPDEST PUSH0 PUSH2 0x3DAB PUSH1 0x14 DUP4 PUSH2 0x352B JUMP JUMPDEST SWAP2 POP PUSH2 0x3DB6 DUP3 PUSH2 0x3D77 JUMP JUMPDEST PUSH1 0x20 DUP3 ADD SWAP1 POP SWAP2 SWAP1 POP JUMP JUMPDEST PUSH0 PUSH1 0x20 DUP3 ADD SWAP1 POP DUP2 DUP2 SUB PUSH0 DUP4 ADD MSTORE PUSH2 0x3DD8 DUP2 PUSH2 0x3D9F JUMP JUMPDEST SWAP1 POP SWAP2 SWAP1 POP JUMP JUMPDEST PUSH32 0x616D6F756E74203C206D61785769746864726177000000000000000000000000 PUSH0 DUP3 ADD MSTORE POP JUMP JUMPDEST PUSH0 PUSH2 0x3E13 PUSH1 0x14 DUP4 PUSH2 0x352B JUMP JUMPDEST SWAP2 POP PUSH2 0x3E1E DUP3 PUSH2 0x3DDF JUMP JUMPDEST PUSH1 0x20 DUP3 ADD SWAP1 POP SWAP2 SWAP1 POP JUMP JUMPDEST PUSH0 PUSH1 0x20 DUP3 ADD SWAP1 POP DUP2 DUP2 SUB PUSH0 DUP4 ADD MSTORE PUSH2 0x3E40 DUP2 PUSH2 0x3E07 JUMP JUMPDEST SWAP1 POP SWAP2 SWAP1 POP JUMP JUMPDEST PUSH32 0x4E487B7100000000000000000000000000000000000000000000000000000000 PUSH0 MSTORE PUSH1 0x11 PUSH1 0x4 MSTORE PUSH1 0x24 PUSH0 REVERT JUMPDEST PUSH0 PUSH2 0x3E7E DUP3 PUSH2 0x342C JUMP JUMPDEST SWAP2 POP PUSH2 0x3E89 DUP4 PUSH2 0x342C JUMP JUMPDEST SWAP3 POP DUP3 DUP3 SUB SWAP1 POP DUP2 DUP2 GT ISZERO PUSH2 0x3EA1 JUMPI PUSH2 0x3EA0 PUSH2 0x3E47 JUMP JUMPDEST JUMPDEST SWAP3 SWAP2 POP POP JUMP JUMPDEST PUSH0 PUSH1 0x40 DUP3 ADD SWAP1 POP PUSH2 0x3EBA PUSH0 DUP4 ADD DUP6 PUSH2 0x3435 JUMP JUMPDEST PUSH2 0x3EC7 PUSH1 0x20 DUP4 ADD DUP5 PUSH2 0x3435 JUMP JUMPDEST SWAP4 SWAP3 POP POP POP JUMP JUMPDEST PUSH0 PUSH1 0x60 DUP3 ADD SWAP1 POP PUSH2 0x3EE1 PUSH0 DUP4 ADD DUP7 PUSH2 0x3650 JUMP JUMPDEST PUSH2 0x3EEE PUSH1 0x20 DUP4 ADD DUP6 PUSH2 0x3435 JUMP JUMPDEST PUSH2 0x3EFB PUSH1 0x40 DUP4 ADD DUP5 PUSH2 0x3650 JUMP JUMPDEST SWAP5 SWAP4 POP POP POP POP JUMP JUMPDEST PUSH0 PUSH2 0x3F0D DUP3 PUSH2 0x342C JUMP JUMPDEST SWAP2 POP PUSH2 0x3F18 DUP4 PUSH2 0x342C JUMP JUMPDEST SWAP3 POP DUP3 DUP3 MUL PUSH2 0x3F26 DUP2 PUSH2 0x342C JUMP JUMPDEST SWAP2 POP DUP3 DUP3 DIV DUP5 EQ DUP4 ISZERO OR PUSH2 0x3F3D JUMPI PUSH2 0x3F3C PUSH2 0x3E47 JUMP JUMPDEST JUMPDEST POP SWAP3 SWAP2 POP POP JUMP JUMPDEST PUSH32 0x4E487B7100000000000000000000000000000000000000000000000000000000 PUSH0 MSTORE PUSH1 0x12 PUSH1 0x4 MSTORE PUSH1 0x24 PUSH0 REVERT JUMPDEST PUSH0 PUSH2 0x3F7B DUP3 PUSH2 0x342C JUMP JUMPDEST SWAP2 POP PUSH2 0x3F86 DUP4 PUSH2 0x342C JUMP JUMPDEST SWAP3 POP DUP3 PUSH2 0x3F96 JUMPI PUSH2 0x3F95 PUSH2 0x3F44 JUMP JUMPDEST JUMPDEST DUP3 DUP3 DIV SWAP1 POP SWAP3 SWAP2 POP POP JUMP JUMPDEST PUSH32 0x6E6F7420656E6F75676820736861726573000000000000000000000000000000 PUSH0 DUP3 ADD MSTORE POP JUMP JUMPDEST PUSH0 PUSH2 0x3FD5 PUSH1 0x11 DUP4 PUSH2 0x352B JUMP JUMPDEST SWAP2 POP PUSH2 0x3FE0 DUP3 PUSH2 0x3FA1 JUMP JUMPDEST PUSH1 0x20 DUP3 ADD SWAP1 POP SWAP2 SWAP1 POP JUMP JUMPDEST PUSH0 PUSH1 0x20 DUP3 ADD SWAP1 POP DUP2 DUP2 SUB PUSH0 DUP4 ADD MSTORE PUSH2 0x4002 DUP2 PUSH2 0x3FC9 JUMP JUMPDEST SWAP1 POP SWAP2 SWAP1 POP JUMP JUMPDEST PUSH0 DUP2 PUSH1 0x1 SHR SWAP1 POP SWAP2 SWAP1 POP JUMP JUMPDEST PUSH0 DUP1 DUP3 SWAP2 POP DUP4 SWAP1 POP JUMPDEST PUSH1 0x1 DUP6 GT ISZERO PUSH2 0x405E JUMPI DUP1 DUP7 DIV DUP2 GT ISZERO PUSH2 0x403A JUMPI PUSH2 0x4039 PUSH2 0x3E47 JUMP JUMPDEST JUMPDEST PUSH1 0x1 DUP6 AND ISZERO PUSH2 0x4049 JUMPI DUP1 DUP3 MUL SWAP2 POP JUMPDEST DUP1 DUP2 MUL SWAP1 POP PUSH2 0x4057 DUP6 PUSH2 0x4009 JUMP JUMPDEST SWAP5 POP PUSH2 0x401E JUMP JUMPDEST SWAP5 POP SWAP5 SWAP3 POP POP POP JUMP JUMPDEST PUSH0 DUP3 PUSH2 0x4076 JUMPI PUSH1 0x1 SWAP1 POP PUSH2 0x4131 JUMP JUMPDEST DUP2 PUSH2 0x4083 JUMPI PUSH0 SWAP1 POP PUSH2 0x4131 JUMP JUMPDEST DUP2 PUSH1 0x1 DUP2 EQ PUSH2 0x4099 JUMPI PUSH1 0x2 DUP2 EQ PUSH2 0x40A3 JUMPI PUSH2 0x40D2 JUMP JUMPDEST PUSH1 0x1 SWAP2 POP POP PUSH2 0x4131 JUMP JUMPDEST PUSH1 0xFF DUP5 GT ISZERO PUSH2 0x40B5 JUMPI PUSH2 0x40B4 PUSH2 0x3E47 JUMP JUMPDEST JUMPDEST DUP4 PUSH1 0x2 EXP SWAP2 POP DUP5 DUP3 GT ISZERO PUSH2 0x40CC JUMPI PUSH2 0x40CB PUSH2 0x3E47 JUMP JUMPDEST JUMPDEST POP PUSH2 0x4131 JUMP JUMPDEST POP PUSH1 0x20 DUP4 LT PUSH2 0x133 DUP4 LT AND PUSH1 0x4E DUP5 LT PUSH1 0xB DUP5 LT AND OR ISZERO PUSH2 0x4107 JUMPI DUP3 DUP3 EXP SWAP1 POP DUP4 DUP2 GT ISZERO PUSH2 0x4102 JUMPI PUSH2 0x4101 PUSH2 0x3E47 JUMP JUMPDEST JUMPDEST PUSH2 0x4131 JUMP JUMPDEST PUSH2 0x4114 DUP5 DUP5 DUP5 PUSH1 0x1 PUSH2 0x4015 JUMP JUMPDEST SWAP3 POP SWAP1 POP DUP2 DUP5 DIV DUP2 GT ISZERO PUSH2 0x412B JUMPI PUSH2 0x412A PUSH2 0x3E47 JUMP JUMPDEST JUMPDEST DUP2 DUP2 MUL SWAP1 POP JUMPDEST SWAP4 SWAP3 POP POP POP JUMP JUMPDEST PUSH0 PUSH2 0x4142 DUP3 PUSH2 0x342C JUMP JUMPDEST SWAP2 POP PUSH2 0x414D DUP4 PUSH2 0x37E5 JUMP JUMPDEST SWAP3 POP PUSH2 0x417A PUSH32 0xFFFFFFFFFFFFFFFFFFFFFFFFFFFFFFFFFFFFFFFFFFFFFFFFFFFFFFFFFFFFFFFF DUP5 DUP5 PUSH2 0x4067 JUMP JUMPDEST SWAP1 POP SWAP3 SWAP2 POP POP JUMP JUMPDEST PUSH32 0x76616C2063616E6E6F7420657863656564206D61784465706F736974496E4F6E PUSH0 DUP3 ADD MSTORE PUSH32 0x6554782829000000000000000000000000000000000000000000000000000000 PUSH1 0x20 DUP3 ADD MSTORE POP JUMP JUMPDEST PUSH0 PUSH2 0x41DC PUSH1 0x25 DUP4 PUSH2 0x352B JUMP JUMPDEST SWAP2 POP PUSH2 0x41E7 DUP3 PUSH2 0x4182 JUMP JUMPDEST PUSH1 0x40 DUP3 ADD SWAP1 POP SWAP2 SWAP1 POP JUMP JUMPDEST PUSH0 PUSH1 0x20 DUP3 ADD SWAP1 POP DUP2 DUP2 SUB PUSH0 DUP4 ADD MSTORE PUSH2 0x4209 DUP2 PUSH2 0x41D0 JUMP JUMPDEST SWAP1 POP SWAP2 SWAP1 POP JUMP JUMPDEST PUSH32 0x73656E642076616C203D3D20707265766965774D696E74282900000000000000 PUSH0 DUP3 ADD MSTORE POP JUMP JUMPDEST PUSH0 PUSH2 0x4244 PUSH1 0x19 DUP4 PUSH2 0x352B JUMP JUMPDEST SWAP2 POP PUSH2 0x424F DUP3 PUSH2 0x4210 JUMP JUMPDEST PUSH1 0x20 DUP3 ADD SWAP1 POP SWAP2 SWAP1 POP JUMP JUMPDEST PUSH0 PUSH1 0x20 DUP3 ADD SWAP1 POP DUP2 DUP2 SUB PUSH0 DUP4 ADD MSTORE PUSH2 0x4271 DUP2 PUSH2 0x4238 JUMP JUMPDEST SWAP1 POP SWAP2 SWAP1 POP JUMP JUMPDEST PUSH0 PUSH2 0x4282 DUP3 PUSH2 0x342C JUMP JUMPDEST SWAP2 POP PUSH2 0x428D DUP4 PUSH2 0x342C JUMP JUMPDEST SWAP3 POP DUP3 DUP3 ADD SWAP1 POP DUP1 DUP3 GT ISZERO PUSH2 0x42A5 JUMPI PUSH2 0x42A4 PUSH2 0x3E47 JUMP JUMPDEST JUMPDEST SWAP3 SWAP2 POP POP JUMP JUMPDEST PUSH32 0x73656E642076616C203E20300000000000000000000000000000000000000000 PUSH0 DUP3 ADD MSTORE POP JUMP JUMPDEST PUSH0 PUSH2 0x42DF PUSH1 0xC DUP4 PUSH2 0x352B JUMP JUMPDEST SWAP2 POP PUSH2 0x42EA DUP3 PUSH2 0x42AB JUMP JUMPDEST PUSH1 0x20 DUP3 ADD SWAP1 POP SWAP2 SWAP1 POP JUMP JUMPDEST PUSH0 PUSH1 0x20 DUP3 ADD SWAP1 POP DUP2 DUP2 SUB PUSH0 DUP4 ADD MSTORE PUSH2 0x430C DUP2 PUSH2 0x42D3 JUMP JUMPDEST SWAP1 POP SWAP2 SWAP1 POP JUMP JUMPDEST PUSH0 DUP2 SWAP1 POP SWAP2 SWAP1 POP JUMP JUMPDEST PUSH0 PUSH2 0x4336 PUSH2 0x4331 PUSH2 0x432C DUP5 PUSH2 0x38D7 JUMP JUMPDEST PUSH2 0x4313 JUMP JUMPDEST PUSH2 0x342C JUMP JUMPDEST SWAP1 POP SWAP2 SWAP1 POP JUMP JUMPDEST PUSH2 0x4346 DUP2 PUSH2 0x431C JUMP JUMPDEST DUP3 MSTORE POP POP JUMP JUMPDEST PUSH0 PUSH1 0x40 DUP3 ADD SWAP1 POP PUSH2 0x435F PUSH0 DUP4 ADD DUP6 PUSH2 0x433D JUMP JUMPDEST PUSH2 0x436C PUSH1 0x20 DUP4 ADD DUP5 PUSH2 0x3435 JUMP JUMPDEST SWAP4 SWAP3 POP POP POP JUMP JUMPDEST PUSH0 DUP2 MLOAD SWAP1 POP SWAP2 SWAP1 POP JUMP JUMPDEST PUSH0 DUP3 DUP3 MSTORE PUSH1 0x20 DUP3 ADD SWAP1 POP SWAP3 SWAP2 POP POP JUMP JUMPDEST PUSH0 PUSH2 0x4397 DUP3 PUSH2 0x4373 JUMP JUMPDEST PUSH2 0x43A1 DUP2 DUP6 PUSH2 0x437D JUMP JUMPDEST SWAP4 POP PUSH2 0x43B1 DUP2 DUP6 PUSH1 0x20 DUP7 ADD PUSH2 0x353B JUMP JUMPDEST PUSH2 0x43BA DUP2 PUSH2 0x3563 JUMP JUMPDEST DUP5 ADD SWAP2 POP POP SWAP3 SWAP2 POP POP JUMP JUMPDEST PUSH0 PUSH1 0x80 DUP3 ADD SWAP1 POP PUSH2 0x43D8 PUSH0 DUP4 ADD DUP8 PUSH2 0x3650 JUMP JUMPDEST PUSH2 0x43E5 PUSH1 0x20 DUP4 ADD DUP7 PUSH2 0x3650 JUMP JUMPDEST PUSH2 0x43F2 PUSH1 0x40 DUP4 ADD DUP6 PUSH2 0x3435 JUMP JUMPDEST DUP2 DUP2 SUB PUSH1 0x60 DUP4 ADD MSTORE PUSH2 0x4404 DUP2 DUP5 PUSH2 0x438D JUMP JUMPDEST SWAP1 POP SWAP6 SWAP5 POP POP POP POP POP JUMP JUMPDEST PUSH0 DUP2 MLOAD SWAP1 POP PUSH2 0x441D DUP2 PUSH2 0x3499 JUMP JUMPDEST SWAP3 SWAP2 POP POP JUMP JUMPDEST PUSH0 PUSH1 0x20 DUP3 DUP5 SUB SLT ISZERO PUSH2 0x4438 JUMPI PUSH2 0x4437 PUSH2 0x3466 JUMP JUMPDEST JUMPDEST PUSH0 PUSH2 0x4445 DUP5 DUP3 DUP6 ADD PUSH2 0x440F JUMP JUMPDEST SWAP2 POP POP SWAP3 SWAP2 POP POP JUMP JUMPDEST PUSH0 DUP2 SWAP1 POP SWAP3 SWAP2 POP POP JUMP JUMPDEST PUSH0 PUSH2 0x4462 DUP3 PUSH2 0x3521 JUMP JUMPDEST PUSH2 0x446C DUP2 DUP6 PUSH2 0x444E JUMP JUMPDEST SWAP4 POP PUSH2 0x447C DUP2 DUP6 PUSH1 0x20 DUP7 ADD PUSH2 0x353B JUMP JUMPDEST DUP1 DUP5 ADD SWAP2 POP POP SWAP3 SWAP2 POP POP JUMP JUMPDEST PUSH0 PUSH2 0x4493 DUP3 DUP6 PUSH2 0x4458 JUMP JUMPDEST SWAP2 POP PUSH2 0x449F DUP3 DUP5 PUSH2 0x4458 JUMP JUMPDEST SWAP2 POP DUP2 SWAP1 POP SWAP4 SWAP3 POP POP POP JUMP JUMPDEST PUSH0 DUP2 SWAP1 POP DUP2 PUSH0 MSTORE PUSH1 0x20 PUSH0 KECCAK256 SWAP1 POP SWAP2 SWAP1 POP JUMP JUMPDEST PUSH0 PUSH1 0x20 PUSH1 0x1F DUP4 ADD DIV SWAP1 POP SWAP2 SWAP1 POP JUMP JUMPDEST PUSH0 DUP3 DUP3 SHL SWAP1 POP SWAP3 SWAP2 POP POP JUMP JUMPDEST PUSH0 PUSH1 0x8 DUP4 MUL PUSH2 0x4507 PUSH32 0xFFFFFFFFFFFFFFFFFFFFFFFFFFFFFFFFFFFFFFFFFFFFFFFFFFFFFFFFFFFFFFFF DUP3 PUSH2 0x44CC JUMP JUMPDEST PUSH2 0x4511 DUP7 DUP4 PUSH2 0x44CC JUMP JUMPDEST SWAP6 POP DUP1 NOT DUP5 AND SWAP4 POP DUP1 DUP7 AND DUP5 OR SWAP3 POP POP POP SWAP4 SWAP3 POP POP POP JUMP JUMPDEST PUSH0 PUSH2 0x4543 PUSH2 0x453E PUSH2 0x4539 DUP5 PUSH2 0x342C JUMP JUMPDEST PUSH2 0x4313 JUMP JUMPDEST PUSH2 0x342C JUMP JUMPDEST SWAP1 POP SWAP2 SWAP1 POP JUMP JUMPDEST PUSH0 DUP2 SWAP1 POP SWAP2 SWAP1 POP JUMP JUMPDEST PUSH2 0x455C DUP4 PUSH2 0x4529 JUMP JUMPDEST PUSH2 0x4570 PUSH2 0x4568 DUP3 PUSH2 0x454A JUMP JUMPDEST DUP5 DUP5 SLOAD PUSH2 0x44D8 JUMP JUMPDEST DUP3 SSTORE POP POP POP POP JUMP JUMPDEST PUSH0 SWAP1 JUMP JUMPDEST PUSH2 0x4584 PUSH2 0x4578 JUMP JUMPDEST PUSH2 0x458F DUP2 DUP5 DUP5 PUSH2 0x4553 JUMP JUMPDEST POP POP POP JUMP JUMPDEST JUMPDEST DUP2 DUP2 LT ISZERO PUSH2 0x45B2 JUMPI PUSH2 0x45A7 PUSH0 DUP3 PUSH2 0x457C JUMP JUMPDEST PUSH1 0x1 DUP2 ADD SWAP1 POP PUSH2 0x4595 JUMP JUMPDEST POP POP JUMP JUMPDEST PUSH1 0x1F DUP3 GT ISZERO PUSH2 0x45F7 JUMPI PUSH2 0x45C8 DUP2 PUSH2 0x44AB JUMP JUMPDEST PUSH2 0x45D1 DUP5 PUSH2 0x44BD JUMP JUMPDEST DUP2 ADD PUSH1 0x20 DUP6 LT ISZERO PUSH2 0x45E0 JUMPI DUP2 SWAP1 POP JUMPDEST PUSH2 0x45F4 PUSH2 0x45EC DUP6 PUSH2 0x44BD JUMP JUMPDEST DUP4 ADD DUP3 PUSH2 0x4594 JUMP JUMPDEST POP POP JUMPDEST POP POP POP JUMP JUMPDEST PUSH0 DUP3 DUP3 SHR SWAP1 POP SWAP3 SWAP2 POP POP JUMP JUMPDEST PUSH0 PUSH2 0x4617 PUSH0 NOT DUP5 PUSH1 0x8 MUL PUSH2 0x45FC JUMP JUMPDEST NOT DUP1 DUP4 AND SWAP2 POP POP SWAP3 SWAP2 POP POP JUMP JUMPDEST PUSH0 PUSH2 0x462F DUP4 DUP4 PUSH2 0x4608 JUMP JUMPDEST SWAP2 POP DUP3 PUSH1 0x2 MUL DUP3 OR SWAP1 POP SWAP3 SWAP2 POP POP JUMP JUMPDEST PUSH2 0x4648 DUP3 PUSH2 0x3521 JUMP JUMPDEST PUSH8 0xFFFFFFFFFFFFFFFF DUP2 GT ISZERO PUSH2 0x4661 JUMPI PUSH2 0x4660 PUSH2 0x395E JUMP JUMPDEST JUMPDEST PUSH2 0x466B DUP3 SLOAD PUSH2 0x3C77 JUMP JUMPDEST PUSH2 0x4676 DUP3 DUP3 DUP6 PUSH2 0x45B6 JUMP JUMPDEST PUSH0 PUSH1 0x20 SWAP1 POP PUSH1 0x1F DUP4 GT PUSH1 0x1 DUP2 EQ PUSH2 0x46A7 JUMPI PUSH0 DUP5 ISZERO PUSH2 0x4695 JUMPI DUP3 DUP8 ADD MLOAD SWAP1 POP JUMPDEST PUSH2 0x469F DUP6 DUP3 PUSH2 0x4624 JUMP JUMPDEST DUP7 SSTORE POP PUSH2 0x4706 JUMP JUMPDEST PUSH1 0x1F NOT DUP5 AND PUSH2 0x46B5 DUP7 PUSH2 0x44AB JUMP JUMPDEST PUSH0 JUMPDEST DUP3 DUP2 LT ISZERO PUSH2 0x46DC JUMPI DUP5 DUP10 ADD MLOAD DUP3 SSTORE PUSH1 0x1 DUP3 ADD SWAP2 POP PUSH1 0x20 DUP6 ADD SWAP5 POP PUSH1 0x20 DUP2 ADD SWAP1 POP PUSH2 0x46B7 JUMP JUMPDEST DUP7 DUP4 LT ISZERO PUSH2 0x46F9 JUMPI DUP5 DUP10 ADD MLOAD PUSH2 0x46F5 PUSH1 0x1F DUP10 AND DUP3 PUSH2 0x4608 JUMP JUMPDEST DUP4 SSTORE POP JUMPDEST PUSH1 0x1 PUSH1 0x2 DUP9 MUL ADD DUP9 SSTORE POP POP POP JUMPDEST POP POP POP POP POP POP JUMP JUMPDEST PUSH0 PUSH2 0x4718 DUP3 PUSH2 0x37E5 JUMP JUMPDEST SWAP2 POP PUSH2 0x4723 DUP4 PUSH2 0x37E5 JUMP JUMPDEST SWAP3 POP DUP3 DUP3 SUB SWAP1 POP PUSH1 0xFF DUP2 GT ISZERO PUSH2 0x473C JUMPI PUSH2 0x473B PUSH2 0x3E47 JUMP JUMPDEST JUMPDEST SWAP3 SWAP2 POP POP JUMP JUMPDEST PUSH32 0x4E487B7100000000000000000000000000000000000000000000000000000000 PUSH0 MSTORE PUSH1 0x21 PUSH1 0x4 MSTORE PUSH1 0x24 PUSH0 REVERT JUMPDEST PUSH0 PUSH2 0x4779 DUP3 PUSH2 0x37E5 JUMP JUMPDEST SWAP2 POP PUSH2 0x4784 DUP4 PUSH2 0x37E5 JUMP JUMPDEST SWAP3 POP DUP3 PUSH2 0x4794 JUMPI PUSH2 0x4793 PUSH2 0x3F44 JUMP JUMPDEST JUMPDEST DUP3 DUP3 MOD SWAP1 POP SWAP3 SWAP2 POP POP JUMP INVALID PUSH10 0x7066733A2F2F62616679 PUSH3 0x656964 PUSH13 0x37637079636A69717A61367275 PUSH5 0x677A6C3471 CALLDATALOAD PUSH13 0x6C3678376E6670716C6C357165 PUSH18 0x7736746F7169756563776732686A65A26469 PUSH17 0x66735822122094B74F7BBF2E08DA92E0CC GASPRICE DUP6 0xBC PUSH0 SWAP4 PUSH5 0x9BAD287FE5 0xC9 DUP3 PUSH23 0x7607FB55F71D664736F6C634300081400330000000000 "
		},
		"gasEstimates": {
			"creation": {
				"codeDepositCost": "3691000",
				"executionCost": "infinite",
				"totalCost": "infinite"
			},
			"external": {
				"approve(address,uint256)": "infinite",
				"balanceOf(address)": "infinite",
				"buyEnabled()": "2620",
				"buyShare(uint256,uint256)": "infinite",
				"convertToAssets(uint256)": "infinite",
				"convertToShares(uint256)": "infinite",
				"decimals()": "418",
				"deposit(uint256)": "infinite",
				"getApproved(uint256)": "infinite",
				"isApprovedForAll(address,address)": "infinite",
				"maxDeposit(uint256)": "infinite",
				"maxDepositInOneTx()": "2514",
				"maxMint(uint256)": "infinite",
				"maxRedeem(uint256)": "infinite",
				"maxWithdraw(uint256)": "infinite",
				"name()": "infinite",
				"nftValue(uint256)": "infinite",
				"owner()": "2649",
				"ownerOf(uint256)": "infinite",
				"previewDeposit(uint256)": "infinite",
				"previewMint(uint256)": "infinite",
				"previewRedeem(uint256)": "infinite",
				"previewWithdraw(uint256)": "infinite",
				"redeemShare(uint256,uint256,address)": "infinite",
				"renounceOwnership()": "infinite",
				"royaltyInfo(uint256,uint256)": "infinite",
				"safeMint(address,uint256,string)": "infinite",
				"safeTransferFrom(address,address,uint256)": "infinite",
				"safeTransferFrom(address,address,uint256,bytes)": "infinite",
				"setAllowed(address,bool)": "infinite",
				"setApprovalForAll(address,bool)": "infinite",
				"setMaxDepPerTx(uint256)": "infinite",
				"setRoyalty(address,uint96)": "infinite",
				"setShareActivity(bool)": "infinite",
				"shareBalances(uint256)": "infinite",
				"sharePrice()": "infinite",
				"supportsInterface(bytes4)": "1056",
				"symbol()": "infinite",
				"tokenURI(uint256)": "infinite",
				"totalAssets()": "381",
				"totalShares()": "2500",
				"totalSupply()": "2537",
				"transferFrom(address,address,uint256)": "infinite",
				"transferOwnership(address)": "infinite",
				"withdraw(uint256,uint256,address)": "infinite"
			},
			"internal": {
				"_baseURI()": "infinite",
				"_convertToAssets(uint256,enum Math.Rounding)": "infinite",
				"_convertToShares(uint256,enum Math.Rounding)": "infinite",
				"_decimalsOffset()": "22",
				"_totalAssets()": "infinite"
			}
		},
		"methodIdentifiers": {
			"approve(address,uint256)": "095ea7b3",
			"balanceOf(address)": "70a08231",
			"buyEnabled()": "f582d293",
			"buyShare(uint256,uint256)": "aca75a52",
			"convertToAssets(uint256)": "07a2d13a",
			"convertToShares(uint256)": "c6e6f592",
			"decimals()": "313ce567",
			"deposit(uint256)": "b6b55f25",
			"getApproved(uint256)": "081812fc",
			"isApprovedForAll(address,address)": "e985e9c5",
			"maxDeposit(uint256)": "ac11e794",
			"maxDepositInOneTx()": "5a92afc2",
			"maxMint(uint256)": "3d9e67ec",
			"maxRedeem(uint256)": "a10de6d6",
			"maxWithdraw(uint256)": "908c55fc",
			"name()": "06fdde03",
			"nftValue(uint256)": "7c05a2a7",
			"owner()": "8da5cb5b",
			"ownerOf(uint256)": "6352211e",
			"previewDeposit(uint256)": "ef8b30f7",
			"previewMint(uint256)": "b3d7f6b9",
			"previewRedeem(uint256)": "4cdad506",
			"previewWithdraw(uint256)": "0a28a477",
			"redeemShare(uint256,uint256,address)": "85804864",
			"renounceOwnership()": "715018a6",
			"royaltyInfo(uint256,uint256)": "2a55205a",
			"safeMint(address,uint256,string)": "cd279c7c",
			"safeTransferFrom(address,address,uint256)": "42842e0e",
			"safeTransferFrom(address,address,uint256,bytes)": "b88d4fde",
			"setAllowed(address,bool)": "4697f05d",
			"setApprovalForAll(address,bool)": "a22cb465",
			"setMaxDepPerTx(uint256)": "650749a6",
			"setRoyalty(address,uint96)": "8f2fc60b",
			"setShareActivity(bool)": "577d6763",
			"shareBalances(uint256)": "d4d747b8",
			"sharePrice()": "87269729",
			"supportsInterface(bytes4)": "01ffc9a7",
			"symbol()": "95d89b41",
			"tokenURI(uint256)": "c87b56dd",
			"totalAssets()": "01e1d114",
			"totalShares()": "3a98ef39",
			"totalSupply()": "18160ddd",
			"transferFrom(address,address,uint256)": "23b872dd",
			"transferOwnership(address)": "f2fde38b",
			"withdraw(uint256,uint256,address)": "0ad58d2f"
		}
	},
	"abi": [
		{
			"inputs": [
				{
					"internalType": "address",
					"name": "initialOwner",
					"type": "address"
				}
			],
			"stateMutability": "nonpayable",
			"type": "constructor"
		},
		{
			"inputs": [
				{
					"internalType": "uint256",
					"name": "numerator",
					"type": "uint256"
				},
				{
					"internalType": "uint256",
					"name": "denominator",
					"type": "uint256"
				}
			],
			"name": "ERC2981InvalidDefaultRoyalty",
			"type": "error"
		},
		{
			"inputs": [
				{
					"internalType": "address",
					"name": "receiver",
					"type": "address"
				}
			],
			"name": "ERC2981InvalidDefaultRoyaltyReceiver",
			"type": "error"
		},
		{
			"inputs": [
				{
					"internalType": "uint256",
					"name": "tokenId",
					"type": "uint256"
				},
				{
					"internalType": "uint256",
					"name": "numerator",
					"type": "uint256"
				},
				{
					"internalType": "uint256",
					"name": "denominator",
					"type": "uint256"
				}
			],
			"name": "ERC2981InvalidTokenRoyalty",
			"type": "error"
		},
		{
			"inputs": [
				{
					"internalType": "uint256",
					"name": "tokenId",
					"type": "uint256"
				},
				{
					"internalType": "address",
					"name": "receiver",
					"type": "address"
				}
			],
			"name": "ERC2981InvalidTokenRoyaltyReceiver",
			"type": "error"
		},
		{
			"inputs": [
				{
					"internalType": "address",
					"name": "sender",
					"type": "address"
				},
				{
					"internalType": "uint256",
					"name": "tokenId",
					"type": "uint256"
				},
				{
					"internalType": "address",
					"name": "owner",
					"type": "address"
				}
			],
			"name": "ERC721IncorrectOwner",
			"type": "error"
		},
		{
			"inputs": [
				{
					"internalType": "address",
					"name": "operator",
					"type": "address"
				},
				{
					"internalType": "uint256",
					"name": "tokenId",
					"type": "uint256"
				}
			],
			"name": "ERC721InsufficientApproval",
			"type": "error"
		},
		{
			"inputs": [
				{
					"internalType": "address",
					"name": "approver",
					"type": "address"
				}
			],
			"name": "ERC721InvalidApprover",
			"type": "error"
		},
		{
			"inputs": [
				{
					"internalType": "address",
					"name": "operator",
					"type": "address"
				}
			],
			"name": "ERC721InvalidOperator",
			"type": "error"
		},
		{
			"inputs": [
				{
					"internalType": "address",
					"name": "owner",
					"type": "address"
				}
			],
			"name": "ERC721InvalidOwner",
			"type": "error"
		},
		{
			"inputs": [
				{
					"internalType": "address",
					"name": "receiver",
					"type": "address"
				}
			],
			"name": "ERC721InvalidReceiver",
			"type": "error"
		},
		{
			"inputs": [
				{
					"internalType": "address",
					"name": "sender",
					"type": "address"
				}
			],
			"name": "ERC721InvalidSender",
			"type": "error"
		},
		{
			"inputs": [
				{
					"internalType": "uint256",
					"name": "tokenId",
					"type": "uint256"
				}
			],
			"name": "ERC721NonexistentToken",
			"type": "error"
		},
		{
			"inputs": [],
			"name": "MathOverflowedMulDiv",
			"type": "error"
		},
		{
			"inputs": [
				{
					"internalType": "address",
					"name": "owner",
					"type": "address"
				}
			],
			"name": "OwnableInvalidOwner",
			"type": "error"
		},
		{
			"inputs": [
				{
					"internalType": "address",
					"name": "account",
					"type": "address"
				}
			],
			"name": "OwnableUnauthorizedAccount",
			"type": "error"
		},
		{
			"anonymous": false,
			"inputs": [
				{
					"indexed": true,
					"internalType": "address",
					"name": "owner",
					"type": "address"
				},
				{
					"indexed": true,
					"internalType": "address",
					"name": "approved",
					"type": "address"
				},
				{
					"indexed": true,
					"internalType": "uint256",
					"name": "tokenId",
					"type": "uint256"
				}
			],
			"name": "Approval",
			"type": "event"
		},
		{
			"anonymous": false,
			"inputs": [
				{
					"indexed": true,
					"internalType": "address",
					"name": "owner",
					"type": "address"
				},
				{
					"indexed": true,
					"internalType": "address",
					"name": "operator",
					"type": "address"
				},
				{
					"indexed": false,
					"internalType": "bool",
					"name": "approved",
					"type": "bool"
				}
			],
			"name": "ApprovalForAll",
			"type": "event"
		},
		{
			"anonymous": false,
			"inputs": [
				{
					"indexed": false,
					"internalType": "uint256",
					"name": "_fromTokenId",
					"type": "uint256"
				},
				{
					"indexed": false,
					"internalType": "uint256",
					"name": "_toTokenId",
					"type": "uint256"
				}
			],
			"name": "BatchMetadataUpdate",
			"type": "event"
		},
		{
			"anonymous": false,
			"inputs": [
				{
					"indexed": true,
					"internalType": "address",
					"name": "sender",
					"type": "address"
				},
				{
					"indexed": true,
					"internalType": "uint256",
					"name": "to",
					"type": "uint256"
				},
				{
					"indexed": false,
					"internalType": "uint256",
					"name": "assets",
					"type": "uint256"
				},
				{
					"indexed": false,
					"internalType": "uint256",
					"name": "shares",
					"type": "uint256"
				}
			],
			"name": "Deposit",
			"type": "event"
		},
		{
			"anonymous": false,
			"inputs": [
				{
					"indexed": false,
					"internalType": "uint256",
					"name": "_tokenId",
					"type": "uint256"
				}
			],
			"name": "MetadataUpdate",
			"type": "event"
		},
		{
			"anonymous": false,
			"inputs": [
				{
					"indexed": true,
					"internalType": "address",
					"name": "previousOwner",
					"type": "address"
				},
				{
					"indexed": true,
					"internalType": "address",
					"name": "newOwner",
					"type": "address"
				}
			],
			"name": "OwnershipTransferred",
			"type": "event"
		},
		{
			"anonymous": false,
			"inputs": [
				{
					"indexed": true,
					"internalType": "address",
					"name": "from",
					"type": "address"
				},
				{
					"indexed": true,
					"internalType": "address",
					"name": "to",
					"type": "address"
				},
				{
					"indexed": true,
					"internalType": "uint256",
					"name": "tokenId",
					"type": "uint256"
				}
			],
			"name": "Transfer",
			"type": "event"
		},
		{
			"anonymous": false,
			"inputs": [
				{
					"indexed": true,
					"internalType": "uint256",
					"name": "from",
					"type": "uint256"
				},
				{
					"indexed": true,
					"internalType": "address",
					"name": "receiver",
					"type": "address"
				},
				{
					"indexed": true,
					"internalType": "address",
					"name": "caller",
					"type": "address"
				},
				{
					"indexed": false,
					"internalType": "uint256",
					"name": "assets",
					"type": "uint256"
				},
				{
					"indexed": false,
					"internalType": "uint256",
					"name": "shares",
					"type": "uint256"
				}
			],
			"name": "Withdraw",
			"type": "event"
		},
		{
			"inputs": [
				{
					"internalType": "address",
					"name": "to",
					"type": "address"
				},
				{
					"internalType": "uint256",
					"name": "tokenId",
					"type": "uint256"
				}
			],
			"name": "approve",
			"outputs": [],
			"stateMutability": "nonpayable",
			"type": "function"
		},
		{
			"inputs": [
				{
					"internalType": "address",
					"name": "owner",
					"type": "address"
				}
			],
			"name": "balanceOf",
			"outputs": [
				{
					"internalType": "uint256",
					"name": "",
					"type": "uint256"
				}
			],
			"stateMutability": "view",
			"type": "function"
		},
		{
			"inputs": [],
			"name": "buyEnabled",
			"outputs": [
				{
					"internalType": "bool",
					"name": "",
					"type": "bool"
				}
			],
			"stateMutability": "view",
			"type": "function"
		},
		{
			"inputs": [
				{
					"internalType": "uint256",
					"name": "shares_",
					"type": "uint256"
				},
				{
					"internalType": "uint256",
					"name": "reciever",
					"type": "uint256"
				}
			],
			"name": "buyShare",
			"outputs": [
				{
					"internalType": "bool",
					"name": "",
					"type": "bool"
				}
			],
			"stateMutability": "payable",
			"type": "function"
		},
		{
			"inputs": [
				{
					"internalType": "uint256",
					"name": "shares",
					"type": "uint256"
				}
			],
			"name": "convertToAssets",
			"outputs": [
				{
					"internalType": "uint256",
					"name": "",
					"type": "uint256"
				}
			],
			"stateMutability": "view",
			"type": "function"
		},
		{
			"inputs": [
				{
					"internalType": "uint256",
					"name": "assets",
					"type": "uint256"
				}
			],
			"name": "convertToShares",
			"outputs": [
				{
					"internalType": "uint256",
					"name": "",
					"type": "uint256"
				}
			],
			"stateMutability": "view",
			"type": "function"
		},
		{
			"inputs": [],
			"name": "decimals",
			"outputs": [
				{
					"internalType": "uint8",
					"name": "",
					"type": "uint8"
				}
			],
			"stateMutability": "view",
			"type": "function"
		},
		{
			"inputs": [
				{
					"internalType": "uint256",
					"name": "reciever",
					"type": "uint256"
				}
			],
			"name": "deposit",
			"outputs": [
				{
					"internalType": "bool",
					"name": "",
					"type": "bool"
				}
			],
			"stateMutability": "payable",
			"type": "function"
		},
		{
			"inputs": [
				{
					"internalType": "uint256",
					"name": "tokenId",
					"type": "uint256"
				}
			],
			"name": "getApproved",
			"outputs": [
				{
					"internalType": "address",
					"name": "",
					"type": "address"
				}
			],
			"stateMutability": "view",
			"type": "function"
		},
		{
			"inputs": [
				{
					"internalType": "address",
					"name": "owner",
					"type": "address"
				},
				{
					"internalType": "address",
					"name": "operator",
					"type": "address"
				}
			],
			"name": "isApprovedForAll",
			"outputs": [
				{
					"internalType": "bool",
					"name": "",
					"type": "bool"
				}
			],
			"stateMutability": "view",
			"type": "function"
		},
		{
			"inputs": [
				{
					"internalType": "uint256",
					"name": "",
					"type": "uint256"
				}
			],
			"name": "maxDeposit",
			"outputs": [
				{
					"internalType": "uint256",
					"name": "",
					"type": "uint256"
				}
			],
			"stateMutability": "view",
			"type": "function"
		},
		{
			"inputs": [],
			"name": "maxDepositInOneTx",
			"outputs": [
				{
					"internalType": "uint256",
					"name": "",
					"type": "uint256"
				}
			],
			"stateMutability": "view",
			"type": "function"
		},
		{
			"inputs": [
				{
					"internalType": "uint256",
					"name": "",
					"type": "uint256"
				}
			],
			"name": "maxMint",
			"outputs": [
				{
					"internalType": "uint256",
					"name": "",
					"type": "uint256"
				}
			],
			"stateMutability": "view",
			"type": "function"
		},
		{
			"inputs": [
				{
					"internalType": "uint256",
					"name": "id",
					"type": "uint256"
				}
			],
			"name": "maxRedeem",
			"outputs": [
				{
					"internalType": "uint256",
					"name": "",
					"type": "uint256"
				}
			],
			"stateMutability": "view",
			"type": "function"
		},
		{
			"inputs": [
				{
					"internalType": "uint256",
					"name": "id",
					"type": "uint256"
				}
			],
			"name": "maxWithdraw",
			"outputs": [
				{
					"internalType": "uint256",
					"name": "",
					"type": "uint256"
				}
			],
			"stateMutability": "view",
			"type": "function"
		},
		{
			"inputs": [],
			"name": "name",
			"outputs": [
				{
					"internalType": "string",
					"name": "",
					"type": "string"
				}
			],
			"stateMutability": "view",
			"type": "function"
		},
		{
			"inputs": [
				{
					"internalType": "uint256",
					"name": "id",
					"type": "uint256"
				}
			],
			"name": "nftValue",
			"outputs": [
				{
					"internalType": "uint256",
					"name": "",
					"type": "uint256"
				}
			],
			"stateMutability": "view",
			"type": "function"
		},
		{
			"inputs": [],
			"name": "owner",
			"outputs": [
				{
					"internalType": "address",
					"name": "",
					"type": "address"
				}
			],
			"stateMutability": "view",
			"type": "function"
		},
		{
			"inputs": [
				{
					"internalType": "uint256",
					"name": "tokenId",
					"type": "uint256"
				}
			],
			"name": "ownerOf",
			"outputs": [
				{
					"internalType": "address",
					"name": "",
					"type": "address"
				}
			],
			"stateMutability": "view",
			"type": "function"
		},
		{
			"inputs": [
				{
					"internalType": "uint256",
					"name": "assets",
					"type": "uint256"
				}
			],
			"name": "previewDeposit",
			"outputs": [
				{
					"internalType": "uint256",
					"name": "",
					"type": "uint256"
				}
			],
			"stateMutability": "view",
			"type": "function"
		},
		{
			"inputs": [
				{
					"internalType": "uint256",
					"name": "shares",
					"type": "uint256"
				}
			],
			"name": "previewMint",
			"outputs": [
				{
					"internalType": "uint256",
					"name": "",
					"type": "uint256"
				}
			],
			"stateMutability": "view",
			"type": "function"
		},
		{
			"inputs": [
				{
					"internalType": "uint256",
					"name": "shares",
					"type": "uint256"
				}
			],
			"name": "previewRedeem",
			"outputs": [
				{
					"internalType": "uint256",
					"name": "",
					"type": "uint256"
				}
			],
			"stateMutability": "view",
			"type": "function"
		},
		{
			"inputs": [
				{
					"internalType": "uint256",
					"name": "assets",
					"type": "uint256"
				}
			],
			"name": "previewWithdraw",
			"outputs": [
				{
					"internalType": "uint256",
					"name": "",
					"type": "uint256"
				}
			],
			"stateMutability": "view",
			"type": "function"
		},
		{
			"inputs": [
				{
					"internalType": "uint256",
					"name": "shares",
					"type": "uint256"
				},
				{
					"internalType": "uint256",
					"name": "id",
					"type": "uint256"
				},
				{
					"internalType": "address",
					"name": "to",
					"type": "address"
				}
			],
			"name": "redeemShare",
			"outputs": [
				{
					"internalType": "bool",
					"name": "stat",
					"type": "bool"
				}
			],
			"stateMutability": "nonpayable",
			"type": "function"
		},
		{
			"inputs": [],
			"name": "renounceOwnership",
			"outputs": [],
			"stateMutability": "nonpayable",
			"type": "function"
		},
		{
			"inputs": [
				{
					"internalType": "uint256",
					"name": "tokenId",
					"type": "uint256"
				},
				{
					"internalType": "uint256",
					"name": "salePrice",
					"type": "uint256"
				}
			],
			"name": "royaltyInfo",
			"outputs": [
				{
					"internalType": "address",
					"name": "",
					"type": "address"
				},
				{
					"internalType": "uint256",
					"name": "",
					"type": "uint256"
				}
			],
			"stateMutability": "view",
			"type": "function"
		},
		{
			"inputs": [
				{
					"internalType": "address",
					"name": "to",
					"type": "address"
				},
				{
					"internalType": "uint256",
					"name": "tokenId",
					"type": "uint256"
				},
				{
					"internalType": "string",
					"name": "uri",
					"type": "string"
				}
			],
			"name": "safeMint",
			"outputs": [],
			"stateMutability": "nonpayable",
			"type": "function"
		},
		{
			"inputs": [
				{
					"internalType": "address",
					"name": "from",
					"type": "address"
				},
				{
					"internalType": "address",
					"name": "to",
					"type": "address"
				},
				{
					"internalType": "uint256",
					"name": "tokenId",
					"type": "uint256"
				}
			],
			"name": "safeTransferFrom",
			"outputs": [],
			"stateMutability": "nonpayable",
			"type": "function"
		},
		{
			"inputs": [
				{
					"internalType": "address",
					"name": "from",
					"type": "address"
				},
				{
					"internalType": "address",
					"name": "to",
					"type": "address"
				},
				{
					"internalType": "uint256",
					"name": "tokenId",
					"type": "uint256"
				},
				{
					"internalType": "bytes",
					"name": "data",
					"type": "bytes"
				}
			],
			"name": "safeTransferFrom",
			"outputs": [],
			"stateMutability": "nonpayable",
			"type": "function"
		},
		{
			"inputs": [
				{
					"internalType": "address",
					"name": "a",
					"type": "address"
				},
				{
					"internalType": "bool",
					"name": "b",
					"type": "bool"
				}
			],
			"name": "setAllowed",
			"outputs": [],
			"stateMutability": "nonpayable",
			"type": "function"
		},
		{
			"inputs": [
				{
					"internalType": "address",
					"name": "operator",
					"type": "address"
				},
				{
					"internalType": "bool",
					"name": "approved",
					"type": "bool"
				}
			],
			"name": "setApprovalForAll",
			"outputs": [],
			"stateMutability": "nonpayable",
			"type": "function"
		},
		{
			"inputs": [
				{
					"internalType": "uint256",
					"name": "amount",
					"type": "uint256"
				}
			],
			"name": "setMaxDepPerTx",
			"outputs": [],
			"stateMutability": "nonpayable",
			"type": "function"
		},
		{
			"inputs": [
				{
					"internalType": "address",
					"name": "reciever",
					"type": "address"
				},
				{
					"internalType": "uint96",
					"name": "fraction",
					"type": "uint96"
				}
			],
			"name": "setRoyalty",
			"outputs": [],
			"stateMutability": "nonpayable",
			"type": "function"
		},
		{
			"inputs": [
				{
					"internalType": "bool",
					"name": "status",
					"type": "bool"
				}
			],
			"name": "setShareActivity",
			"outputs": [],
			"stateMutability": "nonpayable",
			"type": "function"
		},
		{
			"inputs": [
				{
					"internalType": "uint256",
					"name": "",
					"type": "uint256"
				}
			],
			"name": "shareBalances",
			"outputs": [
				{
					"internalType": "uint256",
					"name": "",
					"type": "uint256"
				}
			],
			"stateMutability": "view",
			"type": "function"
		},
		{
			"inputs": [],
			"name": "sharePrice",
			"outputs": [
				{
					"internalType": "uint256",
					"name": "",
					"type": "uint256"
				}
			],
			"stateMutability": "view",
			"type": "function"
		},
		{
			"inputs": [
				{
					"internalType": "bytes4",
					"name": "interfaceId",
					"type": "bytes4"
				}
			],
			"name": "supportsInterface",
			"outputs": [
				{
					"internalType": "bool",
					"name": "",
					"type": "bool"
				}
			],
			"stateMutability": "view",
			"type": "function"
		},
		{
			"inputs": [],
			"name": "symbol",
			"outputs": [
				{
					"internalType": "string",
					"name": "",
					"type": "string"
				}
			],
			"stateMutability": "view",
			"type": "function"
		},
		{
			"inputs": [
				{
					"internalType": "uint256",
					"name": "tokenId",
					"type": "uint256"
				}
			],
			"name": "tokenURI",
			"outputs": [
				{
					"internalType": "string",
					"name": "",
					"type": "string"
				}
			],
			"stateMutability": "view",
			"type": "function"
		},
		{
			"inputs": [],
			"name": "totalAssets",
			"outputs": [
				{
					"internalType": "uint256",
					"name": "",
					"type": "uint256"
				}
			],
			"stateMutability": "view",
			"type": "function"
		},
		{
			"inputs": [],
			"name": "totalShares",
			"outputs": [
				{
					"internalType": "uint256",
					"name": "",
					"type": "uint256"
				}
			],
			"stateMutability": "view",
			"type": "function"
		},
		{
			"inputs": [],
			"name": "totalSupply",
			"outputs": [
				{
					"internalType": "uint256",
					"name": "",
					"type": "uint256"
				}
			],
			"stateMutability": "view",
			"type": "function"
		},
		{
			"inputs": [
				{
					"internalType": "address",
					"name": "from",
					"type": "address"
				},
				{
					"internalType": "address",
					"name": "to",
					"type": "address"
				},
				{
					"internalType": "uint256",
					"name": "tokenId",
					"type": "uint256"
				}
			],
			"name": "transferFrom",
			"outputs": [],
			"stateMutability": "nonpayable",
			"type": "function"
		},
		{
			"inputs": [
				{
					"internalType": "address",
					"name": "newOwner",
					"type": "address"
				}
			],
			"name": "transferOwnership",
			"outputs": [],
			"stateMutability": "nonpayable",
			"type": "function"
		},
		{
			"inputs": [
				{
					"internalType": "uint256",
					"name": "amount",
					"type": "uint256"
				},
				{
					"internalType": "uint256",
					"name": "id",
					"type": "uint256"
				},
				{
					"internalType": "address",
					"name": "to",
					"type": "address"
				}
			],
			"name": "withdraw",
			"outputs": [
				{
					"internalType": "bool",
					"name": "status",
					"type": "bool"
				}
			],
			"stateMutability": "nonpayable",
			"type": "function"
		},
		{
			"stateMutability": "payable",
			"type": "receive"
		}
	]
}